:020000040000FA
:100000000C94EC0C0C94140D0C94140D0C94140D15
:100010000C94140D0C94140D0C94140D0C94140DDC
:100020000C94140D0C94140D0C940C140C947B145F
:100030000C94140D0C94140D0C94140D0C94140DBC
:100040000C94140D0C94140D0C94140D0C94140DAC
:100050000C94140D0C94140D0C94140D0C94AD16FA
:100060000C94140D0C94140D0C94140D0C94140D8C
:100070000C94140D0C94140D0C94140D0C94140D7C
:100080000C94140D0C94140D0C94140D0C94140D6C
:100090000C94140D0C94140D0C94140D0C94140D5C
:1000A0000C94140D0C94140D0C94140D20200000CD
:1000B0000000000000000000000000000000000040
:1000C000000000002020B4B4AAAAE4E49C9C808034
:1000D0008080000000000000000000000000000020
:1000E0000000000000000000000000000000000010
:1000F0000000000000000000C0C0B0B08C8C626244
:100100003A3AABABA1A12C2C262628282E2E212151
:100110002C2CA9A9ABAB3A3A62628C8CB0B0C0C0AF
:1001200000000000000000000000000000000000CF
:100130000000000000003030CFCF000000000404B9
:100140003838F9F9F9F9F8F8F8F8F8F8F8F8F8F8AB
:10015000F8F8F9F9F9F93838040400000000CFCFB5
:10016000303000000000000000000000000000002F
:10017000000000000000000000007777898981817D
:1001800083838F8F5F5F3F3F7F7FBFBFBFBF7F7F17
:100190003F3F5F5F8F8F83838181898977770000FD
:1001A000000000000000000000000000000000004F
:1001B000000000000000000000000000000000003F
:1001C00000000000404068685454C8C83838000037
:1001D000000000000000000000000000000000001F
:1001E000000000000000000000000000000000000F
:1001F0000000000000000000808060601818C4C487
:1002000074745656424259594D4D51515D5D4343A8
:100210005959525256567474C4C41818606080807C
:1002200000000000000000000000000000000000CE
:1002300000000000000060609F9F010101010808AC
:100240007070F3F3F3F3F0F0F0F0F0F0F0F0F0F0A2
:10025000F0F0F3F3FBFBE4E48484050505059F9FC0
:1002600060600000000000000000000000000000CE
:10027000000000000000000001016E6E9292828278
:1002800086869F9F3F3F7F7F7F7FFFFFFFFF7F7FB0
:100290007F7F3F3F9F9F8787808091916F6F010194
:1002A000000000000000000000000000000000004E
:1002B000000000000000000000000000000000003E
:1002C000000000002020B4B4A8A8E4E49C9C808036
:1002D000808000000000000000000000000000001E
:1002E000000000000000000000000000000000000E
:1002F0000000000000000000C0C0B0B08C8C626242
:100300003A3AABABA9A92C2C21212E2E282826263F
:100310002C2CA1A1ABAB3A3A62628C8CB0B0C0C0BD
:1003200000000000000000000000000000000000CD
:100330000000000000003030CFCF82828282424233
:10034000F2F2FDFDF9F9F8F8F8F8F8F8F8F8F8F82D
:10035000F8F8F9F9F9F93838040400000000CFCFB3
:10036000303000000000000000000000000000002D
:10037000000000000000000000007777888880807F
:1003800083838F8F5F5F3F3F7F7FBFBFBFBF7F7F15
:100390003F3F5F5F8F8F83838181898977770000FB
:1003A000000000000000000000000000000000004D
:1003B000000000000000000000000000000000003D
:1003C000000000000000808080808080D8D8A4A435
:1003D000AAAA343420200000000000000000000021
:1003E000000000000000000000000000000000000D
:1003F0000000000000000000C0C0B0B08C8CC2C281
:100400009A9A0B0B01014C4CA6A688882E2E81814E
:10041000CCCC09090B0BBABAA2A28C8CB0B0C0C06C
:1004200000000000000000000000000000000000CC
:10043000000000000000F0F00F0F000000000000BE
:100440000101030303030202020203030202020288
:1004500002020202030300000000000000000F0F70
:10046000F0F00000000000000000000000000000AC
:100470000000000000000101030372728E8E808074
:1004800080808080404060605858484850505050AC
:1004900060604040C0C0808080808888767601019E
:1004A000000000000000000000000000000000004C
:1004B000000000000000000000000000000000003C
:1004C0000000000020203434A8A8A4A4D8D880803C
:1004D000808080800000000000000000000000001C
:1004E000000000000000000000000000000000000C
:1004F00000000000000000000000C0C0B0B08C8C04
:10050000A2A2BABA0B0B0909CCCC81812E2E888805
:10051000A6A64C4C01010B0B9A9AC2C28C8CB0B0AF
:10052000C0C000000000000000000000000000004B
:100530000000000000000000F0F00F0F00000000BD
:10054000000000000303020202020202020203038F
:100550000202020203030303010100000000000085
:100560000F0FF0F00000000000000000000000008D
:10057000000000000000000000000101767688887D
:1005800080808080C0C040406060505050504848DB
:100590005858606040408080808080808E8E72726B
:1005A0000303010100000000000000000000000043
:1005B000000000000000000000000000000000003B
:1005C000000000000000808080808080D8D8A4A433
:1005D000AAAA34342020000000000000000000001F
:1005E000000000000000000000000000000000000B
:1005F0000000000000000000C0C0B0B08C8CC2C27F
:100600009A9A0B0B01014C4CA6A688882E2E81814C
:10061000CCCC09090B0BBABAA2A28C8CB0B0C0C06A
:1006200000000000000000000000000000000000CA
:10063000000000000000F0F00F0F000000000000BC
:100640000101030303030202020203030202020286
:1006500002020202030300000000000000000F0F6E
:10066000F0F00000000000000000000000000000AA
:100670000000000000000101030372728E8E808072
:1006800080808080404060605858484850505050AA
:1006900060604040C0C0808080808888767601019C
:1006A000000000000000000000000000000000004A
:1006B00000000000000000000000000008080C0C12
:1006C0001C1C1C1C3636B2B2ACACF8F8B0B0808042
:1006D000808000000000000000000000000000001A
:1006E000000000000000000000000000000000000A
:1006F0000000000000000000C0C0B8B88C8C42426E
:100700006B6B2929ADADA4A420202C2C2E2E2020EB
:100710002C2CA9A9ABAB3A3A62628C8CB0B0C0C0A9
:1007200000000000000000000000000000000000C9
:100730000000000000000000FFFF00000000C0C03B
:1007400000000404090919193838F8F8F8F8F8F81D
:10075000F8F8F9F9F9F93838040400000000CFCFAF
:100760003030000000000000000000000000000029
:1007700000003030707058584F4F4040202060606B
:100780008181828286868E8E5F5F3F3F3F3F3F3F03
:100790003F3F5F5F8F8F83838080888877770000FB
:1007A0000000000000000000000000000000000049
:1007B00000000000000000000000000008080C0C11
:1007C0001C1C1C1C3636B2B2ACACF8F8B0B0808041
:1007D0008080000000000000000000000000000019
:1007E0000000000000000000000000000000000009
:1007F0000000000000000000C0C0B8B88C8C42426D
:100800006B6B2929ADADA4A420202C2C2E2E2020EA
:100810002C2CA9A9ABAB3A3A62628C8CB0B0C0C0A8
:1008200000000000000000000000000000000000C8
:100830000000000000000000FFFF00000000C0C03A
:1008400000000404090919193838F8F8F8F8F8F81C
:10085000F8F8F9F9F9F9F8F88484000008080F0F9E
:1008600010102020C0C000000000000000000000A8
:1008700000003030707058584F4F4040202060606A
:100880008181828286868E8E5F5F3F3F3F3F3F3F02
:100890003F3F5F5F8F8F838380808F8F71710202F4
:1008A000020202020101000000000000000000003E
:1008B00000000000000000000000000010101818E8
:1008C000383838386C6C64645858F0F06060000058
:1008D0000000000000000000000000000000000018
:1008E0000000000000000000000000000000000008
:1008F00000000000000000008080707018188484E0
:10090000D6D652525A5A4949414159595D5D4141E1
:100910005959525256567474C4C418186060808075
:1009200000000000000000000000000000000000C7
:100930000000000000000000FFFF010101018080B5
:1009400000000808131333337070F0F0F0F0F0F08B
:10095000F0F0F3F3F3F3F0F00808010109090707D9
:100960008484424222221C1C00000000000000007F
:1009700018186868909090909F9F40404040C1C177
:10098000828284848C8C9C9CBEBE7F7F7F7F7F7F95
:100990007F7FBFBF9F9F878780809292EEEE01018D
:1009A0000000000000000000000000000000000047
:1009B00000000000000000000000000008080C0C0F
:1009C0001C1C1C1C3636B2B2ACACF8F8B0B080803F
:1009D0008080000000000000000000000000000017
:1009E0000000000000000000000000000000000007
:1009F0000000000000000000C0C0B8B88C8C42426B
:100A00006B6B2929ADADA4A4A0A02C2C2E2E2020E8
:100A10002C2CA9A9ABAB3A3A62628C8CB0B0C0C0A6
:100A200000000000000000000000000000000000C6
:100A30000000000000000000FFFF00000000C0C038
:100A40008080C1C1E1E1E0E0F0F0FFFFF8F8F8F8E4
:100A5000F8F8F9F9F9F9F8F88484000008080F0F9C
:100A600010102020C0C000000000000000000000A6
:100A700000003030707058584F4F40402020606068
:100A80008181838387878F8F5F5F3F3F3F3F3F3FFA
:100A90003F3F5F5F8F8F838380808F8F71710202F2
:100AA000020202020101000000000000000000003C
:100AB0000000000000000000000000000000000036
:100AC000000000000000000080808080B0B0F8F8D6
:100AD000ACACB2B236361C1C1C1C0C0C0808000056
:100AE0000000000000000000000000000000000006
:100AF00000000000000000000000C0C0B0B08C8CFE
:100B000062623A3AABABA9A92C2C20202E2E2C2CB9
:100B10002020A4A4ADAD29296B6B42428C8CB8B8BF
:100B2000C0C0000000000000000000000000000045
:100B300000000000000000003030CFCF00000000B7
:100B400004043838F9F9F9F9F8F8F8F8F8F8F8F889
:100B500038381919090904040000C0C00000000059
:100B6000FFFF000000000000000000000000000087
:100B70000000000000000000000000007777888877
:100B8000808083838F8F5F5F3F3F3F3F3F3F3F3F8B
:100B90005F5F8E8E868682828181606020204040E9
:100BA0004F4F5858707030300000000000000000B7
:100BB0000000000000000000000000000000000035
:100BC000000000000000000080808080B0B0F8F8D5
:100BD000ACACB2B236361C1C1C1C0C0C0808000055
:100BE0000000000000000000000000000000000005
:100BF00000000000000000000000C0C0B0B08C8CFD
:100C000062623A3AABABA9A92C2C20202E2E2C2CB8
:100C10002020A4A4ADAD29296B6B42428C8CB8B8BE
:100C2000C0C0000000000000000000000000000044
:100C300000000000C0C0202010100F0F08080000A6
:100C40008484F8F8F9F9F9F9F8F8F8F8F8F8F8F808
:100C500038381919090904040000C0C00000000058
:100C6000FFFF000000000000000000000000000086
:100C700000000000010102020202020271718F8F66
:100C8000808083838F8F5F5F3F3F3F3F3F3F3F3F8A
:100C90005F5F8E8E868682828181606020204040E8
:100CA0004F4F5858707030300000000000000000B6
:100CB0000000000000000000000000000000000034
:100CC0000000000000000000000000006060F0F084
:100CD000585864646C6C3838383818181010000094
:100CE0000000000000000000000000000000000004
:100CF0000000000000000000000080806060181804
:100D0000C4C4747456565252595941415D5D595983
:100D1000414149495A5A5252D6D6848418187070A3
:100D200080800000000000000000000000000000C3
:100D300000001C1C22224242848407070909010189
:100D40000808F0F0F3F3F3F3F0F0F0F0F0F0F0F067
:100D50007070333313130808000080800101010113
:100D6000FFFF000000000000000000000000000085
:100D7000000000000000000000000101EEEE929271
:100D8000808087879F9FBFBF7F7F7F7F7F7F7F7FA1
:100D9000BEBE9C9C8C8C84848282C1C140404040F9
:100DA0009F9F9090909068681818000000000000C5
:100DB0000000000000000000000000000000000033
:100DC000000000000000000080808080B0B0F8F8D3
:100DD000ACACB0B036361E1E1C1C0C0C0808000053
:100DE0000000000000000000000000000000000003
:100DF00000000000000000000000C0C0B0B08C8CFB
:100E000062623A3AABABA9A92C2C20202E2E2C2CB6
:100E1000A0A0A4A4ADAD29296B6B42428C8CB8B8BC
:100E2000C0C0000000000000000000000000000042
:100E300000000000C0C0202010100F0F08080000A4
:100E40008484F8F8F9F9F9F9F8F8F8F8F8F8FFFFF8
:100E5000F0F0E0E0E1E1C1C18080C0C0000000002E
:100E6000FFFF000000000000000000000000000084
:100E700000000000010102020202020271718F8F64
:100E8000808083838F8F5F5F3F3F3F3F3F3F3F3F88
:100E90005F5F8F8F878783838181606020204040E0
:100EA0004F4F58587070303000000000000000FFB5
:100EB00000FF00FF00FF00FF00FF00FF00FF00FF3A
:100EC00000FF00FF00FF00FF00FF00FF00FF00FF2A
:100ED00000FF00FF00FF00FF00FF00FF00FF00FF1A
:100EE00000FF00FF00FF00FF00FF00FF00FF00FF0A
:100EF00000FF00FF00FF00FF00FF00FF00FF00FFFA
:100F000000FF00FF00FF00FF00FF00FF00FF00FFE9
:100F100000FF00FF00FF00FF00FF00FF00FF00FFD9
:100F200000FF00FF00FF00FF00FF00FF00FF00FFC9
:100F300000FF00FF00FF00FF00FF00FF00FF00FFB9
:100F400000FF00FF00FF00FF00FF00FF00FF00FFA9
:100F500000FF00FF00FF00FF00FF00FF00FF00FF99
:100F600000FF00FF00FF00FF00FF00FF00FF00FF89
:100F700000FF00FF00FF00FF00FF00FF00FF00FF79
:100F800000FF00FF00FF00FF00FF00FF00FF00FF69
:100F900000FF00FF00FF00FF00FF00FF00FF00FF59
:100FA00000FF00FF00FF00FF00FF00FF00FF000048
:100FB0000000003E5B4F5B3E3E6B4F6B3E1C3E7C39
:100FC0003E1C183C7E3C181C577D571C1C5E7F5EE7
:100FD0001C00183C1800FFE7C3E7FF0018241800A6
:100FE000FFE7DBE7FF30483A060E2629792926403D
:100FF0007F050507407F05253F5A3CE73C5A7F3E69
:101000001C1C08081C1C3E7F14227F22145F5F00FA
:101010005F5F06097F017F006689956A6060606096
:101020006094A2FFA29408047E040810207E201081
:1010300008082A1C08081C2A08081E101010100C8A
:101040001E0C1E0C30383E3830060E3E0E060000D8
:1010500000000000005F00000007000700147F147C
:101060007F14242A7F2A12231308646236495620EB
:10107000500008070300001C2241000041221C0010
:101080002A1C7F1C2A08083E0808008070300008CF
:1010900008080808000060600020100804023E51A3
:1010A00049453E00427F4000724949494621414935
:1010B0004D331814127F1027454545393C4A49499C
:1010C0003141211109073649494936464949291E06
:1010D00000001400000040340000000814224114F5
:1010E00014141414004122140802015909063E4147
:1010F0005D594E7C1211127C7F494949363E41416F
:1011000041227F4141413E7F494949417F090909C7
:10111000013E414151737F0808087F00417F410033
:101120002040413F017F081422417F404040407FE2
:10113000021C027F7F0408107F3E4141413E7F092F
:101140000909063E4151215E7F0919294626494970
:10115000493203017F01033F4040403F1F204020B0
:101160001F3F4038403F63140814630304780403AE
:101170006159494D43007F4141410204081020005C
:101180004141417F040201020440404040400003CD
:1011900007080020545478407F2844443838444499
:1011A0004428384444287F385454541800087E0991
:1011B0000218A4A49C787F0804047800447D4000B1
:1011C0002040403D007F1028440000417F40007CCB
:1011D000047804787C080404783844444438FC18C3
:1011E00024241818242418FC7C08040408485454A7
:1011F000542404043F44243C4040207C1C204020D4
:101200001C3C4030403C44281028444C9090907C3A
:101210004464544C4400083641000000770000004C
:101220004136080002010204023C2623263C1EA18E
:10123000A161123A4040207A3854545559215555ED
:10124000794121545478412155547840205455799E
:10125000400C1E527212395555555939545454592F
:1012600039555454580000457C410002457D4200E8
:1012700001457C40F0292429F0F0282528F07C54F1
:101280005545002054547C547C0A097F4932494911
:1012900049323248484832324A4848303A4141217E
:1012A0007A3A42402078009DA0A07D3944444439D8
:1012B0003D4040403D3C24FF2424487E4943662B6A
:1012C0002FFC2F2BFF0929F620C0887E090320540C
:1012D0005479410000447D413048484A323840400A
:1012E000227A007A0A0A727D0D19317D2629292F6A
:1012F00028262929292630484D4020380808080882
:1013000008080808382F10C8ACBA2F102834FA0083
:10131000007B000008142A142222142A14089500C5
:10132000220095AA005500AAAA55AA55AA000000B5
:10133000FF00101010FF00141414FF001010FF0025
:10134000FF1010F010F0141414FC001414F700FF38
:101350000000FF00FF1414F404FC141417101F10F5
:10136000101F101F1414141F00101010F0000000A4
:10137000001F101010101F10101010F010000000AF
:10138000FF101010101010101010FF10000000FFC0
:10139000140000FF00FF00001F10170000FC04F401
:1013A00014141710171414F404F40000FF00F714B9
:1013B000141414141414F700F71414141714101040
:1013C0001F101F141414F4141010F010F000001F5C
:1013D000101F0000001F14000000FC140000F0109B
:1013E000F01010FF10FF141414FF141010101F0041
:1013F000000000F010FFFFFFFFFFF0F0F0F0F0FF43
:10140000FFFF0000000000FFFF0F0F0F0F0F384419
:101410004438447C2A2A3E147E02020606027E02DA
:101420007E0263554941633844443C04407E201E9B
:101430002006027E020299A5E7A5991C2A492A1CCA
:101440004C7201724C304A4D4D303048784830BCB7
:10145000625A463D3E494949007E0101017E2A2AE1
:101460002A2A2A44445F444440514A444040444A62
:1014700051400000FF0103E080FF000008086B6B93
:10148000083612362436060F090F06000018180019
:1014900000001010003040FF0101001F01011E007C
:1014A000191D1712003C3C3C3C0000000000F0F805
:1014B0009C8E8783878E9CF8F00000FEFF03030359
:1014C0000303070EFCF80000FEFF030303030307FA
:1014D0000EFCF80000FFFF00000000000000FFFF0E
:1014E0000000FEFF8383838383C7EE7C380000F80F
:1014F000FC0E07030303070EFCF800003F7FE0C06B
:101500008080C0E07F3FFFFF01010101010101FF79
:10151000FF0000FFFF0C0C0C0C1C3E77E3C1000029
:101520007FFFC0C0C0C0C0E0703F1F00001F3F7001
:10153000E0C0C0C0E0703F1F00007FFFC1C1C1C15B
:10154000C1E3773E1C00001F3F70E0C0C0C0E070E8
:101550003F1F000000000001FFFF010000008D148C
:10156000A1C881CFD9F102AF804000000000000087
:101570000000000000000000C0C0F0F0F0F0F0F04B
:101580003C3C0C0CF0F0C0C000000000000000006B
:101590000000000000E0E0181818181818E0E0003B
:1015A00000F8F8000000000000F8F80000E0E01883
:1015B0001818181818E0E00000E0E01818181818BB
:1015C0001860600000E0E018181818181860600033
:1015D00000E0E0181818181818E0E00000F8F8808B
:1015E0008000000000F8F80000000000000000008B
:1015F00000000000000000000000000003030303DF
:101600000F0FCFCFCCCCFFFFCFCFC0C0C0C00000EA
:1016100000000000007F7F8080989860609F9F009E
:10162000007F7F8080808080807F7F0000FFFF06BA
:101630000606060606FFFF00007F7F8080808098F8
:1016400098787800007F7F808080809898787800F4
:10165000007F7F8080808080807F7F0000FFFF018F
:101660000106061818FFFF0000000000000000003F
:10167000000000000000C0C0F0F00C0CCFCFC3C3CE
:10168000F3F330300000F0F0FCFC0000F0F0C3C3D6
:10169000CFCFCCCC0C0CF0F1010101000001010016
:1016A0000000000101010101010000000001010032
:1016B0000000000030494948880000A1A1C1010193
:1016C000C10000C00040A0A12101010101000000F3
:1016D0000000000101010101010000000001010002
:1016E00000000000000101000000000000000000F8
:1016F00000000000F0F0CFCFC0C030303C3C0C0CFC
:10170000CCCCCCCC0C0C0C0C0C0C0C0C0C0CCCCC99
:10171000CCCC0F0F3C3CC0C0CFCFF0F0000000009D
:1017200000000000000000000000000000000000B9
:101730000000000002020202010001020201020098
:101740000912120D00020202010000000000000058
:101750000000000000000000000000000000000089
:101760000000000000000000000000000000000079
:1017700000000000FFFF000000000000000030300B
:10178000C3C3C3C3C0C0C0C0C0C0C0C0C0C0C3C347
:10179000C3C3C0C0303000000000FFFF00000000E5
:1017A00000000000000000000000C04040C0000039
:1017B0000000000000000000000000000000000029
:1017C00000804020A02040800000000000000000B9
:1017D000008040A0A0204080000000000000000029
:1017E00000000000000000000000000000000000F9
:1017F00000000000FFFF00000000F0F0000000000B
:10180000000003030F0FFFFFFFFFFFFFFFFFFFFFBE
:10181000FFFF0F0F000000000000F0F00F0F0000AE
:10182000000000000000000000001F020201001F75
:101830000201000E15160012150D0012150D000004
:10184000003F40BF84BF403F00000002070200008D
:10185000003F40BFA49B403F00000000000000008C
:101860000000000000000000000000000000000078
:101870000000C0C0FFFF00000000000003030C0CCC
:101880003C3CFCFCFFFFFFFFFFFFFFFFFFFFFFFFF4
:10189000FFFF0F0F0000C0C03F3F0000000000002E
:1018A000000000000000000000000404FC04E4103C
:1018B000E0000000000000F80404040400E010E070
:1018C00000E010E00010F01000D000E010E000F0A8
:1018D00000F000E050600000000000000000000088
:1018E00000000000000000000000000000000F0FDA
:1018F0003F3F3333303030300C0C3C3CC0C0C0C0B4
:10190000C0C0C0C033330F0F0F0F0F0F0F0F333393
:10191000C0C0C0C0C0C0C0C03F3F00000000000049
:1019200000000000000000000000000001000001B5
:1019300000000000000000000101010100000100A2
:101940000001000100000100000100010001000091
:101950000100000001010000000000000000000084
:1019600000000000000000000000080B000202025E
:10197000000009040000010202000005240010011B
:1019800005240101010424020605240600010705BF
:10199000810310004009040100020A00000007054D
:1019A000020240000007058302400000040309040E
:1019B00012010002EF0201404123368000010102C2
:1019C000030141726475696E6F204C4C43004142C3
:1019D0004131313036006E1711241FBECFEFDAE0EF
:1019E000DEBFCDBF11E0A0E0B1E0E6ECFBE302C05A
:1019F00005900D92A43FB107D9F726E0A4EFB1E01E
:101A000001C01D92AE3EB207E1F71CE0CCEEDCE077
:101A100004C02197FE010E94DB1DCB3ED107C9F710
:101A20000E94A5170C94E11D0C94000090E0E5E8DD
:101A3000F2E091119FEF8FEF919391939193919396
:101A40008150D0F7E7EDF6E0128A118A108A1786E6
:101A50000895E5E8F2E030EB20E146E05C983EBD19
:101A60004A95F1F72EBD20E8239507C044914081A7
:101A70005C9A4EBD8111412D419344912A95B1F755
:101A80003395383B49F70DB4089580E00C94290D47
:101A900068EE73E080E090E0AB01FC010E94640D11
:101AA00041505109E109F10928F068517C4F8F4FED
:101AB0009F4FF6CFAB01FC010E94640D64177507C0
:101AC0008E079F07C8F30895ACEFB1E02FB7F894E5
:101AD0007D918D919C9166B52FBFA89B05C06F3FEE
:101AE00018F47F5F8F4F9F4F22E0660F771F881F8C
:101AF000991F2A95D1F708959091E106982329F02E
:101B00009091E006982381E009F080E00895FC01BF
:101B100080918402882311F13FB7F89482E080938A
:101B2000E9002091F200822F90E01816190614F4B3
:101B300081E090E0882339F0289844E640938302BE
:101B40004091F1004083222339F02091F2002111CD
:101B500003C02BE62093E8003FBF08958FEF9FEF6F
:101B600008952FB7F89483E08093E9009091E800FE
:101B7000892F807295FF04C09091F20080E4891B48
:101B80002FBF089580917B0281110DC082E0809368
:101B9000770284E08093780210927A0210927902A0
:101BA00081E080937B0287E792E00895CF93DF93F3
:101BB0001F92CDB7DEB76983DC01ED91FC91028005
:101BC000F381E02D41E050E0BE016F5F7F4F09954A
:101BD0000F90DF91CF91089583E08093E900809189
:101BE000F200882319F08AE38093E80008950E94A8
:101BF000B10D90E00895CF93DF931F92CDB7DEB77C
:101C0000FC018485958597FD08C02FEF3FEF358750
:101C100024870F90DF91CF910895CE0101960E9405
:101C2000870D019719F4898190E0F3CF8FEF9FEF33
:101C3000F0CF0F931F93CF93DF931F92CDB7DEB7F3
:101C40008C01FC018485958597FF0BC0CE01019620
:101C50000E94870D019771F4898190E0F8019587C2
:101C60008487F801848595850F90DF91CF911F912E
:101C70000F9108958FEF9FEFF1CFFC01848595853B
:101C800097FD0BC09FB7F89482E08093E9008091A4
:101C9000F2009FBF90E0019608959FB7F89482E00C
:101CA0008093E9008091F2009FBF90E008954091F9
:101CB00071025091720220916F02309170024217AE
:101CC0005307B4F49091E8009570E1F39091E80027
:101CD00092FD19C08093F10080917102909172027F
:101CE00001968F739927892B19F48EEF8093E80062
:101CF000809171029091720201969093720280938A
:101D0000710281E0089580E00895DF92EF92FF92E2
:101D10000F931F93CF93DF93D82E8A01EB017B01A2
:101D2000E40EF51ECE15DF0559F0D7FE12C0FE01F8
:101D300084910E94570E21968111F4CF0FEF1FEF6F
:101D4000C801DF91CF911F910F91FF90EF90DF902D
:101D500008958881EECF0F931F93CF93DF931F9247
:101D6000CDB7DEB782E0898342E450E06AE679E1EC
:101D700080E80E94850E0E94C20DDC0112960D9132
:101D80001C910115110589F0D801ED91FC9102809B
:101D9000F381E02DBE016F5F7F4FC801099597FD6C
:101DA00004C0F80100851185ECCF89810F90DF9187
:101DB000CF911F910F910895615030F02091F10063
:101DC000FC0120830196F8CF289884E68093830253
:101DD00008950895AF92BF92CF92DF92EF92FF9253
:101DE0000F931F93CF93DF936C017B018B01040F43
:101DF000151FEB015E01AE18BF08C017D10759F0DF
:101E00006991D601ED91FC910190F081E02DC60120
:101E10000995892B79F7C501DF91CF911F910F911A
:101E2000FF90EF90DF90CF90BF90AF900895FC01AE
:101E30000E94640D319728F068517C4F8F4F9F4F5F
:101E4000F9CFAB01FC010E94640D641775078E0782
:101E50009F07C8F308958F929F92AF92BF92CF923F
:101E6000DF92EF92FF920F931F93CF93DF936C015A
:101E70007B018A0180911101882309F45AC0809165
:101E80008402882309F455C08091760280FF05C042
:101E90008091E00082608093E000E801B12C8AEF3D
:101EA000A82E93E0892E2AE3922E209711F4BB20CE
:101EB000C9F10E94B10D811108C0AA94AA20C9F1EC
:101EC00081E090E00E94170FF0CF8C171D0611F0F3
:101ED0000CF08C2F9FB7F8948092E9002091E800D5
:101EE00025FD02C09FBFE1CF282F30E0C21BD30BDE
:101EF000F701815020F041914093F100FACFE20EBA
:101F0000F31EBB2021F09092E800B12CEBCF809122
:101F1000E80085FDE7CF9092E800BB24B3942097BA
:101F200009F3F3CF5D9884E68093750210161106CD
:101F30003CF081E090E0F6019383828310E000E0C2
:101F4000C801DF91CF911F910F91FF90EF90DF902B
:101F5000CF90BF90AF909F908F9008954F925F92D7
:101F60006F927F928F929F92AF92BF92CF92DF92A9
:101F7000EF92FF920F931F93CF93DF934C01FC2DB1
:101F8000C02FD0E0DE01A80FB91F1A161B060CF0F7
:101F900050C080E8881691040CF04BC0CB018E0D28
:101FA000911D892B09F445C04115510509F441C023
:101FB000962F977013E0759567951A95E1F7162F90
:101FC000AA24BB24A818B90897FC02C0B12CA12CE4
:101FD000A038B10514F000E808190A19E1E08E2DC7
:101FE000877009F4E0E0E694E694E694EE0EDB01F7
:101FF000AE0DB11D19971CF0E8E0EE2EE61ADB01DC
:10200000B695BA2FAA27B795A795A80DB91DAA0D01
:10201000BB1D4A0D5B1D892E092E000C9908F3305B
:1020200009F40DC1B8F4F13009F4C3C0F23009F479
:1020300047C0DF91CF911F910F91FF90EF90DF90FC
:10204000CF90BF90AF909F908F907F906F905F9058
:102050004F900895FA3F09F479C0FB3F51F7812F63
:10206000861B8E1530F79D012B573D4FD12CC12C6F
:10207000C01608F098C0FA01EC0DFD1DA490B12C1B
:10208000082C02C0AA0CBB1C0A94E2F717FD07C07B
:10209000F9018081EA2DE0958E23F901808399234F
:1020A00049F017303CF4F901E058FF4FB0948081BB
:1020B0008B218083FFEFCF1ADF0A2F5F3F4FD8CFEE
:1020C00066246A94712C092E02C0660C771C0A944F
:1020D000E2F760947094572C812F861B8E1508F0C0
:1020E000A8CF9D012B573D4FD12CC12CC01618F500
:1020F000FA01EC0DFD1DA490B12C082C02C0AA0C15
:10210000BB1C0A94E2F717FD05C0F9018081862106
:102110008A298083992349F017303CF4F901E0586B
:10212000FF4F808185218B298083FFEFCF1ADF0A43
:102130002F5F3F4FDBCF4C0F5D1FA058BF4F1F5F7E
:10214000CBCF4C0F5D1FA058BF4F1F5F812F861B49
:102150008E1508F06ECF9D012B573D4FD12CC12C11
:10216000C01678F7FA01EC0DFD1DA490B12C082CD7
:1021700002C0AA0CBB1C0A94E2F717FD04C0F901C7
:1021800080818A298083992341F0173034F4F90142
:10219000E058FF4F80818B298083FFEFCF1ADF0A41
:1021A0002F5F3F4FDDCF4C0F5D1FA058BF4F1F5F0C
:1021B00056CFA20EB31E812F861B8E1508F039CF85
:1021C0009D012B573D4FD12CC12CC01680F5F50138
:1021D000EC0DFD1D6490712C082C02C0660C771C60
:1021E0000A94E2F760947094FA01EC0DFD1D44909E
:1021F000512C082C02C0440C551C0A94E2F717FD20
:1022000005C0F9018081862184298083992349F0C2
:1022100017303CF4F901E058FF4F80818721852970
:102220008083FFEFCF1ADF0A2F5F3F4FCECF4C0FD7
:102230005D1FAC0EBD1EA058BF4F1F5FBCCFC02E90
:10224000D12CA40EB51EAB57BD4F20E830E02C19A1
:102250003D09CC19DD09AE01440F551FC1E0D0E0A6
:102260006E01092E01C0CC0C0A94EAF77E2DE02EF7
:10227000F501F92ECF93DF93ED01EF96EF962296BD
:1022800065908590FF2059F06C9C30018C9C40013A
:1022900067302CF4A8809094A920A728A9926623DF
:1022A0003AF0AC908094A820A628AD920C945911D5
:1022B00011960A9529F77A9551F00E2D6395112400
:1022C000E40FF11DA20FB11DC20FD11DD9CFDF91B7
:1022D000CF911124AECE2D9A089590E00C94170F53
:1022E0008FB18095807F669B88601C9B8460089579
:1022F0002F923F924F925F926F927F928F929F9216
:10230000AF92BF92CF92DF92EF92FF920F931F9303
:10231000CF93DF93CDB7DEB72B970FB6F894DEBF20
:102320000FBECDBF9C838B836A3061F5DC0155966F
:102330008C91B8E08B9F90011124EB81FC81818905
:102340009289820F931F928B818B108A178681E06E
:1023500090E02B960FB6F894DEBF0FBECDBFDF9195
:10236000CF911F910F91FF90EF90DF90CF90BF9092
:10237000AF909F908F907F906F905F904F903F9025
:102380002F9008956D3019F3AB81BC8155969C90C8
:10239000559754965C9054975D8253964C90539702
:1023A0005196ED90FC9052971F968D919C91092D1E
:1023B00010E0803891050CF084C020E4E216F104AE
:1023C0000CF07FC0E5E09C019E9E200D311D112484
:1023D000121613060CF075C09801F3E0220F331F9C
:1023E000FA95E1F72E0D3F1D121613060CF069C089
:1023F0006E9FF0011124BF016255704F7F836E8381
:10240000AC01712CEE81FF812491F5E07F1201C0B7
:1024100020E0670178E0672E222E312C842C20FFEB
:102420008D80811004C05D80541409F437C09A0176
:102430002983622F641B691508F030C01B861A8639
:102440006A85691540F520383105F0F4AA84BB840B
:10245000AC0CBD1C70E4A716B104B0F4F50170E13A
:10246000598061E0E1FD64E0E0FD660FE2FD629508
:10247000E87F7E9FD0011124A50DAB57BD4F0C9076
:10248000062A80FE06260C926A857B856F5F7F4F49
:102490007B876A87D5CF2F5F3F4FCACF9101359594
:1024A00027956A94C00ED11E6110B6CF7394EE8149
:1024B000FF813196FF83EE83400F511FF6E07F12BC
:1024C000A1CF26E0929E800D911D1124AB81BC818D
:1024D00050969C938E931F9756962C915697222335
:1024E00009F435CF4AEF40039001419F300D11248C
:1024F00020583F4F281739070CF029CFCD01ED9117
:10250000FC910190F081E02D6AE0099520CF0895BB
:10251000089590E080E00895CF92EF920F9380911C
:1025200008028F3018F48F5F809308022091080210
:102530008091D5069091D606ECEAF0E00491EDEAA0
:10254000F0E0E4904EEA50E02223F9F061E070E020
:102550003E2D377011F470E060E04E2D46954695A3
:102560004695460F572F511D049FB001059F700DD2
:10257000112430E0220F331F629FA001639F500D92
:10258000729F500D112442555F4F23E0C22E30E060
:1025900020E06EE170E00E94AE0F0F91EF90CF90BF
:1025A0000895FC0101900020E9F73197AF01481B25
:1025B000590BBC0187ED96E00C94EA0E8F929F9226
:1025C000AF92BF920F931F93CF93DF93CDB7DEB738
:1025D000A1970FB6F894DEBF0FBECDBF19A242304F
:1025E00008F44AE08E010F5D1F4F842E912CB12C10
:1025F000A12CA50194010E94AA1DE62FB901CA01D0
:10260000EA30F4F4E05DD801EE938D01232B242B06
:10261000252B79F790E080E0109719F0CD010E940A
:10262000D112A1960FB6F894DEBF0FBECDBFDF91D9
:10263000CF911F910F91BF90AF909F908F90089571
:10264000E95CE1CFCF92DF92EF92FF92CF93DF93DD
:102650006B017C016DE287ED96E00E947811EC0140
:1026600066277727CB016C197D098E099F094AE0FF
:102670000E94DE128C0F9D1FDF91CF91FF90EF9093
:10268000DF90CF900895CF93DF930E94D112EC0199
:1026900083E491E00E94D1128C0F9D1FDF91CF91B6
:1026A00008950C94D11280910001909101011816A7
:1026B00019060CF44CC00E94160D88E290E090932D
:1026C000E7068093E6068AE090E09093E90680931F
:1026D000E80682E08093EC0686E491E00E945113C4
:1026E00081E08093EC061092E7061092E60680E205
:1026F00090E09093E9068093E8068BE491E00E94D5
:1027000051130E94450D0E94480D81E090E0909386
:1027100005018093040122E030E03093030120930F
:10272000020110920502109204029093010180931D
:102730000001109206020E9470118C708C3079F1A9
:1027400084E690E00E94170F0E94160DF4CF80914E
:102750000602882319F00E94160DC5CF0E94160D9F
:1027600080E490E09093E7068093E6061092E906F5
:102770001092E80682E08093EC0680E691E00E94E9
:10278000431381E08093EC0685E691E00E944313B9
:1027900087E791E00E9443130E94450DCCCF109231
:1027A0006E0210926D020895BC01990F880B990B6F
:1027B00097FD0C9422134AE00C94DE120F931F93A2
:1027C000CF93DF93C7EDD6E0188A1F8605E010E0AF
:1027D0001A8B098B8CE891E00E94511380910401BF
:1027E000909105010E94D4138BE490E0988B8F8721
:1027F0001A8B098B84E991E00E94511380910402A5
:10280000909105020E94D413DF91CF911F910F91F7
:102810000C94450D0C94621D1F920F920FB60F92EF
:1028200011248F939F938091E1009091E100937F19
:102830009093E10083FF0FC01092E90091E0909324
:10284000EB001092EC0092E39093ED001092840262
:1028500098E09093F00082FF22C093E09093E9000B
:102860009091F200992319F09AE39093E8009091E7
:102870007502992341F090917502915090937502E1
:10288000911101C05D9A90918302992341F090913A
:102890008302915090938302911101C0289A84FF82
:1028A00018C08091E2008E7E81608093E20080916A
:1028B000E1008F7E8093E100809176028E7E8061C0
:1028C000809376029F918F910F900FBE0F901F9073
:1028D000189580FFF7CF8091E2008E7E8061809313
:1028E000E2008091E1008E7E8093E100809176028B
:1028F0008E7E8160E5CF1F920F920FB60F9211244A
:10290000CF92DF92EF92FF920F931F932F933F93FB
:102910004F935F936F937F938F939F93AF93BF93E7
:10292000EF93FF93CF93DF93CDB7DEB76C97DEBF06
:10293000CDBF1092E9008091E80083FF25C068E0D8
:10294000CE0145960E94DC0E82EF8093E8008D89CF
:1029500087FF39C09091E80090FFFCCF982F9076C8
:1029600009F034C19E894F89588D2F89F88C9111B7
:1029700031C0803861F5809174028093F10010922B
:10298000F1008EEF8093E8006C960FB6F894DEBFEE
:102990000FBECDBFDF91CF91FF91EF91BF91AF916E
:1029A0009F918F917F916F915F914F913F912F9167
:1029B0001F910F91FF90EF90DF90CF900F900FBE7F
:1029C0000F901F9018959EEF9093E800C7CF10923C
:1029D000F100D5CF913059F48111D3CF4130510559
:1029E00081F6809174028D7F80937402CACF9330F8
:1029F00049F48111C6CF4130510519F68091740216
:102A00008260F2CF953041F48091E80080FFFCCFE6
:102A100020682093E300B5CF963009F0A9C00B8D54
:102A20001C8D22E01092E900109272021092710245
:102A3000F2122EC01092700210926F020E94AB0E22
:102A40001F8299E09983FA8291E09E8390EA9887A9
:102A50009AEF99872091710230917202275F3F4F60
:102A60003C832B838D831092E900109272021092A6
:102A700071021093700200936F0249E050E0BE01B2
:102A80006F5F7F4F80E00E94850E0E94AB0E79CF72
:102A90001093700200936F020E94C20DDC01129627
:102AA0000D911C910115110509F451C1D801ED9149
:102AB000FC910480F581E02DBE016B5E7F4FC80163
:102AC0000995009709F03EC1F80100851185EACF0C
:102AD000F3E0FF120EC08F89882309F440C08230D2
:102AE00061F440E867E08EEC99E10E94F7168111ED
:102AF00048CF81E28093EB0047CF813029F440E852
:102B00006BE082EC99E1F1CF833099F70E94C20D1E
:102B1000DC011296ED90FC908E010F5F1F4F680153
:102B2000E114F10479F0D701ED91FC910680F78171
:102B3000E02DB801C7010995080F111DF701E084C8
:102B4000F184EECFD8011C92F60101900020E9F744
:102B50003197BF016C197D0940E0C601C6CF6CEA10
:102B600079E1FB01449150E080E80E94850E09CF95
:102B7000973009F4BECF983021F481E08093F100C2
:102B800000CF993009F0FDCE837009F0B2CFE7E1B4
:102B9000F1E081E031E096E32191222371F080930E
:102BA000E9003093EB00DF0111972C912093EC00AA
:102BB0009093ED008F5F873079F78EE78093EA007E
:102BC0001092EA008F8980938402DBCE8B8D9C8DDE
:102BD0001092E900109272021092710290937002AA
:102BE00080936F02898D811192C08E899D89913A5F
:102BF00049F4813209F07DCF47E050E06AE071E0AE
:102C000080E0B3CF913209F074CF833269F48F89B9
:102C1000988DB0E0A0E08093060190930701A09307
:102C20000801B0930901ADCE803269F48091E800CB
:102C300082FFFCCF67E08AE091E00E94DC0E8BEF20
:102C40008093E8009ECE823209F09BCE8F898093DC
:102C50001101EEEFFFE7859194918B3F9C4D51F16F
:102C6000E0E0F8E080910A0190910B01A0910C0145
:102C7000B0910D01803B9440A105B105F1F4809124
:102C8000110180FD1AC0EE3F8AE0F80789F587E759
:102C900097E791838083809160008093730288E13D
:102CA0009BE00FB6F894A895809360000FBE9093B8
:102CB000600067CEEEEFFAE0D5CF80819181873753
:102CC000974709F05ECEA895809160008861809357
:102CD00060008091730280936000EE3F2AE0F2076B
:102CE00089F08091FE0A9091FF0A9183808349CEFA
:102CF000808191818737980751F29093FF0A8093E2
:102D0000FE0AC5CF1092FF0A1092FE0A3ACE0E9428
:102D1000C20DDC0112960D911C910115110509F4EB
:102D2000E8CED801ED91FC910190F081E02DBE013B
:102D30006B5E7F4FC8010995811123CEF801008594
:102D40001185EBCF181619060CF41BCED2CEF1E08C
:102D5000FF12BECE60EB79E104CF0F920FB68F93D6
:102D60009F93EF93FF938091FB018D5F8D3708F068
:102D70008D578093FB01E0E0F2E080818E4F8083ED
:102D800091819F4F918382818F4F828383818F4F67
:102D90008383ECEFF1E080818F5F808381818F4FAF
:102DA000818382818F4F828383818F4F83838FB111
:102DB0008F6066991C9B88278F3681F48091FA0179
:102DC000981B963068F0E0E0F8E087E78083818325
:102DD00088E180936000F0936000FFCF9093FA0148
:102DE000FF91EF919F918F910FBE0F901895EF92E9
:102DF000FF920F931F93CF93DF93F82E192FE62E98
:102E0000042F81E0860F880F0E94570E83E00E94F6
:102E1000570ECF2DD12FEC0EFD2EF11CCE15DF0558
:102E2000B9F007FF13C0FE0184910E94570E182FBE
:102E300080E00E94570E812321968111EFCFDF9110
:102E4000CF911F910F91FF90EF9008958881EDCF62
:102E500081E0F5CF0F931F93CF93DF938C0181E037
:102E600090E00E940A1480FF31C08AE090E00E9446
:102E70000A149FEF980F9E3F48F522E330E0D801F7
:102E800050963C932E931F9728E330E052963C9344
:102E90002E935197CBE0D0E0D801ED91FC910190B9
:102EA000F081E02D682FC8010995CE010E940A1417
:102EB0002196C131D10581F70E94450D88EE93E03E
:102EC000DF91CF911F910F910C94170FDF91CF914C
:102ED0001F910F91089504970C942A17E5E8F6E0E6
:102EE0001382128288EE93E0A0E0B0E084839583A1
:102EF000A683B78381E291E0918380838FEF9FEF78
:102F000095878487E7EDF6E0138212821186128698
:102F100080E1838710861782158683E391E0918391
:102F2000808381E491E095838483108A1786128AD6
:102F3000118A81E0838B148A858B168A80E390E066
:102F40009093D6068093D5060895789483E084BD47
:102F500083E085BD81E080936E00E1E8F0E083E0EE
:102F60008083E0E881E08083E1E983E08083E0E939
:102F700081E08083E1EC87E08083E3EC81E0808383
:102F8000E0EC82E08083E2EC81E08083EAE787E0A6
:102F90008083806880831092840210927402109261
:102FA00076028091D70081608093D70080EA809379
:102FB000D80089B5806189BD89B5826089BD09B4B1
:102FC00000FEFDCF81E090E00E94170F8091D800B5
:102FD0008F7C80618093D8008091E000807F809317
:102FE000E0008091E1008E7E8093E1008DE080938F
:102FF000E200559A209A81EC80937C0081E785B9A4
:1030000087E684B985E38BB98FE38AB9769A6E989F
:1030100080EF81BB10BA80E58CBD81E08DBD85E07D
:103020000E946D11599A85E00E946D115C98EEE541
:10303000F5E185918EBD00000DB407FEFDCFE836A9
:10304000C1F75C9A81E88093640081E08093650019
:103050000E94290D0E94701187FF15C05C9885EAB7
:103060008EBD00000DB407FEFDCF5C9A2E985898D7
:103070002D988091640080628093640081E083BF1A
:10308000889513BEFCCF0E94701182FF45C02D9819
:103090000E94701184788438D9F40E946B1188ECF6
:1030A0000E946D11589882E090E00E94621D8F3F4F
:1030B00029F06FEF82E090E00E946A1D84EF91E0BA
:1030C0000E94170F589A0E94701184788438D9F39F
:1030D0000E94701184718431D9F40E946B1188ECC4
:1030E0000E946D112E9882E090E00E94621D88235C
:1030F00029F060E082E090E00E946A1D84EF91E098
:103100000E94170F2E9A0E94701184718431D9F396
:1031100088EC0E946D11B7CF0E946B1182E090E0A5
:103120000E940A14882309F444C03E9A579A81E009
:1031300090E00E940A14082F0470F02E81FF0CC04A
:1031400001112E98C1EFDFEF0E94701186FF34C08D
:103150002E9A589A0E946B1182E30E946D110E9470
:1031600070118111F9CF80E18093E2060E94450D34
:103170000E94160D14E0812E912CA12CB12C04E19B
:10318000202E312C909100028091E306F92FF81B3C
:103190008F2F2091E406222309F47BC0F093E506EB
:1031A0001092E40680E090E0892B61F30E94000019
:1031B000E9CF3E985798BBCFFF2029F0C430D10506
:1031C00011F42E9A589881E00E94290D1C2F177037
:1031D000B12E9E0183E0359527958A95E1F7C901C7
:1031E0009695982F8827979587958B579D4F50E0F8
:1031F00040E02E3F6FEF360751F1DC01AC56BF4F78
:103200008C0170E060E0FA01E255FB4E6F01F601BF
:10321000E60FF71FE491F0E04F010B2C02C0880C81
:10322000991C0A94E2F72F3F320721F0F801E48855
:10323000E828E48ABB2019F0EC91E929EC936F5F50
:103240007F4F11960F5F1F4F6835710501F72F5F94
:103250003F4F80589F4F485A5F4F403B510549F6BA
:103260000E94450D8FE00E946D112196C931D10554
:1032700009F06ACFFF2011F0589A2D9880E991E06B
:103280000E94170F0E946B1187ED96E00E942A178B
:1032900063CF2091E206F21748F48F5F821708F09F
:1032A00081CF81E083BF889513BE7CCF81E080937E
:1032B000E4069093E306EEEDF6E0808191810196BD
:1032C000808391838091E0068093E1060E947011D3
:1032D0008093E0060E94160DC0916D02D0916E029F
:1032E000C130D10509F482C02CF4CD2BA1F00E948D
:1032F000450D58CFC230D10509F433C32397B9F730
:103300001092E7061092E6061092E9061092E8067F
:103310008EEE91E030C31092E7061092E60610920E
:10332000E9061092E806E8E6F5E10491E9E6F5E140
:10333000E490D2E0CD2E30E020E04AE655E170E0A6
:1033400060E090E080E00E94AE0F0E94701180FF6C
:10335000CECF81E090E0909305018093040122E0BC
:1033600030E0309303012093020110920502109285
:103370000402909301018093000110920602809153
:1033800064008E7F8093640080917A0080648093D3
:103390007A0080917A0086FDFCCFC0917800D091B0
:1033A00079000E94640DAB01BC01CE01B0E0A0E049
:1033B000DC01992788278C019D01040F151F261F0A
:1033C000371FC901B8012091640021602093640077
:1033D000611571058105910511F00E94591D81E06B
:1033E00090E090936E0280936D0281CF1092E70679
:1033F0001092E6061092E9061092E8068CE991E038
:103400000E9451130E94160DD0930501C093040130
:10341000BAE0CB2EA3E0DA2ECEE0809104019091A9
:103420000501C3970CF09AC2F9E0EF2EF2E0FF2EEF
:1034300010E000E080910401909105018017910750
:103440000CF470C00E940A1DA50194010E94781D11
:10345000F701619371937F016115710521F50E9458
:103460000A1D23E030E040E050E00E94781D623009
:10347000B9F0609308020E948C120E94DE1380ED66
:1034800097E00E94170FC09308020E948C120E94BE
:10349000DE138CE291E00E94170F0F5F1F4FCACF1F
:1034A00010920802E8CF61307105A9F40E940A1D4C
:1034B00023E030E040E050E00E94781DDC01CB01C9
:1034C0000396A11DB11D853019F080930802D3CF5A
:1034D000D0920802D0CF6230710589F40E940A1D93
:1034E000A50194010E94781DDC01CB010696A11D67
:1034F000B11D893051F7F6E0F0930802BCCF63307C
:10350000710559F60E940A1DA50194010E94781DBB
:10351000DC01CB010A96A11DB11D8D30B1F6C09220
:103520000802A9CF73E0472E512C612C712CD1E0F9
:10353000EFE3EE2EF12C08E210E00E94160DD0937E
:10354000EC063092E7062092E6063092E9062092D9
:10355000E80681EA91E00E945113D093EC06309284
:10356000E7062092E6062EE130E03093E90620934C
:10357000E8068EEA91E00E945113F092E706E0928D
:10358000E6061093E9060093E806D093EC064AE0BD
:10359000C301B2010E94DE12D093EC060E94DE133A
:1035A00084EF91E00E94170F31E0431A510861083F
:1035B000710809F0C2CF0E94160D82E08093EC06DC
:1035C0001093E7060093E60689E190E09093E90600
:1035D0008093E80689EB91E00E9451130E94450D0B
:1035E00088EE93E00E94170F0E94160DD093EC0610
:1035F0000E94DE131092070210E000E0D1E04FE0DD
:10360000442E512C5DE2652E712C68E2E62EF12CE1
:103610008091E0068093E1060E9470118093E0069D
:103620000E9470110E94160D83E290E09093E706CD
:103630008093E6063092E9062092E806D093EC06E5
:103640008EEB91E00E945113D093EC065092E70666
:103650004092E606EEE1F0E0F093E906E093E8063A
:103660008AEC91E00E9451137092E7066092E606A0
:10367000F092E906E092E8068EE691E00E9451138E
:103680000E94450D88EE93E00E94170FD09306022A
:103690000E94531380E10E947C0D882381F10E94D7
:1036A0000A1D23E030E040E050E00E94781D6230C7
:1036B00009F4D6C0609308020E948C120E94DE13A7
:1036C00084EF91E00E94170FC09308020E948C12B1
:1036D000F801EE0FFF1FE75FFD4F80819181892B7D
:1036E00009F0CBC00F5F1F4F80910402909105023B
:1036F000019690930502809304020E94DE1380E8F5
:103700000E947C0D8823A9F10E940A1D23E030E06D
:1037100040E050E00E94781DDC01CB010396A11D22
:10372000B11D853009F49FC0809308020E948C125D
:103730000E94DE1384EF91E00E94170FC0930802ED
:103740000E948C12F801EE0FFF1FE75FFD4F808192
:103750009181019709F091C00F5F1F4F8091040282
:1037600090910502019690930502809304020E94B5
:10377000DE1380E40E947C0D882399F10E940A1DCB
:10378000A50194010E94781DDC01CB010696A11DC4
:10379000B11D893009F46AC0809308020E948C121E
:1037A0000E94DE1384EF91E00E94170FC09308027D
:1037B0000E948C12F801EE0FFF1FE75FFD4F808122
:1037C0009181029709F059C00F5F1F4F8091040249
:1037D00090910502019690930502809304020E9445
:1037E000DE1380E20E947C0D882389F10E940A1D6D
:1037F000A50194010E94781DDC01CB010A96A11D50
:10380000B11D8D30B9F1809308020E948C120E9484
:10381000DE1384EF91E00E94170FC09308020E940C
:103820008C12F801EE0FFF1FE75FFD4F8081918141
:10383000039719F50F5F1F4F8091040290910502C5
:10384000019690930502809304020E94DE138091FA
:10385000020190910301081719070CF4D9CE19C081
:103860001092080229CFD092080260CFF6E0F093C0
:10387000080294CFC0920802C8CF809100019091B5
:1038800001010197909301018093000181E08093F1
:10389000070280910702882391F181E0809306025C
:1038A0008091040190910501019790930501809307
:1038B000040180910201909103010197909303010B
:1038C00080930201809104019091050101969093EB
:1038D00005018093040180910201909103010196FA
:1038E0009093030180930201809100019091010166
:1038F000181619060CF491CD0E9453138BCD0E941B
:10390000160D82E08093EC0608E210E01093E706C3
:103910000093E6068FE090E09093E9068093E80636
:1039200089EB91E00E94511381E08093EC0689E1DC
:1039300090E09093E7068093E6061093E9060093E3
:10394000E8068DED91E00E9451130E94450D8CED2B
:1039500095E00E94170F0E94160DB4CF0E94450DEE
:10396000C6CC1092E7061092E6061092E906109275
:10397000E80689EE91E00E945113B9CC8F929F9294
:10398000AF92BF92CF92DF92EF92FF92CF93DF93ED
:10399000EC01688179818A819B81611571058105BE
:1039A000910521F464E279ED8BE597E02DE133EFA9
:1039B00041E050E00E94781D49015A019B01AC0191
:1039C000A7EAB1E40E94971D6B017C01ACEEB4EF55
:1039D000A50194010E94A51DC60ED71EE81EF91E62
:1039E000F7FE06C081E0C81AD108E10880E8F80AAD
:1039F000C882D982EA82FB82C701B6019F77DF9134
:103A0000CF91FF90EF90DF90CF90BF90AF909F90BD
:103A10008F9008958F929F92AF92BF92CF92DF9234
:103A2000EF92FF9260911201709113018091140145
:103A300090911501611571058105910521F464E2EC
:103A400079ED8BE597E02DE133EF41E050E00E9406
:103A5000781D49015A019B01AC01A7EAB1E40E941B
:103A6000971D6B017C01ACEEB4EFA50194010E949F
:103A7000A51DC60ED71EE81EF91EF7FE06C081E082
:103A8000C81AD108E10880E8F80AC0921201D09261
:103A90001301E0921401F0921501C701B6019F775E
:103AA000FF90EF90DF90CF90BF90AF909F908F905E
:103AB0000895609312017093130180931401909301
:103AC00015010895F999FECF92BD81BDF89A992705
:103AD00080B50895262FF999FECF1FBA92BD81BDFA
:103AE00020BD0FB6F894FA9AF99A0FBE0196089580
:103AF000052E97FB1EF400940E948F1D57FD07D0E2
:103B00000E94AA1D07FC03D04EF40C948F1D509503
:103B10004095309521953F4F4F4F5F4F08959095B9
:103B20008095709561957F4F8F4F9F4F08950E94AC
:103B3000CC1DA59F900DB49F900DA49F800D911D4D
:103B400011240895B7FF0C94971D0E94971D821BA6
:103B5000930B0895A1E21A2EAA1BBB1BFD010DC0F9
:103B6000AA1FBB1FEE1FFF1FA217B307E407F5072D
:103B700020F0A21BB30BE40BF50B661F771F881F09
:103B8000991F1A9469F760957095809590959B019F
:103B9000AC01BD01CF010895A29FB001B39FC00148
:103BA000A39F700D811D1124911DB29F700D811D69
:103BB0001124911D0895EE0FFF1F0590F491E02D43
:103BC0000994F894FFCF010001000100FFFFFFFFFF
:103BD00000E10000000000000100000000C1808141
:103BE00000000000000000D60D2B0FF70DEC0D3D7E
:103BF0000EFB0D190E000000007811EA0E891288E4
:103C0000122A17FCFF00006B170D0A00464F4F21C8
:103C10000050726573732041202B204220746F2066
:103C2000526573657400436F6F2100596F75206290
:103C3000656174207468652067616D650050726508
:103C4000737320412026204220746F2062656769CB
:103C50006E00526F756E643A200053636F72653A5E
:103C6000200047616D650051756167676F6E207355
:103C7000617973006765742052656164792100433E
:103C80004F4F2100706C6561736520776169740026
:103C900051756167676F6E732072657373657469C0
:103CA0006E6700476F64204A6F4F6F4F6F42004F3F
:0A3CB0007665720053636F726500C1
:1074000080E189BD82E189BD09B400FEFDCF089508
:10741000CAD569F08091E9008F931092E9009FD45A
:1074200083FF01C01ED58F9187708093E900089576
:107430008EEF0090E10008220092E1000895F20131
:10744000F999FECFF2BDE1BD0895F9DFF89A80B554
:1074500008C0F5DF1FBA80BD0FB6F894FA9AF99A02
:107460000FBE31962F010895E0E0F0E085919491F0
:10747000019608958AE28BB98BEA34D01092890084
:107480008AEF8093880082E080936F0083E080938E
:107490008100E7E5F7E785913AD0E336E1F781E04F
:1074A0008093D7008AE482BF1092D8001092E20045
:1074B0001092DA001092E10080E808D019BC1EBAE0
:1074C0001092E00062D489E053D481E98093D8001F
:1074D0000895A3E6B1E090E81AD08D939A95E1F76C
:1074E000089586E008D010C083E005D08F2F0FD01C
:1074F0008E2F0DD080E05B9A5A9809C005D085E0A8
:10750000FADF05D080FDFDCF5A9A5B9808958EBDB5
:107510008DB587FFFDCF8EB508958FE08221E9F705
:10752000F3DFE3E6F6E090EB5C98892FF0DF80E193
:10753000EEDF5C9A8191EBDF83E68E278F77D1F7C0
:107540009395983B89F70895E3E6F1E097FC36C000
:1075500094FC4DC092FE089596849920D1F3F8943E
:10756000C089D78520E030E080E090E4AFEFBFEF46
:10757000119689199040E0F72D01BD4F8D0127FD2F
:1075800013C0E0E0F8E011928EE7819392E4E117F6
:1075900091939AE508F092E4E334C9F7819310825D
:1075A000BFDFFE012196A0DF94DFF901FFD4205850
:1075B0003F4F040D151D9A9411F712C28301282D17
:1075C00060906C0170906B0143D019F48823C1F76F
:1075D0000895380188243CD0C9F580916A0182174A
:1075E00009F4830160906E0170906D01F4CF80E129
:1075F000982E60906E0170906D012AD059F4882306
:10760000B1F708959FEF95FC03C096FE089591E0B1
:1076100097FB890E662477248301222719D0B1F4C1
:107620008823A1F380916A0136F0881650F48217FE
:1076300030F0213003C0881520F4281710F483019E
:10764000282F60906E0170906D01E8CF3801822E76
:10765000F3014ADF3EDFC3E6D1E0E0E5F7E709905A
:107660008591081621F4E735D1F7088080104CCFBA
:10767000C9E031DFCA95E9F7D0E197FC55C094FC29
:1076800037C096FE1AC0C3E6D2E0E3E6F6E098E023
:1076900088E78E0F00840192E817E1F7884F099080
:1076A0000192E817E1F7C858DF4F9A9589F735DF5F
:1076B000C85FD340C33E49F749C0C3E6D6E0EBE517
:1076C000FAE098E08E2F885702900086E817E1F7DD
:1076D00038960A900292E817E1F73897C857D040D9
:1076E0009A9581F71ADFC850DC4FC33E41F72EC090
:1076F000A3EEB6E0E3E6F6E09AE0C6E00D90808106
:107700008025807F802582958193A336B90709F46F
:10771000B2E0E336F90709F4F2E0E336FC0771F76B
:10772000FCDEDA9529F712C0A3EEB9E0E3E6FAE051
:1077300092E00E90829180258F70802582958083C3
:10774000E336F907B1F7E9DEDA9571F7882708958E
:1077500041524455424F59D5F08D14A1C881CFD91B
:10776000F1AF020000FFFFCFCFFFFFFFFFCFCFFF42
:10777000FF0000FE067E7E06FE46565616FE0656A4
:10778000461EFE3F61E9E3FFE3EBE3FFE3EBE3FFCC
:10779000E16B3F0012011001020000084123360096
:1077A00001000000000109023E00020100803209D0
:1077B000040000010202010005240010010424025B
:1077C000040524060001070582030800FF090401DF
:1077D00000020A00000007050402100001070583EB
:0477E0000210000192
:1078000011241FBE04B714BE88E18093600010925B
:1078100060008EEF9AE09EBF8DBF222433242101A9
:107820003101410180E88AC00F928F939F931F928C
:107830000FB60F9211244F936F938091DA0080FF5F
:1078400037C023C00F920FB68F939F93EF93FF9390
:1078500088278093850080938400E0E5F1E09281A1
:10786000907261F490818917980B908309F45D9A66
:1078700091818917980B918309F4289A239411F424
:107880008315381EFF91EF9154C08091D80080FF7E
:107890000FC08091DA008E7F8093DA008091D9004A
:1078A00080FF04C0ADDD81E08EBB02C019BC1EBAF2
:1078B0008091E10080FF0BC055D280FF08C055D2F7
:1078C0008091D800806202DE19BC85E08EBB809179
:1078D000E10084FF1AC046D284FF17C091DD809179
:1078E000D8008F7DF3DD8FEEA4DD3CD28F7E8160EA
:1078F0003FD280915301882331F48091E30087FDCA
:1079000002C081E001C084E08EBB8091E10083FF72
:107910000CC028D283FF09C087EF8BDD82E08EBBCD
:107920001092530185DD21D230D26F914F910F908B
:107930001F909F918F910FBE0F90189580936100BB
:1079400010926100B1E0B5BF82E085BF81EF85B9DB
:1079500087EE84B91DB8769A10BA83EF81BB8CE2AA
:107960008BB98FE38AB980E58CBDBDBDA0E0E4E9A9
:10797000F7E705900D92A035E1F71D92BB30E9F7CE
:1079800001FD06C000FF04C07C9B02C06DDD41F517
:1079900071DD78945DDE71F0ABE9B7E0E3E6F7E71F
:1079A00090E105900D929A95E1F7A059BF4FE33908
:1079B000B9F7B7DD52D02CDD80915201807861F4A7
:1079C0008FB18095807F66991C9B8460982E1ADE0B
:1079D0008110BADD92FC02C0332062F745DD51F31D
:1079E000F89489EB7FDD81E08093E00010926F00D6
:1079F00010928100109285001092840081E085BF72
:107A000015BE2E9A589A2D9A5D9A289A0C940000C9
:107A1000A4D107C057D102C0C6D239F0A0D182FF8D
:107A2000FBCF85FFF7CF8091F1000895082E83E00A
:107A300095D185FD07C08AD102C0B5D269F08FD13A
:107A400080FFFBCF0092F10080915201807221F4FF
:107A50005D9884E68093500108957FD182FF34C100
:107A600080915201807221F4289884E6809351011C
:107A7000CFDF182F853431F422248EE7382EDFDC57
:107A80008DE00BC1843511F4C3DFFACF8C34C1F320
:107A90008035B1F3843721F484E4C8DF80E0FDC091
:107AA000813611F489E5F9C0813429F4B1DF582E0B
:107AB000AFDF482EE5CF803711F483E5EEC0833584
:107AC00039F4E0E5F7E78591B1DFE735E1F7E6C0A6
:107AD000863521F481E3AADF89E3DFC0863761F4CC
:107AE00081E3669B8E5F1C9B8F5FA0DF8FB18095CB
:107AF00082958F708F5BD1C08837A9F489DF80931E
:107B00005201289A84FD28985D9A83FD5D982E9AEB
:107B100081FD2E98589A82FD58982D9A80FD2D98B7
:107B200087FD8824ADCF8A3649F48FE9E4DCC3E0D1
:107B3000EEDC7CDFCA95E1F7E7DCB0C0833731F4D7
:107B400087E874DF85E972DF8EE1A7C0853639F4F6
:107B5000E0E8F3E73ED2E058F040E0F791CF82361C
:107B600031F489E563DF80E061DF80E896C082342C
:107B700019F0873609F07DC033244ADFD82F48DF5B
:107B8000C82F46DF082F8354843008F085C00634A0
:107B900011F4440C551CF20110926F001736B9F421
:107BA000033489F483E0A1DCB2DC8EB51EBC3EDF79
:107BB0000DB42197D1F7A8DC08C0063411F48591E3
:107BC00001C043DC33DF2197C2F72F014AC00334E1
:107BD000A9F4E11104C085DC88ED87DC8FDC81DC51
:107BE00082E083DC15DF0DB48EBDCA95D9F73196DE
:107BF0008FDC84DCDA9569F72F0131C00634F1F4AB
:107C00009F01F437D8F4E5D119C002DF063461F4DE
:107C1000C0FB46F0F43728F4182E81E087BFE895C2
:107C200011243296082E0AC0043439F4DF01B370EF
:107C3000AD59B94F8D93319601C00BDC21972AF7CE
:107C4000043431F42F01F370FE2B49F46ADC07C0D1
:107C5000063429F42F01F901F43708F4B8D18DE086
:107C6000E5DE063411F45694479482E080936F0069
:107C700015C08237E1E049F08634E0E031F08E341F
:107C8000E3E019F0813531F4E2E0F0E089E087BF0C
:107C9000849103C08B3111F08FE3C8DE83E0C5DB34
:107CA00055D095FF03C009C07ED171F058D080FF38
:107CB000FBCF4CD002C077D139F051D080FFFBCF41
:107CC00084E0B3DB8BE743C00895E4E5F1E067E0CF
:107CD00090915B0180915C01913231F0913AE1F534
:107CE0008132D1F55ED181C0823271F48191805BA5
:107CF0008191844089F580915D0180FD2DC0F894CB
:107D000081E08093E0007CCD803231F54AD14BD1C7
:107D1000E9F08530D9F023D083FD18C082FFF7CF7A
:107D200004C081DE8193615031F09091F300809125
:107D3000F200892BB1F7C6DF611549F704C033D1D2
:107D400029F0853019F00BD080FFF9CF8EE79091A4
:107D5000E80089238093E800089584E066DB809141
:107D6000E80008958091E2000895FCDF8E7F806135
:107D70008093E200089582E061EC09D083E061E83D
:107D800002D084E060E842E103C080E060E042E0CD
:107D90004CDB81E007D01092ED006093EC00409343
:107DA000ED0008959091EB00892B8093EB000895EE
:107DB00060E0923029F0913029F4E0E062E102C005
:107DC000E2E16EE3F1E0089580915B0188234CF4D9
:107DD00002C0E9D0C1F3C3DF82FFFBCF73CFE3D092
:107DE00091F3BDDF80FFFBCFB1CF40916101509196
:107DF00062014617510520F0462F611509F4A6DFF0
:107E000050E022C0D0D061F1853051F1A8DF83FD70
:107E100059CFA5DF82FD21C080FF16C03091F3004D
:107E20002091F20006C081918093F10041502F5FB4
:107E30003F4F411519F028303105A8F350E02830A4
:107E4000310509F451E082DF4115E1F65523D1F601
:107E500004C0A9D029F0853019F081DF82FFF9CF65
:107E600031CFEBE5F1E0DFDD8193E336E1F72DDFA4
:107E700076DF83FF91C080915B0190915C0191302E
:107E800009F170F09330F1F0953009F444C0963068
:107E900009F456C0983009F460C0993059F767C0AA
:107EA000823841F780915F01BFDA2091EB00109298
:107EB000E90077D02295269521702093F100109249
:107EC000F10052C0882311F08230A1F68F71823008
:107ED00089F680915D018823D1F420915F0127709C
:107EE00049F22093E9008091EB0080FF10C09330AD
:107EF00011F480E20BC080E155DF81E0880F2A9504
:107F0000E9F78093EA001092EA0088E04BDF1092D4
:107F1000E90047D02AC0882391F410915D011068D0
:107F20000FB7F8943ED050DF1ADF80FFFDCF1093DB
:107F3000E300103883E009F482E08EBB0FBF2CC051
:107F40008058823048F580915D0190915E0130DF6C
:107F5000603011F126D049DF1FC08038E9F421D00C
:107F6000809153018093F100F1DE2EDF15C088234C
:107F700099F490915D01923078F49093530111D06F
:107F800023DF80915301882321F48091E30091E065
:107F900087FD94E09EBBEFDEE2DE83FF089580E282
:107FA00001DF87EFD4CE8EB388230895A3E6B1E036
:107FB000F437B8F40ED090E40D901D9081E087BFA7
:107FC000E89532969A95C1F71124E058F04085E083
:107FD00001C083E001D081E187BFE89507B600FCCE
:047FE000FDCF089534
:067FFA003139D9CFFBDC98
:00000001FF
