:100000000C94EE0C0C94160D0C94160D0C94160D0D
:100010000C94160D0C94160D0C94160D0C94160DD4
:100020000C94160D0C94160D0C940F150C947E1553
:100030000C94160D0C94160D0C94160D0C94160DB4
:100040000C94160D0C94160D0C94160D0C94160DA4
:100050000C94160D0C94160D0C94160D0C94B017F0
:100060000C94160D0C94160D0C94160D0C94160D84
:100070000C94160D0C94160D0C94160D0C94160D74
:100080000C94FA170C94160D0C94160D0C94160D76
:100090000C94160D0C94160D0C94160D0C94160D54
:1000A0000C94160D0C94160D0C94160D20200000C7
:1000B0000000000000000000000000000000000040
:1000C000000000002020B4B4AAAAE4E49C9C808034
:1000D0008080000000000000000000000000000020
:1000E0000000000000000000000000000000000010
:1000F0000000000000000000C0C0B0B08C8C626244
:100100003A3AABABA1A12C2C262628282E2E212151
:100110002C2CA9A9ABAB3A3A62628C8CB0B0C0C0AF
:1001200000000000000000000000000000000000CF
:100130000000000000003030CFCF000000000404B9
:100140003838F9F9F9F9F8F8F8F8F8F8F8F8F8F8AB
:10015000F8F8F9F9F9F93838040400000000CFCFB5
:10016000303000000000000000000000000000002F
:10017000000000000000000000007777898981817D
:1001800083838F8F5F5F3F3F7F7FBFBFBFBF7F7F17
:100190003F3F5F5F8F8F83838181898977770000FD
:1001A000000000000000000000000000000000004F
:1001B000000000000000000000000000000000003F
:1001C00000000000404068685454C8C83838000037
:1001D000000000000000000000000000000000001F
:1001E000000000000000000000000000000000000F
:1001F0000000000000000000808060601818C4C487
:1002000074745656424259594D4D51515D5D4343A8
:100210005959525256567474C4C41818606080807C
:1002200000000000000000000000000000000000CE
:1002300000000000000060609F9F010101010808AC
:100240007070F3F3F3F3F0F0F0F0F0F0F0F0F0F0A2
:10025000F0F0F3F3FBFBE4E48484050505059F9FC0
:1002600060600000000000000000000000000000CE
:10027000000000000000000001016E6E9292828278
:1002800086869F9F3F3F7F7F7F7FFFFFFFFF7F7FB0
:100290007F7F3F3F9F9F8787808091916F6F010194
:1002A000000000000000000000000000000000004E
:1002B000000000000000000000000000000000003E
:1002C000000000002020B4B4A8A8E4E49C9C808036
:1002D000808000000000000000000000000000001E
:1002E000000000000000000000000000000000000E
:1002F0000000000000000000C0C0B0B08C8C626242
:100300003A3AABABA9A92C2C21212E2E282826263F
:100310002C2CA1A1ABAB3A3A62628C8CB0B0C0C0BD
:1003200000000000000000000000000000000000CD
:100330000000000000003030CFCF82828282424233
:10034000F2F2FDFDF9F9F8F8F8F8F8F8F8F8F8F82D
:10035000F8F8F9F9F9F93838040400000000CFCFB3
:10036000303000000000000000000000000000002D
:10037000000000000000000000007777888880807F
:1003800083838F8F5F5F3F3F7F7FBFBFBFBF7F7F15
:100390003F3F5F5F8F8F83838181898977770000FB
:1003A000000000000000000000000000000000004D
:1003B000000000000000000000000000000000003D
:1003C000000000000000808080808080D8D8A4A435
:1003D000AAAA343420200000000000000000000021
:1003E000000000000000000000000000000000000D
:1003F0000000000000000000C0C0B0B08C8CC2C281
:100400009A9A0B0B01014C4CA6A688882E2E81814E
:10041000CCCC09090B0BBABAA2A28C8CB0B0C0C06C
:1004200000000000000000000000000000000000CC
:10043000000000000000F0F00F0F000000000000BE
:100440000101030303030202020203030202020288
:1004500002020202030300000000000000000F0F70
:10046000F0F00000000000000000000000000000AC
:100470000000000000000101030372728E8E808074
:1004800080808080404060605858484850505050AC
:1004900060604040C0C0808080808888767601019E
:1004A000000000000000000000000000000000004C
:1004B000000000000000000000000000000000003C
:1004C0000000000020203434A8A8A4A4D8D880803C
:1004D000808080800000000000000000000000001C
:1004E000000000000000000000000000000000000C
:1004F00000000000000000000000C0C0B0B08C8C04
:10050000A2A2BABA0B0B0909CCCC81812E2E888805
:10051000A6A64C4C01010B0B9A9AC2C28C8CB0B0AF
:10052000C0C000000000000000000000000000004B
:100530000000000000000000F0F00F0F00000000BD
:10054000000000000303020202020202020203038F
:100550000202020203030303010100000000000085
:100560000F0FF0F00000000000000000000000008D
:10057000000000000000000000000101767688887D
:1005800080808080C0C040406060505050504848DB
:100590005858606040408080808080808E8E72726B
:1005A0000303010100000000000000000000000043
:1005B000000000000000000000000000000000003B
:1005C000000000000000808080808080D8D8A4A433
:1005D000AAAA34342020000000000000000000001F
:1005E000000000000000000000000000000000000B
:1005F0000000000000000000C0C0B0B08C8CC2C27F
:100600009A9A0B0B01014C4CA6A688882E2E81814C
:10061000CCCC09090B0BBABAA2A28C8CB0B0C0C06A
:1006200000000000000000000000000000000000CA
:10063000000000000000F0F00F0F000000000000BC
:100640000101030303030202020203030202020286
:1006500002020202030300000000000000000F0F6E
:10066000F0F00000000000000000000000000000AA
:100670000000000000000101030372728E8E808072
:1006800080808080404060605858484850505050AA
:1006900060604040C0C0808080808888767601019C
:1006A000000000000000000000000000000000004A
:1006B00000000000000000000000000008080C0C12
:1006C0001C1C1C1C3636B2B2ACACF8F8B0B0808042
:1006D000808000000000000000000000000000001A
:1006E000000000000000000000000000000000000A
:1006F0000000000000000000C0C0B8B88C8C42426E
:100700006B6B2929ADADA4A420202C2C2E2E2020EB
:100710002C2CA9A9ABAB3A3A62628C8CB0B0C0C0A9
:1007200000000000000000000000000000000000C9
:100730000000000000000000FFFF00000000C0C03B
:1007400000000404090919193838F8F8F8F8F8F81D
:10075000F8F8F9F9F9F93838040400000000CFCFAF
:100760003030000000000000000000000000000029
:1007700000003030707058584F4F4040202060606B
:100780008181828286868E8E5F5F3F3F3F3F3F3F03
:100790003F3F5F5F8F8F83838080888877770000FB
:1007A0000000000000000000000000000000000049
:1007B00000000000000000000000000008080C0C11
:1007C0001C1C1C1C3636B2B2ACACF8F8B0B0808041
:1007D0008080000000000000000000000000000019
:1007E0000000000000000000000000000000000009
:1007F0000000000000000000C0C0B8B88C8C42426D
:100800006B6B2929ADADA4A420202C2C2E2E2020EA
:100810002C2CA9A9ABAB3A3A62628C8CB0B0C0C0A8
:1008200000000000000000000000000000000000C8
:100830000000000000000000FFFF00000000C0C03A
:1008400000000404090919193838F8F8F8F8F8F81C
:10085000F8F8F9F9F9F9F8F88484000008080F0F9E
:1008600010102020C0C000000000000000000000A8
:1008700000003030707058584F4F4040202060606A
:100880008181828286868E8E5F5F3F3F3F3F3F3F02
:100890003F3F5F5F8F8F838380808F8F71710202F4
:1008A000020202020101000000000000000000003E
:1008B00000000000000000000000000010101818E8
:1008C000383838386C6C64645858F0F06060000058
:1008D0000000000000000000000000000000000018
:1008E0000000000000000000000000000000000008
:1008F00000000000000000008080707018188484E0
:10090000D6D652525A5A4949414159595D5D4141E1
:100910005959525256567474C4C418186060808075
:1009200000000000000000000000000000000000C7
:100930000000000000000000FFFF010101018080B5
:1009400000000808131333337070F0F0F0F0F0F08B
:10095000F0F0F3F3F3F3F0F00808010109090707D9
:100960008484424222221C1C00000000000000007F
:1009700018186868909090909F9F40404040C1C177
:10098000828284848C8C9C9CBEBE7F7F7F7F7F7F95
:100990007F7FBFBF9F9F878780809292EEEE01018D
:1009A0000000000000000000000000000000000047
:1009B00000000000000000000000000008080C0C0F
:1009C0001C1C1C1C3636B2B2ACACF8F8B0B080803F
:1009D0008080000000000000000000000000000017
:1009E0000000000000000000000000000000000007
:1009F0000000000000000000C0C0B8B88C8C42426B
:100A00006B6B2929ADADA4A4A0A02C2C2E2E2020E8
:100A10002C2CA9A9ABAB3A3A62628C8CB0B0C0C0A6
:100A200000000000000000000000000000000000C6
:100A30000000000000000000FFFF00000000C0C038
:100A40008080C1C1E1E1E0E0F0F0FFFFF8F8F8F8E4
:100A5000F8F8F9F9F9F9F8F88484000008080F0F9C
:100A600010102020C0C000000000000000000000A6
:100A700000003030707058584F4F40402020606068
:100A80008181838387878F8F5F5F3F3F3F3F3F3FFA
:100A90003F3F5F5F8F8F838380808F8F71710202F2
:100AA000020202020101000000000000000000003C
:100AB0000000000000000000000000000000000036
:100AC000000000000000000080808080B0B0F8F8D6
:100AD000ACACB2B236361C1C1C1C0C0C0808000056
:100AE0000000000000000000000000000000000006
:100AF00000000000000000000000C0C0B0B08C8CFE
:100B000062623A3AABABA9A92C2C20202E2E2C2CB9
:100B10002020A4A4ADAD29296B6B42428C8CB8B8BF
:100B2000C0C0000000000000000000000000000045
:100B300000000000000000003030CFCF00000000B7
:100B400004043838F9F9F9F9F8F8F8F8F8F8F8F889
:100B500038381919090904040000C0C00000000059
:100B6000FFFF000000000000000000000000000087
:100B70000000000000000000000000007777888877
:100B8000808083838F8F5F5F3F3F3F3F3F3F3F3F8B
:100B90005F5F8E8E868682828181606020204040E9
:100BA0004F4F5858707030300000000000000000B7
:100BB0000000000000000000000000000000000035
:100BC000000000000000000080808080B0B0F8F8D5
:100BD000ACACB2B236361C1C1C1C0C0C0808000055
:100BE0000000000000000000000000000000000005
:100BF00000000000000000000000C0C0B0B08C8CFD
:100C000062623A3AABABA9A92C2C20202E2E2C2CB8
:100C10002020A4A4ADAD29296B6B42428C8CB8B8BE
:100C2000C0C0000000000000000000000000000044
:100C300000000000C0C0202010100F0F08080000A6
:100C40008484F8F8F9F9F9F9F8F8F8F8F8F8F8F808
:100C500038381919090904040000C0C00000000058
:100C6000FFFF000000000000000000000000000086
:100C700000000000010102020202020271718F8F66
:100C8000808083838F8F5F5F3F3F3F3F3F3F3F3F8A
:100C90005F5F8E8E868682828181606020204040E8
:100CA0004F4F5858707030300000000000000000B6
:100CB0000000000000000000000000000000000034
:100CC0000000000000000000000000006060F0F084
:100CD000585864646C6C3838383818181010000094
:100CE0000000000000000000000000000000000004
:100CF0000000000000000000000080806060181804
:100D0000C4C4747456565252595941415D5D595983
:100D1000414149495A5A5252D6D6848418187070A3
:100D200080800000000000000000000000000000C3
:100D300000001C1C22224242848407070909010189
:100D40000808F0F0F3F3F3F3F0F0F0F0F0F0F0F067
:100D50007070333313130808000080800101010113
:100D6000FFFF000000000000000000000000000085
:100D7000000000000000000000000101EEEE929271
:100D8000808087879F9FBFBF7F7F7F7F7F7F7F7FA1
:100D9000BEBE9C9C8C8C84848282C1C140404040F9
:100DA0009F9F9090909068681818000000000000C5
:100DB0000000000000000000000000000000000033
:100DC000000000000000000080808080B0B0F8F8D3
:100DD000ACACB0B036361E1E1C1C0C0C0808000053
:100DE0000000000000000000000000000000000003
:100DF00000000000000000000000C0C0B0B08C8CFB
:100E000062623A3AABABA9A92C2C20202E2E2C2CB6
:100E1000A0A0A4A4ADAD29296B6B42428C8CB8B8BC
:100E2000C0C0000000000000000000000000000042
:100E300000000000C0C0202010100F0F08080000A4
:100E40008484F8F8F9F9F9F9F8F8F8F8F8F8FFFFF8
:100E5000F0F0E0E0E1E1C1C18080C0C0000000002E
:100E6000FFFF000000000000000000000000000084
:100E700000000000010102020202020271718F8F64
:100E8000808083838F8F5F5F3F3F3F3F3F3F3F3F88
:100E90005F5F8F8F878783838181606020204040E0
:100EA0004F4F58587070303000000000000000FFB5
:100EB00000FF00FF00FF00FF00FF00FF00FF00FF3A
:100EC00000FF00FF00FF00FF00FF00FF00FF00FF2A
:100ED00000FF00FF00FF00FF00FF00FF00FF00FF1A
:100EE00000FF00FF00FF00FF00FF00FF00FF00FF0A
:100EF00000FF00FF00FF00FF00FF00FF00FF00FFFA
:100F000000FF00FF00FF00FF00FF00FF00FF00FFE9
:100F100000FF00FF00FF00FF00FF00FF00FF00FFD9
:100F200000FF00FF00FF00FF00FF00FF00FF00FFC9
:100F300000FF00FF00FF00FF00FF00FF00FF00FFB9
:100F400000FF00FF00FF00FF00FF00FF00FF00FFA9
:100F500000FF00FF00FF00FF00FF00FF00FF00FF99
:100F600000FF00FF00FF00FF00FF00FF00FF00FF89
:100F700000FF00FF00FF00FF00FF00FF00FF00FF79
:100F800000FF00FF00FF00FF00FF00FF00FF00FF69
:100F900000FF00FF00FF00FF00FF00FF00FF00FF59
:100FA00000FF00FF00FF00FF00FF00FF00FF000048
:100FB0000000003E5B4F5B3E3E6B4F6B3E1C3E7C39
:100FC0003E1C183C7E3C181C577D571C1C5E7F5EE7
:100FD0001C00183C1800FFE7C3E7FF0018241800A6
:100FE000FFE7DBE7FF30483A060E2629792926403D
:100FF0007F050507407F05253F5A3CE73C5A7F3E69
:101000001C1C08081C1C3E7F14227F22145F5F00FA
:101010005F5F06097F017F006689956A6060606096
:101020006094A2FFA29408047E040810207E201081
:1010300008082A1C08081C2A08081E101010100C8A
:101040001E0C1E0C30383E3830060E3E0E060000D8
:1010500000000000005F00000007000700147F147C
:101060007F14242A7F2A12231308646236495620EB
:10107000500008070300001C2241000041221C0010
:101080002A1C7F1C2A08083E0808008070300008CF
:1010900008080808000060600020100804023E51A3
:1010A00049453E00427F4000724949494621414935
:1010B0004D331814127F1027454545393C4A49499C
:1010C0003141211109073649494936464949291E06
:1010D00000001400000040340000000814224114F5
:1010E00014141414004122140802015909063E4147
:1010F0005D594E7C1211127C7F494949363E41416F
:1011000041227F4141413E7F494949417F090909C7
:10111000013E414151737F0808087F00417F410033
:101120002040413F017F081422417F404040407FE2
:10113000021C027F7F0408107F3E4141413E7F092F
:101140000909063E4151215E7F0919294626494970
:10115000493203017F01033F4040403F1F204020B0
:101160001F3F4038403F63140814630304780403AE
:101170006159494D43007F4141410204081020005C
:101180004141417F040201020440404040400003CD
:1011900007080020545478407F2844443838444499
:1011A0004428384444287F385454541800087E0991
:1011B0000218A4A49C787F0804047800447D4000B1
:1011C0002040403D007F1028440000417F40007CCB
:1011D000047804787C080404783844444438FC18C3
:1011E00024241818242418FC7C08040408485454A7
:1011F000542404043F44243C4040207C1C204020D4
:101200001C3C4030403C44281028444C9090907C3A
:101210004464544C4400083641000000770000004C
:101220004136080002010204023C2623263C1EA18E
:10123000A161123A4040207A3854545559215555ED
:10124000794121545478412155547840205455799E
:10125000400C1E527212395555555939545454592F
:1012600039555454580000457C410002457D4200E8
:1012700001457C40F0292429F0F0282528F07C54F1
:101280005545002054547C547C0A097F4932494911
:1012900049323248484832324A4848303A4141217E
:1012A0007A3A42402078009DA0A07D3944444439D8
:1012B0003D4040403D3C24FF2424487E4943662B6A
:1012C0002FFC2F2BFF0929F620C0887E090320540C
:1012D0005479410000447D413048484A323840400A
:1012E000227A007A0A0A727D0D19317D2629292F6A
:1012F00028262929292630484D4020380808080882
:1013000008080808382F10C8ACBA2F102834FA0083
:10131000007B000008142A142222142A14089500C5
:10132000220095AA005500AAAA55AA55AA000000B5
:10133000FF00101010FF00141414FF001010FF0025
:10134000FF1010F010F0141414FC001414F700FF38
:101350000000FF00FF1414F404FC141417101F10F5
:10136000101F101F1414141F00101010F0000000A4
:10137000001F101010101F10101010F010000000AF
:10138000FF101010101010101010FF10000000FFC0
:10139000140000FF00FF00001F10170000FC04F401
:1013A00014141710171414F404F40000FF00F714B9
:1013B000141414141414F700F71414141714101040
:1013C0001F101F141414F4141010F010F000001F5C
:1013D000101F0000001F14000000FC140000F0109B
:1013E000F01010FF10FF141414FF141010101F0041
:1013F000000000F010FFFFFFFFFFF0F0F0F0F0FF43
:10140000FFFF0000000000FFFF0F0F0F0F0F384419
:101410004438447C2A2A3E147E02020606027E02DA
:101420007E0263554941633844443C04407E201E9B
:101430002006027E020299A5E7A5991C2A492A1CCA
:101440004C7201724C304A4D4D303048784830BCB7
:10145000625A463D3E494949007E0101017E2A2AE1
:101460002A2A2A44445F444440514A444040444A62
:1014700051400000FF0103E080FF000008086B6B93
:10148000083612362436060F090F06000018180019
:1014900000001010003040FF0101001F01011E007C
:1014A000191D1712003C3C3C3C0000000000F0F805
:1014B0009C8E8783878E9CF8F00000FEFF03030359
:1014C0000303070EFCF80000FEFF030303030307FA
:1014D0000EFCF80000FFFF00000000000000FFFF0E
:1014E0000000FEFF8383838383C7EE7C380000F80F
:1014F000FC0E07030303070EFCF800003F7FE0C06B
:101500008080C0E07F3FFFFF01010101010101FF79
:10151000FF0000FFFF0C0C0C0C1C3E77E3C1000029
:101520007FFFC0C0C0C0C0E0703F1F00001F3F7001
:10153000E0C0C0C0E0703F1F00007FFFC1C1C1C15B
:10154000C1E3773E1C00001F3F70E0C0C0C0E070E8
:101550003F1F000000000001FFFF01000000D5F068
:101560008D14A1C881CFD9F1AF20008040000000C8
:101570000000000000000000000000C0C0F0F0F01B
:10158000F0F0F03C3C0C0CF0F0C0C000000000009B
:101590000000000000000000E0E0181818181818FB
:1015A000E0E00000F8F8000000000000F8F800009B
:1015B000E0E0181818181818E0E00000E0E018182B
:1015C0001818181860600000E0E0181818181818AB
:1015D00060600000E0E0181818181818E0E000003B
:1015E000F8F8808000000000F8F80000000000001B
:1015F00000000000000000000000000000000003E8
:101600000303030F0FCFCFCCCCFFFFCFCFC0C0C0A1
:10161000C0000000000000007F7F8080989860601C
:101620009F9F00007F7F8080808080807F7F000080
:10163000FFFF060606060606FFFF00007F7F80808C
:1016400080809898787800007F7F8080808098984C
:10165000787800007F7F8080808080807F7F00009E
:10166000FFFF010106061818FFFF00000000000040
:10167000000000000000000000C0C0F0F00C0CCF23
:10168000CFC3C3F3F330300000F0F0FCFC0000F0F7
:10169000F0C3C3CFCFCCCC0C0CF0F10101010000A2
:1016A0000101000000000101010101010000000032
:1016B0000101000000000030494948880000A1A154
:1016C000C10101C10000C00040A0A1210101010130
:1016D0000000000000000101010101010000000004
:1016E00001010000000000000101000000000000F6
:1016F00000000000000000F0F0CFCFC0C030303C50
:101700003C0C0CCCCCCCCC0C0C0C0C0C0C0C0C0CE9
:101710000CCCCCCCCC0F0F3C3CC0C0CFCFF0F000F9
:1017200000000000000000000000000000000000B9
:10173000000000000000000202020201000102029B
:101740000102000912120D00020202010000000055
:101750000000000000000000000000000000000089
:101760000000000000000000000000000000000079
:1017700000000000000000FFFF000000000000006B
:10178000003030C3C3C3C3C0C0C0C0C0C0C0C0C02D
:10179000C0C3C3C3C3C0C0303000000000FFFF009F
:1017A00000000000000000000000000000C04040F9
:1017B000C000000000000000000000000000000069
:1017C00000000000804020A02040800000000000B9
:1017D000000000008040A0A0204080000000000029
:1017E00000000000000000000000000000000000F9
:1017F00000000000000000FFFF00000000F0F0000B
:10180000000000000003030F0FFFFFFFFFFFFFFFBB
:10181000FFFFFFFFFF0F0F000000000000F0F00FC0
:101820000F0000000000000000000000001F020286
:1018300001001F0201000E15160012150D001215F1
:101840000D0000003F40BF84BF403F000000020782
:10185000020000003F40BFA49B403F00000000008A
:101860000000000000000000000000000000000078
:101870000000000000C0C0FFFF00000000000003E7
:10188000030C0C3C3CFCFCFFFFFFFFFFFFFFFFFFD6
:10189000FFFFFFFFFF0F0F0000C0C03F3F00000031
:1018A000000000000000000000000000000404FC34
:1018B00004E410E0000000000000F8040404040048
:1018C000E010E000E010E00010F01000D000E010A8
:1018D000E000F000F000E0506000000000000000B8
:1018E00000000000000000000000000000000000F8
:1018F000000F0F3F3F3333303030300C0C3C3CC0D6
:10190000C0C0C0C0C0C0C033330F0F0F0F0F0F0FC8
:101910000F3333C0C0C0C0C0C0C0C03F3F000000D4
:1019200000000000000000000000000000000001B6
:1019300000000100000000000000000101010100A2
:101940000001000001000100000100000100010091
:101950000100000100000001010000000000000083
:1019600000000000000000000000000000080B0064
:101970000202020000090400000102020000052426
:1019800000100105240101010424020605240600BB
:10199000010705810310004009040100020A00004C
:1019A0000007050202400000070583024000000412
:1019B00003090412010002EF0201404123368000B6
:1019C000010102030141726475696E6F204C4C4342
:1019D0000041726475626F790000D21811241FBE35
:1019E000CFEFDAE0DEBFCDBF11E0A0E0B1E0EEE185
:1019F000FFE302C005900D92A43FB107D9F727E09D
:101A0000A4EFB1E001C01D92A531B207E1F71CE0DF
:101A1000CEEEDCE004C02197FE010E94871FCD3E80
:101A2000D107C9F70E942C190C948D1F0C9400004B
:101A300080910D02089590E0E4E9F2E091119FEFAA
:101A40008FEF91939193919391938150D0F7EEEF13
:101A5000F6E0128A118A108A17860895E4E9F2E006
:101A6000A0E0B8E000800EBC8111012C1197A0FD10
:101A7000FDCF0192B9F70DB4089580E00C942E0DBE
:101A800068EE73E080E090E0AB01FC010E945C0D29
:101A900041505109E109F10928F068517C4F8F4FFD
:101AA0009F4FF6CFAB01FC010E945C0D64177507D8
:101AB0008E079F07C8F30895A9E0B2E02FB7F89406
:101AC0007D918D919C9166B52FBFA89B05C06F3FFE
:101AD00018F47F5F8F4F9F4F22E0660F771F881F9C
:101AE000991F2A95D1F7089590910807982329F016
:101AF00090910707982381E009F080E00895FC01A8
:101B000080918E02882311F13FB7F89482E0809390
:101B1000E9002091F200822F90E01816190614F4C3
:101B200081E090E0882339F0289844E640938D02C4
:101B30004091F1004083222339F02091F2002111DD
:101B400003C02BE62093E8003FBF08958FEF9FEF7F
:101B500008952FB7F89483E08093E9009091E8000E
:101B6000892F807295FF04C09091F20080E4891B58
:101B70002FBF08958091850281110DC082E080936E
:101B8000810284E080938202109284021092830288
:101B900081E08093850281E892E00895CF93DF93FE
:101BA0001F92CDB7DEB76983DC01ED91FC91028015
:101BB000F381E02D41E050E0BE016F5F7F4F09955A
:101BC0000F90DF91CF91089583E08093E900809199
:101BD000F200882319F08AE38093E80008950E94B8
:101BE000A90D90E00895CF93DF931F92CDB7DEB794
:101BF000FC018485958597FD08C02FEF3FEF358761
:101C000024870F90DF91CF910895CE0101960E9415
:101C10007F0D019719F4898190E0F3CF8FEF9FEF4B
:101C2000F0CF0F931F93CF93DF931F92CDB7DEB703
:101C30008C01FC018485958597FF0BC0CE01019630
:101C40000E947F0D019771F4898190E0F8019587DA
:101C50008487F801848595850F90DF91CF911F913E
:101C60000F9108958FEF9FEFF1CFFC01848595854B
:101C700097FD0BC09FB7F89482E08093E9008091B4
:101C8000F2009FBF90E0019608959FB7F89482E01C
:101C90008093E9008091F2009FBF90E00895409109
:101CA0007B0250917C022091790230917A02421796
:101CB0005307B4F49091E8009570E1F39091E80037
:101CC00092FD19C08093F10080917B0290917C027B
:101CD00001968F739927892B19F48EEF8093E80072
:101CE00080917B0290917C02019690937C0280937C
:101CF0007B0281E0089580E00895DF92EF92FF92E9
:101D00000F931F93CF93DF93D82E8A01EB017B01B2
:101D1000E40EF51ECE15DF0559F0D7FE12C0FE0108
:101D200084910E944F0E21968111F4CF0FEF1FEF87
:101D3000C801DF91CF911F910F91FF90EF90DF903D
:101D400008958881EECF0F931F93CF93DF931F9257
:101D5000CDB7DEB782E0898342E450E06DE679E1F9
:101D600080E80E947D0E0E94BA0DDC0112960D9152
:101D70001C910115110589F0D801ED91FC910280AB
:101D8000F381E02DBE016F5F7F4FC801099597FD7C
:101D900004C0F80100851185ECCF89810F90DF9197
:101DA000CF911F910F910895615030F02091F10073
:101DB000FC0120830196F8CF289884E680938D0259
:101DC00008950895AF92BF92CF92DF92EF92FF9263
:101DD0000F931F93CF93DF936C017B018B01040F53
:101DE000151FEB015E01AE18BF08C017D10759F0EF
:101DF0006991D601ED91FC910190F081E02DC60131
:101E00000995892B79F7C501DF91CF911F910F912A
:101E1000FF90EF90DF90CF90BF90AF900895FC01BE
:101E20000E945C0D319728F068517C4F8F4F9F4F77
:101E3000F9CFAB01FC010E945C0D641775078E079A
:101E40009F07C8F308958F929F92AF92BF92CF924F
:101E5000DF92EF92FF920F931F93CF93DF936C016A
:101E60007B018A0180911101882309F45AC0809175
:101E70008E02882309F455C08091800280FF05C03E
:101E80008091E00082608093E000E801B12C8AEF4D
:101E9000A82E93E0892E2AE3922E209711F4BB20DE
:101EA000C9F10E94A90D811108C0AA94AA20C9F104
:101EB00081E090E00E940F0FF0CF8C171D0611F00B
:101EC0000CF08C2F9FB7F8948092E9002091E800E5
:101ED00025FD02C09FBFE1CF282F30E0C21BD30BEE
:101EE000F701815020F041914093F100FACFE20ECA
:101EF000F31EBB2021F09092E800B12CEBCF809133
:101F0000E80085FDE7CF9092E800BB24B3942097CA
:101F100009F3F3CF5D9884E680937F0210161106D3
:101F20003CF081E090E0F6019383828310E000E0D2
:101F3000C801DF91CF911F910F91FF90EF90DF903B
:101F4000CF90BF90AF909F908F9008952091930273
:101F5000E0919102F0919202CF0102969093920249
:101F600080939102222319F08591949108958081A4
:101F700091810895CF92DF92EF92FF92CF93DF93FA
:101F80000E94A60F811520E8920791F480917100BC
:101F90008D7F80937100109291004698479810921F
:101FA0000002DF91CF91FF90EF90DF90CF900895E6
:101FB00021E020930002813020E8920751F48091C3
:101FC0008F029091900290939202809391020E94CE
:101FD000A60F97FD05C02091FF01222309F454C0EC
:101FE0002091FE01211150C021E020930102EC015B
:101FF000DF77209709F04BC081E08093020246987A
:102000003FE9C32E3FE0D32EE12CF12CCAEFD0E004
:10201000E091F606F091F7060995811103C081E081
:102020008093020280910102882329F080910202AC
:10203000882309F43FC047980E94A60F0097F1F14A
:102040009C01DE010E94781FDC01CB0129E0B595DF
:10205000A795979587952A95D1F7109290002AE039
:1020600020939100D0929900C0929800809303022F
:1020700090930402A0930502B09306028091710030
:102080008260809371008DCF10920102B0CF9E01CB
:1020900050E040E060E472E48FE090E00E94241F92
:1020A00069017A0181E0C81AD108E108F1081092AB
:1020B0000202AECF4699BFCF479ABECF8FEF9FEFB8
:1020C000DC01CBCF9C01E1E7F0E090819D7F908324
:1020D00010929302E8EEF6E0F0939202E093910200
:1020E000F0939002E0938F02318320838BE490E0A1
:1020F0009383828380E090E8958384830C94BA0F65
:102100004F925F926F927F928F929F92AF92BF9207
:10211000CF92DF92EF92FF920F931F93CF93DF93B3
:102120004C01FC2DC02FD0E0DE01A80FB91F1A16FC
:102130001B060CF050C080E8881691040CF04BC0D0
:10214000CB018E0D911D892B09F445C04115510518
:1021500009F441C0962F977013E0759567951A950D
:10216000E1F7162FAA24BB24A818B90897FC02C0CF
:10217000B12CA12CA038B10514F000E808190A19F7
:10218000E1E08E2D877009F4E0E0E694E694E694B1
:10219000EE0EDB01AE0DB11D19971CF0E8E0EE2E3E
:1021A000E61ADB01B695BA2FAA27B795A795A80D11
:1021B000B91DAA0DBB1D4A0D5B1D892E092E000CF1
:1021C0009908F33009F40DC1B8F4F13009F4C3C033
:1021D000F23009F447C0DF91CF911F910F91FF902A
:1021E000EF90DF90CF90BF90AF909F908F907F90B7
:1021F0006F905F904F900895FA3F09F479C0FB3FCC
:1022000051F7812F861B8E1530F79D012C563D4FBF
:10221000D12CC12CC01608F098C0FA01EC0DFD1DA0
:10222000A490B12C082C02C0AA0CBB1C0A94E2F7A3
:1022300017FD07C0F9018081EA2DE0958E23F90191
:102240008083992349F017303CF4F901E058FF4F9F
:10225000B09480818B218083FFEFCF1ADF0A2F5F3C
:102260003F4FD8CF66246A94712C092E02C0660CA9
:10227000771C0A94E2F760947094572C812F861B88
:102280008E1508F0A8CF9D012C563D4FD12CC12CA6
:10229000C01618F5FA01EC0DFD1DA490B12C082C08
:1022A00002C0AA0CBB1C0A94E2F717FD05C0F90195
:1022B000808186218A298083992349F017303CF454
:1022C000F901E058FF4F808185218B298083FFEF42
:1022D000CF1ADF0A2F5F3F4FDBCF4C0F5D1FA05897
:1022E000BF4F1F5FCBCF4C0F5D1FA058BF4F1F5F6D
:1022F000812F861B8E1508F06ECF9D012C563D4F09
:10230000D12CC12CC01678F7FA01EC0DFD1DA4905C
:10231000B12C082C02C0AA0CBB1C0A94E2F717FDD2
:1023200004C0F90180818A298083992341F0173004
:1023300034F4F901E058FF4F80818B298083FFEF4F
:10234000CF1ADF0A2F5F3F4FDDCF4C0F5D1FA05824
:10235000BF4F1F5F56CFA20EB31E812F861B8E1557
:1023600008F039CF9D012C563D4FD12CC12CC01601
:1023700080F5F501EC0DFD1D6490712C082C02C058
:10238000660C771C0A94E2F760947094FA01EC0DE5
:10239000FD1D4490512C082C02C0440C551C0A947D
:1023A000E2F717FD05C0F901808186218429808329
:1023B000992349F017303CF4F901E058FF4F808130
:1023C000872185298083FFEFCF1ADF0A2F5F3F4FD8
:1023D000CECF4C0F5D1FAC0EBD1EA058BF4F1F5F70
:1023E000BCCFC02ED12CA40EB51EAC56BD4F20E8DC
:1023F00030E02C193D09CC19DD09AE01440F551F01
:10240000C1E0D0E06E01092E01C0CC0C0A94EAF7BD
:102410007E2DE02EF501F92ECF93DF93ED01EF969F
:10242000EF96229665908590FF2059F06C9C3001C4
:102430008C9C400167302CF4A8809094A920A72898
:10244000A99266233AF0AC908094A820A628AD9279
:102450000C942B1211960A9529F77A9551F00E2DAE
:1024600063951124E40FF11DA20FB11DC20FD11D00
:10247000D9CFDF91CF911124AECE2D9A089590E05F
:102480000C940F0F8FB18095807F669B88601C9B9A
:10249000846008952F923F924F925F926F927F9245
:1024A0008F929F92AF92BF92CF92DF92EF92FF9264
:1024B0000F931F93CF93DF93CDB7DEB72B970FB654
:1024C000F894DEBF0FBECDBF9C838B836A3061F56D
:1024D000DC0155968C91B8E08B9F90011124EB8123
:1024E000FC8181899289820F931F928B818B108A44
:1024F000178681E090E02B960FB6F894DEBF0FBEF2
:10250000CDBFDF91CF911F910F91FF90EF90DF90A2
:10251000CF90BF90AF909F908F907F906F905F9083
:102520004F903F902F9008956D3019F3AB81BC818F
:1025300055969C90559754965C9054975D8253960F
:102540004C9053975196ED90FC9052971F968D9119
:102550009C91092D10E0803891050CF084C020E496
:10256000E216F1040CF07FC0E5E09C019E9E200D78
:10257000311D1124121613060CF075C09801F3E0FA
:10258000220F331FFA95E1F72E0D3F1D1216130689
:102590000CF069C06E9FF0011124BF016255704FAD
:1025A0007F836E83AC01712CEE81FF812491F5E075
:1025B0007F1201C020E0670178E0672E222E312CC7
:1025C000842C20FF8D80811004C05D80541409F498
:1025D00037C09A012983622F641B691508F030C047
:1025E0001B861A866A85691540F520383105F0F496
:1025F000AA84BB84AC0CBD1C70E4A716B104B0F473
:10260000F50170E1598061E0E1FD64E0E0FD660FF5
:10261000E2FD6295E87F7E9FD0011124A50DAC56A6
:10262000BD4F0C90062A80FE06260C926A857B859B
:102630006F5F7F4F7B876A87D5CF2F5F3F4FCACFB2
:102640009101359527956A94C00ED11E6110B6CFC1
:102650007394EE81FF813196FF83EE83400F511F0B
:10266000F6E07F12A1CF26E0929E800D911D1124ED
:10267000AB81BC8150969C938E931F9756962C915C
:102680005697222309F435CF4AEF40039001419F2A
:10269000300D112420583F4F281739070CF029CF4F
:1026A000CD01ED91FC910190F081E02D6AE009955A
:1026B00020CF0895089590E080E00895CF92EF92A2
:1026C0000F934091FA065091FB066091FC067091C1
:1026D000FD068091FA019091FB01A091FC01B0915F
:1026E000FD01481759076A077B07A0F08091120285
:1026F0004C595F4F6F4F7F4F4093FA015093FB014E
:102700006093FC017093FD018D3008F03EC08F5F37
:1027100080931202209112028091F8069091F9069E
:10272000ECEAF0E00491EDEAF0E0E4904EEA50E0EB
:102730002223F9F061E070E03E2D377011F470E073
:1027400060E04E2D469546954695460F572F511DF4
:10275000049FB001059F700D112430E0220F331F3C
:10276000629FA001639F500D729F500D112442552E
:102770005F4F23E0C22E30E020E06EE170E00E9467
:1027800080100F91EF90CF90089510921202C2CF57
:10279000FC0101900020E9F73197AF01481B590B6C
:1027A000BC018EEF96E00C94E20E8F929F92AF9256
:1027B000BF920F931F93CF93DF93CDB7DEB7A1974F
:1027C0000FB6F894DEBF0FBECDBF19A2423008F499
:1027D0004AE08E010F5D1F4F842E912CB12CA12C4D
:1027E000A50194010E94561FE62FB901CA01EA30E3
:1027F000F4F4E05DD801EE938D01232B242B252BDF
:1028000079F790E080E0109719F0CD010E94C8138D
:10281000A1960FB6F894DEBF0FBECDBFDF91CF916A
:102820001F910F91BF90AF909F908F900895E95C9A
:10283000E1CFCF92DF92EF92FF92CF93DF936B01C4
:102840007C016DE28EEF96E00E944A12EC01662751
:102850007727CB016C197D098E099F094AE00E94F8
:10286000D5138C0F9D1FDF91CF91FF90EF90DF90DC
:10287000CF900895CF93DF930E94C813EC0183E4B7
:1028800091E00E94C8138C0F9D1FDF91CF91089596
:102890000C94C8138091000190910101181619063B
:1028A0000CF44CC00E941B0D88E290E090930E0740
:1028B00080930D078AE090E09093100780930F07B4
:1028C00082E08093130786E491E00E94481481E03F
:1028D0008093130710920E0710920D0780E290E08C
:1028E0009093100780930F078BE491E00E944814A7
:1028F0000E943D0D0E94400D81E090E09093050103
:102900008093040122E030E0309303012093020120
:102910001092100210920F02909301018093000117
:1029200010920E020E9442128C708C30D9F184E613
:1029300090E00E940F0F0E941B0DF4CF80910E02B9
:10294000882319F00E941B0DC5CF0E941B0D88E241
:1029500090E090930E0780930D078AE090E09093AB
:10296000100780930F0782E08093130780E691E0C1
:102970000E943A1481E08093130710920E07109280
:102980000D0780E290E09093100780930F0785E693
:1029900091E00E943A1487E791E00E943A140E9465
:1029A0003D0DC0CF10927802109277020895BC01BD
:1029B000990F880B990B97FD0C9419144AE00C940D
:1029C000D5130F931F93CF93DF93CEEFD6E0188AE2
:1029D0001F8605E010E01A8B098B8CE891E00E94BD
:1029E000481480910401909105010E94D7148BE452
:1029F00090E0988B8F871A8B098B84E991E00E9475
:102A0000481480910F02909110020E94D714DF9118
:102A1000CF911F910F910C943D0D0C940E1F1F929E
:102A20000F920FB60F9211248F939F938091E10024
:102A30009091E100937F9093E10083FF0FC010928B
:102A4000E90091E09093EB001092EC0092E39093F8
:102A5000ED0010928E0298E09093F00082FF22C069
:102A600093E09093E9009091F200992319F09AE392
:102A70009093E80090917F02992341F090917F021A
:102A8000915090937F02911101C05D9A90918D02B7
:102A9000992341F090918D02915090938D02911164
:102AA00001C0289A84FF18C08091E2008E7E816068
:102AB0008093E2008091E1008F7E8093E10080911D
:102AC00080028E7E8061809380029F918F910F9013
:102AD0000FBE0F901F90189580FFF7CF8091E200F6
:102AE0008E7E80618093E2008091E1008E7E8093F3
:102AF000E100809180028E7E8160E5CF1F920F926F
:102B00000FB60F921124CF92DF92EF92FF920F93A4
:102B10001F932F933F934F935F936F937F938F9365
:102B20009F93AF93BF93EF93FF93CF93DF93CDB773
:102B3000DEB76C97DEBFCDBF1092E9008091E80050
:102B400083FF25C068E0CE0145960E94D40E82EF37
:102B50008093E8008D8987FF39C09091E80090FF4D
:102B6000FCCF982F907609F034C19E894F89588DFB
:102B70002F89F88C911131C0803861F580917E02E7
:102B80008093F1001092F1008EEF8093E8006C9634
:102B90000FB6F894DEBF0FBECDBFDF91CF91FF918E
:102BA000EF91BF91AF919F918F917F916F915F91C5
:102BB0004F913F912F911F910F91FF90EF90DF90D8
:102BC000CF900F900FBE0F901F9018959EEF90938F
:102BD000E800C7CF1092F100D5CF913059F48111A0
:102BE000D3CF4130510581F680917E028D7F809355
:102BF0007E02CACF933049F48111C6CF41305105CE
:102C000019F680917E028260F2CF953041F4809176
:102C1000E80080FFFCCF20682093E300B5CF96301A
:102C200009F0A9C00B8D1C8D22E01092E9001092D2
:102C30007C0210927B02F2122EC010927A02109245
:102C400079020E94A30E1F8299E09983FA8291E093
:102C50009E8390EA98879AEF998720917B02309122
:102C60007C02275F3F4F3C832B838D831092E900CA
:102C700010927C0210927B0210937A0200937902E8
:102C800049E050E0BE016F5F7F4F80E00E947D0E03
:102C90000E94A30E79CF10937A02009379020E94CA
:102CA000BA0DDC0112960D911C910115110509F464
:102CB00051C1D801ED91FC910480F581E02DBE0158
:102CC0006B5E7F4FC8010995009709F03EC1F8017E
:102CD00000851185EACFF3E0FF120EC08F898823AB
:102CE00009F440C0823061F440E867E081ED99E189
:102CF0000E945B18811148CF81E28093EB0047CF9F
:102D0000813029F440E86BE085EC99E1F1CF833024
:102D100099F70E94BA0DDC011296ED90FC908E019D
:102D20000F5F1F4F6801E114F10479F0D701ED91B5
:102D3000FC910680F781E02DB801C7010995080FC5
:102D4000111DF701E084F184EECFD8011C92F60149
:102D500001900020E9F73197BF016C197D0940E02F
:102D6000C601C6CF6FEA79E1FB01449150E080E8EB
:102D70000E947D0E09CF973009F4BECF983021F420
:102D800081E08093F10000CF993009F0FDCE83708F
:102D900009F0B2CFE7E1F1E081E031E096E3219183
:102DA000222371F08093E9003093EB00DF0111974B
:102DB0002C912093EC009093ED008F5F873079F792
:102DC0008EE78093EA001092EA008F8980938E024A
:102DD000DBCE8B8D9C8D1092E90010927C021092BC
:102DE0007B0290937A0280937902898D811192C03F
:102DF0008E899D89913A49F4813209F07DCF47E06F
:102E000050E06AE071E080E0B3CF913209F074CF16
:102E1000833269F48F89988DB0E0A0E08093060139
:102E200090930701A0930801B0930901ADCE8032C1
:102E300069F48091E80082FFFCCF67E08AE091E0CE
:102E40000E94D40E8BEF8093E8009ECE823209F070
:102E50009BCE8F8980931101EEEFFFE785919491CE
:102E60008B3F9C4D51F1E0E0F8E080910A01909198
:102E70000B01A0910C01B0910D01803B9440A10584
:102E8000B105F1F48091110180FD1AC0EE3F8AE096
:102E9000F80789F587E797E7918380838091600041
:102EA00080937D0288E19BE00FB6F894A89580930B
:102EB00060000FBE9093600067CEEEEFFAE0D5CFD2
:102EC000808191818737974709F05ECEA8958091E0
:102ED000600088618093600080917D028093600033
:102EE000EE3F2AE0F20789F08091FE0A9091FF0AF6
:102EF0009183808349CE808191818737980751F2F1
:102F00009093FF0A8093FE0AC5CF1092FF0A109299
:102F1000FE0A3ACE0E94BA0DDC0112960D911C9168
:102F20000115110509F4E8CED801ED91FC9101904D
:102F3000F081E02DBE016B5E7F4FC80109958111C4
:102F400023CEF80100851185EBCF181619060CF475
:102F50001BCED2CEF1E0FF12BECE63EB79E104CFFF
:102F60000F920FB68F939F93EF93FF938091080278
:102F70008D5F8D3708F08D5780930802E4EEF6E000
:102F800080818E4F808391819F4F918382818F4F6B
:102F9000828383818F4F8383E9E0F2E080818F5FBA
:102FA000808381818F4F818382818F4F8283838150
:102FB0008F4F83838FB18F6066991C9B88278F36D4
:102FC00081F480910702981B963068F0E0E0F8E009
:102FD00087E78083818388E180936000F0936000BD
:102FE000FFCF90930702FF91EF919F918F910FBEBA
:102FF0000F9018951F920F920FB60F9211242F93D6
:103000003F934F935F936F937F938F939F93AF9370
:10301000BF93EF93FF938091030290910402A091DC
:103020000502B0910602892B8A2B8B2B09F440C034
:103030008091020281110BC088B190E4892788B980
:1030400080910102882319F088B1805888B9809155
:10305000030290910402A0910502B0910602181695
:1030600019061A061B069CF4809103029091040233
:10307000A0910502B09106020197A109B1098093C0
:10308000030290930402A0930502B0930602FF91FD
:10309000EF91BF91AF919F918F917F916F915F91D0
:1030A0004F913F912F910F900FBE0F901F90189549
:1030B0000E94BA0FECCFEF92FF920F931F93CF9322
:1030C000DF93F82E192FE62E042F81E0860F880F4C
:1030D0000E944F0E83E00E944F0ECF2DD12FEC0E99
:1030E000FD2EF11CCE15DF05B9F007FF13C0FE0160
:1030F00084910E944F0E182F80E00E944F0E812372
:1031000021968111EFCFDF91CF911F910F91FF9009
:10311000EF9008958881EDCF81E0F5CF0F931F9355
:10312000CF93DF938C0181E090E00E940D1580FF2A
:1031300031C08AE090E00E940D159FEF980F9E3FEE
:1031400048F522E330E0D80150963C932E931F9728
:1031500028E330E052963C932E935197CBE0D0E099
:10316000D801ED91FC910190F081E02D682FC8010C
:103170000995CE010E940D152196C131D10581F727
:103180000E943D0D88EE93E0DF91CF911F910F914A
:103190000C940F0FDF91CF911F910F910895049719
:1031A0000C948E18E4E9F6E01382128288EE93E024
:1031B000A0E0B0E084839583A683B78381E291E0A9
:1031C000918380838FEF9FEF95878487EEEFF6E002
:1031D000138212821186128680E1838710861782FD
:1031E000158683E391E09183808381E491E0958368
:1031F0008483108A1786128A118A81E0838B148A4D
:10320000858B168A88E19DE09093F7068093F606F9
:1032100080E090E89093F5068093F40646983E9AF5
:1032200047983F9A2FB7F8948091E4069091E5066D
:10323000A091E606B091E7062FBF8093FA0690931F
:10324000FB06A093FC06B093FD0680E390E090930C
:10325000F9068093F8060895789483E084BD83E0AE
:1032600085BD81E080936E00E1E8F0E083E080833B
:10327000E0E881E08083E1E983E08083E0E981E0C8
:103280008083E1EC87E08083E3EC81E08083E0EC05
:1032900082E08083E2EC81E08083EAE787E080835C
:1032A0008068808310928E0210927E0210928002BB
:1032B0008091D70081608093D70080EA8093D80006
:1032C00089B5806189BD89B5826089BD09B400FE78
:1032D000FDCF81E090E00E940F0F8091D8008F7C9D
:1032E00080618093D8008091E000807F8093E0002F
:1032F0008091E1008E7E8093E1008DE08093E2007A
:10330000559A209A81EC80937C0081EF85B987EEF5
:1033100084B982E38BB982EF8AB9769A6E9880EF8E
:1033200081BB10BA80E58CBD81E08DBD85E00E9437
:103330003F125F9A85E00E943F125C98EEE5F5E14E
:1033400085918EBD00000DB407FEFDCFEB36C1F7B1
:103350005C9A81E88093640081E0809365000E941C
:103360002E0D0E94421287FF15C05C9885EA8EBD23
:1033700000000DB407FEFDCF5C9A2E982F982D9873
:103380008091640080628093640081E083BF8895AF
:1033900013BEFCCF0E94421282FF45C02D980E94AE
:1033A000421284788438D9F40E943D1288EC0E943D
:1033B0003F122F9882E090E00E940E1F8F3F29F06D
:1033C0006FEF82E090E00E94161F84EF91E00E9470
:1033D0000F0F2F9A0E94421284788438D9F30E94EA
:1033E000421284718431D9F40E943D1288EC0E940B
:1033F0003F122E9882E090E00E940E1F882329F051
:1034000060E082E090E00E94161F84EF91E00E944D
:103410000F0F2E9A0E94421284718431D9F388ECE6
:103420000E943F12B7CF0E943D1282E090E00E94BE
:103430000D15882309F444C03E9A3F9A81E0809399
:103440000D0281E090E00E940D15082F0470F02E0F
:1034500081FF0CC001112E98C1EFDFEF0E944212D4
:1034600086FF33C02E9A2F9A0E943D1282E30E945B
:103470003F120E9442128111F9CF80E18093090727
:103480000E943D0D0E941B0D54E0852E912CA12C15
:10349000B12C9091E40680910A07F92FF81B8F2F29
:1034A00020910B07222309F47DC0F0930C071092A2
:1034B0000B0780E090E0892B61F30E940000E9CFC8
:1034C00010920D023E983F98BCCFFF2029F0C430E7
:1034D000D10511F42E9A2F9881E00E942E0D1C2FF9
:1034E0001770B12E9E0163E0359527956A95E1F737
:1034F000C9019695982F8827979587958C569D4F4B
:1035000050E040E02E3F6FEF360751F1DC01AC5642
:10351000BF4F8C0170E060E0FA01E255FB4E6F0195
:10352000F601E60FF71FE491F0E04F010B2C02C00B
:10353000880C991C0A94E2F72F3F320721F0F8011A
:10354000E488E828E48ABB2019F0EC91E929EC939F
:103550006F5F7F4F11960F5F1F4F6835710501F741
:103560002F5F3F4F80589F4F485A5F4F403B510558
:1035700049F60E943D0D8FE00E943F122196C9310D
:10358000D10509F06BCFFF2011F02F9A2D9880E91B
:1035900091E00E940F0F0E943D128EEF96E00E9474
:1035A0008E1864CF20910907F21748F48F5F8217B5
:1035B00008F07FCF81E083BF889513BE7ACF81E08A
:1035C00080930B0790930A07E5E0F7E080819181F3
:1035D00001968083918380910707809308070E945A
:1035E0004212809307070E941B0DC0917702D09171
:1035F0007802C130D10509F483C02CF4CD2BA1F0A1
:103600000E943D0D56CFC230D10509F456C3239711
:10361000B9F710920E0710920D0710921007109232
:103620000F078EEE91E053C310920E0710920D0714
:103630001092100710920F07EBE6F5E10491ECE60B
:10364000F5E1E49042E0C42E30E020E04DE655E1A3
:1036500070E060E090E080E00E9480100E944212E2
:103660008C708C3069F681E090E090930501809336
:10367000040122E030E03093030120930201109214
:10368000100210920F02909301018093000110929A
:103690000E02809164008E7F8093640080917A0096
:1036A000806480937A0080917A0086FDFCCFC0917F
:1036B0007800D09179000E945C0DAB01BC01CE0175
:1036C000B0E0A0E0DC01992788278C019D01040F60
:1036D000151F261F371FC901B80120916400216002
:1036E00020936400611571058105910511F00E9418
:1036F000051F81E090E0909378028093770280CF5D
:1037000010920E0710920D071092100710920F07DB
:103710008CE991E00E9448140E941B0DD093050192
:10372000C093040124E1222E312C9AE0C92E80910D
:10373000040190910501C3970CF0BCC203E112E0B3
:10374000D0E0C0E0A6E0FA2EB3E0EB2E8EE0D82E5B
:1037500080910401909105018C179D070CF47EC0A7
:103760000E94B61EA50194010E94241FF8016193D6
:1037700071938F016115710539F583E890E00E941E
:1037800062100E94B61E23E030E040E050E00E944C
:10379000241F6230B1F0609312020E945E130E94F7
:1037A000E11480ED97E00E940F0FD09212020E9468
:1037B0005E130E94E1148CE291E00E940F0F2196AB
:1037C000C7CF10921202E9CF61307105C9F483E9C5
:1037D00090E00E9462100E94B61E23E030E040E0BC
:1037E00050E00E94241FDC01CB010396A11DB11DF6
:1037F000853019F080931202D0CFE0921202CDCF23
:1038000062307105A1F485EA90E00E9462100E9486
:10381000B61EA50194010E94241FDC01CB0106966F
:10382000A11DB11D893031F7F0921202B6CF63307D
:10383000710529F68FEA90E00E9462100E94B61E80
:10384000A50194010E94241FDC01CB010A96A11D51
:10385000B11D8D3079F6C09212029FCFE3E04E2E5B
:10386000512C612C712CDD24D394FEE1EF2EF12C30
:103870000FE310E0C8E2D0E00E941B0DD0921307C6
:1038800030920E0720920D073092100720920F07FA
:1038900081EA91E00E944814D092130730920E07FB
:1038A00020920D07F0921007E0920F078EEA91E048
:1038B0000E94481410930E0700930D07D093100731
:1038C000C0930F07D09213074AE0C301B2010E94D0
:1038D000D513D09213070E94E11484EF91E00E9467
:1038E0000F0FF1E04F1A51086108710829F60E9484
:1038F0001B0D82E080931307D0930E07C0930D0732
:1039000089E190E09093100780930F0789EB91E095
:103910000E9448140E943D0D88EE93E00E940F0F14
:103920000E941B0DD09213070E94E1141092110205
:10393000D0E0C0E001E04EE1442E512C58E2652E6B
:10394000712C1EE063E0F62E76E0E72E80910707EB
:10395000809308070E944212809307070E94421238
:1039600084788438C1F50E941B0D23E230E0309347
:103970000E0720930D073092100720920F07009337
:1039800013078EEB91E00E944814009313078FE019
:1039900090E090930E0780930D075092100740928D
:1039A0000F078AEC91E00E944814EDE2F0E0F093FA
:1039B0000E07E0930D077092100760920F078EE6D6
:1039C00091E00E9448140E943D0D88EE93E00E9411
:1039D0000F0F0E944A1480E10E94740D882399F110
:1039E00083E890E00E9462100E94B61E23E030E05F
:1039F00040E050E00E94241F623009F4DEC0609372
:103A000012020E945E130E94E11484EF91E00E9472
:103A10000F0F109312020E945E13FE01EE0FFF1FA4
:103A2000ED5EFD4F80819181892B09F0D2C02196F6
:103A300080910F0290911002019690931002809352
:103A40000F020E94E11480E80E94740D8823C1F1E6
:103A500083E990E00E9462100E94B61E23E030E0ED
:103A600040E050E00E94241FDC01CB010396A11D21
:103A7000B11D853009F4A4C0809312020E945E1328
:103A80000E94E11484EF91E00E940F0F1093120244
:103A90000E945E13FE01EE0FFF1FED5EFD4F808161
:103AA0009181019709F095C0219680910F02909124
:103AB000100201969093100280930F020E94E1146D
:103AC00080E40E94740D8823B1F185EA90E00E94A1
:103AD00062100E94B61EA50194010E94241FDC0101
:103AE000CB010696A11DB11D893009F46CC08093ED
:103AF00012020E945E130E94E11484EF91E00E9482
:103B00000F0F109312020E945E13FE01EE0FFF1FB3
:103B1000ED5EFD4F80819181029709F05AC0219698
:103B200080910F0290911002019690931002809361
:103B30000F020E94E11480E20E94740D8823A1F11B
:103B40008FEA90E00E9462100E94B61EA5019401C7
:103B50000E94241FDC01CB010A96A11DB11D8D30EE
:103B6000A9F1809312020E945E130E94E11484EF77
:103B700091E00E940F0F109312020E945E13FE014B
:103B8000EE0FFF1FED5EFD4F80819181039709F5D8
:103B9000219680910F02909110020196909310024D
:103BA00080930F020E94E114809102019091030121
:103BB000C817D9070CF4CACE18C01092120221CF30
:103BC000F09212025BCFE092120293CFC0921202E7
:103BD000CACF80910001909101010197909301015A
:103BE0008093000181E0809311028091110288236B
:103BF00091F181E080930E02809104019091050182
:103C000001979093050180930401809102019091A6
:103C100003010197909303018093020180910401B5
:103C20009091050101969093050180930401809184
:103C30000201909103010196909303018093020188
:103C40008091000190910101181619060CF46FCDB6
:103C50000E944A146ACD0E941B0D82E080931307D4
:103C6000C8E2D0E0D0930E07C0930D070FE010E03C
:103C70001093100700930F0789EB91E00E944814FE
:103C800081E08093130789E190E090930E07809381
:103C90000D07D0931007C0930F078DED91E00E94A0
:103CA00048140E943D0D8CED95E00E940F0F0E947C
:103CB0001B0DB4CF0E943D0DA3CC10920E071092A5
:103CC0000D071092100710920F0789EE91E00E94E5
:103CD000481496CC8F929F92AF92BF92CF92DF9270
:103CE000EF92FF92CF93DF93EC01688179818A8113
:103CF0009B81611571058105910521F464E279EDDF
:103D00008BE597E02DE133EF41E050E00E94241F66
:103D100049015A019B01AC01A7EAB1E40E94431F8B
:103D20006B017C01ACEEB4EFA50194010E94511F20
:103D3000C60ED71EE81EF91EF7FE06C081E0C81A9F
:103D4000D108E10880E8F80AC882D982EA82FB82B9
:103D5000C701B6019F77DF91CF91FF90EF90DF9081
:103D6000CF90BF90AF909F908F9008958F929F9229
:103D7000AF92BF92CF92DF92EF92FF9260911201C9
:103D800070911301809114019091150161157105D5
:103D90008105910521F464E279ED8BE597E02DE151
:103DA00033EF41E050E00E94241F49015A019B017A
:103DB000AC01A7EAB1E40E94431F6B017C01ACEEA9
:103DC000B4EFA50194010E94511FC60ED71EE81E34
:103DD000F91EF7FE06C081E0C81AD108E10880E8A4
:103DE000F80AC0921201D0921301E0921401F092ED
:103DF0001501C701B6019F77FF90EF90DF90CF903C
:103E0000BF90AF909F908F90089560931201709330
:103E1000130180931401909315010895F999FECF31
:103E200092BD81BDF89A992780B50895262FF999FA
:103E3000FECF1FBA92BD81BD20BD0FB6F894FA9A8D
:103E4000F99A0FBE01960895052E97FB1EF4009473
:103E50000E943B1F57FD07D00E94561F07FC03D04E
:103E60004EF40C943B1F50954095309521953F4F53
:103E70004F4F5F4F089590958095709561957F4F56
:103E80008F4F9F4F08950E94781FA59F900DB49F5C
:103E9000900DA49F800D911D11240895B7FF0C94DF
:103EA000431F0E94431F821B930B0895A1E21A2E09
:103EB000AA1BBB1BFD010DC0AA1FBB1FEE1FFF1FCE
:103EC000A217B307E407F50720F0A21BB30BE40B1E
:103ED000F50B661F771F881F991F1A9469F7609565
:103EE0007095809590959B01AC01BD01CF0108951F
:103EF000A29FB001B39FC001A39F700D811D11242B
:103F0000911DB29F700D811D1124911D0895EE0F1A
:0E3F1000FF1F0590F491E02D0994F894FFCF67
:103F1E00010001000100FFFFFFFF00E100000000B3
:103F2E0000000100000000C18081000000000000C0
:103F3E0000CE0D230FEF0DE40D350EF30D110E0017
:103F4E000000004A12E20E5B135A138E18FCFF009B
:103F5E0000CF180D0A00464F4F2100507265737343
:103F6E002041202B204220746F205265736574000F
:103F7E00436F6F2100596F752062656174207468FC
:103F8E00652067616D650050726573732041202650
:103F9E00204220746F20626567696E00526F756EE5
:103FAE00643A200053636F72653A200047616D6575
:103FBE000051756167676F6E207361797300676575
:103FCE00742052656164792100434F4F2100706C5B
:103FDE006561736520776169740051756167676FFC
:103FEE006E7320726573736574696E6700476F64D4
:103FFE00204A6F4F6F4F6F42004F766572005363CA
:04400E006F72650068
:00000001FF
