:100000000C948E070C94B6070C94B6070C94B607A4
:100010000C94B6070C94B6070C94B6070C94B6076C
:100020000C94B6070C94B6070C946D0E0C94DC0E71
:100030000C94B6070C94B6070C94B6070C94B6074C
:100040000C94B6070C94B6070C94B6070C94B6073C
:100050000C94B6070C94B6070C94B6070C940E11CA
:100060000C94B6070C94B6070C94B6070C94B6071C
:100070000C94B6070C94B6070C94B6070C94B6070C
:100080000C94B6070C94B6070C94B6070C94B607FC
:100090000C94B6070C94B6070C94B6070C94B607EC
:1000A0000C94B6070C94B6070C94B607101006060D
:1000B0006666D3F349F93DFD67FF3FFF22FE2EFE42
:1000C00036FE66FE3CFC48F8D0F0606000000000A0
:1000D0000707686F91FFAEFF417F527F3A3F3A3F7B
:1000E000527F417FAEFF91FF686F07070000030357
:1000F0003131E9F9A5FD1FFFB3FF1FFF11FF17FF06
:100100001BFFB3FF1EFEA4FC68F8B0B000000000A7
:10011000030334374C7F577F203F293F1D1F1D1F8E
:10012000293F607F97FF88FF74770303000007076C
:100130006363D1F149F93DFD67FF3FFF22FE2EFECB
:1001400036FE66FE3CFC48F8D0F06060000000001F
:100150000707686F91FFAEFF417F527F3A3F3A3FFA
:10016000527F417FAEFF91FF686F070700000101DA
:10017000B1B169F9A4FC1EFEB3FF1FFF11FF17FF09
:100180001BFFB3FF1EFEA4FCE8F8303000000000A7
:100190000303747788FF97FF607F293F1D1F1D1F92
:1001A000293F203F577F4C7F343703030000000076
:1001B0006060D0F048F83CFC26FE36FE2EFE22FEA3
:1001C0003FFF27FF3DFD49F9D3F3666606060000B1
:1001D0000707686F91FFAEFF427F5A7F323F323F81
:1001E0005A7F427FAEFF91FF686F07070000000053
:1001F0003030E8F8A4FC1EFE13FF1BFF17FF11FFB1
:100200001FFF13FF1FFFA5FD69F9B1B10303000034
:10021000030334374C7F577F213F2D3F191F191F90
:100220002D3F617F97FF88FF747703030000000074
:100230006060D0F048F83CFC26FE36FE2EFE22FE22
:100240003FFF27FF3DFD49F9D1F163630707000038
:100250000707686F91FFAEFF427F5A7F323F323F00
:100260005A7F427FAEFF91FF686F070700000000D2
:10027000B0B068F8A4FC1EFE13FF1BFF17FF11FFB0
:100280001FFF13FF1EFEA4FCE9F93131010100003C
:100290000303747788FF97FF617F2D3F191F191F94
:1002A0002D3F213F577F4C7F343703030000060664
:1002B0006666D3F349F93DFD27FF3FFF22FE2EFE80
:1002C00036FE26FE3CFC48F8D0F0606000001010BE
:1002D000202031313E3F607FC0FF80FFF0FF787FFC
:1002E0007D7FB8FFD8FF2D2F080F070700000303FD
:1002F0003333E9F924FC1EFE13FF1FFF11FF17FF24
:100300009BFF13FF1EFEA4FC68F8B0B000000808B5
:10031000101018181F1F303F607FC0FFF8FF3C3FD0
:100320003E3F5C7F6C7F1617040703030000060640
:100330006666D3F349F93DFD27FF3FFF22FE2EFEFF
:1003400036FE26FE3CFC48F8D0F06060000010103D
:10035000202031313E3F607FC0FF80FFF0FF787F7B
:100360007D7FB8FFD8FF2D2F080F0707000003037C
:100370003333E9F924FC1EFE13FF1FFF11FF17FFA3
:100380009BFF13FF1EFEA4FC68F8B0B00000080835
:10039000101018181F1F303F607F407F787F3C3F50
:1003A0003E3F5C7FECFFD6D704070303000000004C
:1003B0006060D0F048F83CFC26FE36FE2EFE22FEA1
:1003C0003FFF27FF3DFD49F9D3F3666606060000AF
:1003D0000707080F2D2FD8FFB8FF7D7F787FF0FF2C
:1003E00080FFC0FF607F3E3F3131202010100000B1
:1003F000B0B068F8A4FC1EFE13FF9BFF17FF11FFAF
:100400001FFF13FF1EFE24FCE9F933330303000032
:100410000303040716176C7F5C7F3E3F3C3FF8FFE9
:10042000C0FF607F303F1F1F181810100808000021
:100430006060D0F048F83CFC26FE36FE2EFE22FE20
:100440003FFF27FF3DFD49F9D3F36666060600002E
:100450000707080F2D2FD8FFB8FF7D7F787FF0FFAB
:1004600080FFC0FF607F3E3F313120201010000030
:10047000B0B068F8A4FC1EFE13FF9BFF17FF11FF2E
:100480001FFF13FF1EFE24FCE9F9333303030000B2
:1004900003030407D6D7ECFF5C7F3E3F3C3F787FE9
:1004A000407F607F303F1F1F18181010080800FFA2
:1004B00000FF00FF00FF00FF00FF00FF00FF00FF44
:1004C00000FF00FF00FF00FF00FF00FF00FF00FF34
:1004D00000FF00FF00FF00FF00FF00FF00FF00FF24
:1004E00000FF00FF00FF00FF00FF00FF00FF000013
:1004F0000000003E5B4F5B3E3E6B4F6B3E1C3E7C04
:100500003E1C183C7E3C181C577D571C1C5E7F5EB1
:100510001C00183C1800FFE7C3E7FF001824180070
:10052000FFE7DBE7FF30483A060E26297929264007
:100530007F050507407F05253F5A3CE73C5A7F3E33
:100540001C1C08081C1C3E7F14227F22145F5F00C5
:100550005F5F06097F017F006689956A6060606061
:100560006094A2FFA29408047E040810207E20104C
:1005700008082A1C08081C2A08081E101010100C55
:100580001E0C1E0C30383E3830060E3E0E060000A3
:1005900000000000005F00000007000700147F1447
:1005A0007F14242A7F2A12231308646236495620B6
:1005B000500008070300001C2241000041221C00DB
:1005C0002A1C7F1C2A08083E08080080703000089A
:1005D00008080808000060600020100804023E516E
:1005E00049453E00427F4000724949494621414900
:1005F0004D331814127F1027454545393C4A494967
:100600003141211109073649494936464949291ED0
:1006100000001400000040340000000814224114BF
:1006200014141414004122140802015909063E4111
:100630005D594E7C1211127C7F494949363E414139
:1006400041227F4141413E7F494949417F09090992
:10065000013E414151737F0808087F00417F4100FE
:100660002040413F017F081422417F404040407FAD
:10067000021C027F7F0408107F3E4141413E7F09FA
:100680000909063E4151215E7F091929462649493B
:10069000493203017F01033F4040403F1F2040207B
:1006A0001F3F4038403F6314081463030478040379
:1006B0006159494D43007F41414102040810200027
:1006C0004141417F04020102044040404040000398
:1006D00007080020545478407F2844443838444464
:1006E0004428384444287F385454541800087E095C
:1006F0000218A4A49C787F0804047800447D40007C
:100700002040403D007F1028440000417F40007C95
:10071000047804787C080404783844444438FC188D
:1007200024241818242418FC7C0804040848545471
:10073000542404043F44243C4040207C1C2040209E
:100740001C3C4030403C44281028444C9090907C05
:100750004464544C44000836410000007700000017
:100760004136080002010204023C2623263C1EA159
:10077000A161123A4040207A3854545559215555B8
:100780007941215454784121555478402054557969
:10079000400C1E52721239555555593954545459FA
:1007A00039555454580000457C410002457D4200B3
:1007B00001457C40F0292429F0F0282528F07C54BC
:1007C0005545002054547C547C0A097F49324949DC
:1007D00049323248484832324A4848303A41412149
:1007E0007A3A42402078009DA0A07D3944444439A3
:1007F0003D4040403D3C24FF2424487E4943662B35
:100800002FFC2F2BFF0929F620C0887E09032054D6
:100810005479410000447D413048484A32384040D4
:10082000227A007A0A0A727D0D19317D2629292F34
:1008300028262929292630484D402038080808084C
:1008400008080808382F10C8ACBA2F102834FA004E
:10085000007B000008142A142222142A1408950090
:10086000220095AA005500AAAA55AA55AA00000080
:10087000FF00101010FF00141414FF001010FF00F0
:10088000FF1010F010F0141414FC001414F700FF03
:100890000000FF00FF1414F404FC141417101F10C0
:1008A000101F101F1414141F00101010F00000006F
:1008B000001F101010101F10101010F0100000007A
:1008C000FF101010101010101010FF10000000FF8B
:1008D000140000FF00FF00001F10170000FC04F4CC
:1008E00014141710171414F404F40000FF00F71484
:1008F000141414141414F700F7141414171410100B
:100900001F101F141414F4141010F010F000001F26
:10091000101F0000001F14000000FC140000F01065
:10092000F01010FF10FF141414FF141010101F000B
:10093000000000F010FFFFFFFFFFF0F0F0F0F0FF0D
:10094000FFFF0000000000FFFF0F0F0F0F0F3844E4
:100950004438447C2A2A3E147E02020606027E02A5
:100960007E0263554941633844443C04407E201E66
:100970002006027E020299A5E7A5991C2A492A1C95
:100980004C7201724C304A4D4D303048784830BC82
:10099000625A463D3E494949007E0101017E2A2AAC
:1009A0002A2A2A44445F444440514A444040444A2D
:1009B00051400000FF0103E080FF000008086B6B5E
:1009C000083612362436060F090F060000181800E4
:1009D00000001010003040FF0101001F01011E0047
:1009E000191D1712003C3C3C3C0000000000F0F8D0
:1009F0009C8E8783878E9CF8F00000FEFF03030324
:100A00000303070EFCF80000FEFF030303030307C4
:100A10000EFCF80000FFFF00000000000000FFFFD8
:100A20000000FEFF8383838383C7EE7C380000F8D9
:100A3000FC0E07030303070EFCF800003F7FE0C035
:100A40008080C0E07F3FFFFF01010101010101FF44
:100A5000FF0000FFFF0C0C0C0C1C3E77E3C10000F4
:100A60007FFFC0C0C0C0C0E0703F1F00001F3F70CC
:100A7000E0C0C0C0E0703F1F00007FFFC1C1C1C126
:100A8000C1E3773E1C00001F3F70E0C0C0C0E070B3
:100A90003F1F000000000001FFFF01000000D5F033
:100AA0008D14A1C881CFD9F1AF2000804000000093
:100AB0000000000000000000000000C0C0F0F0F0E6
:100AC000F0F0F03C3C0C0CF0F0C0C0000000000066
:100AD0000000000000000000E0E0181818181818C6
:100AE000E0E00000F8F8000000000000F8F8000066
:100AF000E0E0181818181818E0E00000E0E01818F6
:100B00001818181860600000E0E018181818181875
:100B100060600000E0E0181818181818E0E0000005
:100B2000F8F8808000000000F8F8000000000000E5
:100B300000000000000000000000000000000003B2
:100B40000303030F0FCFCFCCCCFFFFCFCFC0C0C06C
:100B5000C0000000000000007F7F808098986060E7
:100B60009F9F00007F7F8080808080807F7F00004B
:100B7000FFFF060606060606FFFF00007F7F808057
:100B800080809898787800007F7F80808080989817
:100B9000787800007F7F8080808080807F7F000069
:100BA000FFFF010106061818FFFF0000000000000B
:100BB000000000000000000000C0C0F0F00C0CCFEE
:100BC000CFC3C3F3F330300000F0F0FCFC0000F0C2
:100BD000F0C3C3CFCFCCCC0C0CF0F101010100006D
:100BE00001010000000001010101010100000000FD
:100BF0000101000000000030494948880000A1A11F
:100C0000C10101C10000C00040A0A12101010101FA
:100C100000000000000001010101010100000000CE
:100C200001010000000000000101000000000000C0
:100C300000000000000000F0F0CFCFC0C030303C1A
:100C40003C0C0CCCCCCCCC0C0C0C0C0C0C0C0C0CB4
:100C50000CCCCCCCCC0F0F3C3CC0C0CFCFF0F000C4
:100C60000000000000000000000000000000000084
:100C70000000000000000002020202010001020266
:100C80000102000912120D00020202010000000020
:100C90000000000000000000000000000000000054
:100CA0000000000000000000000000000000000044
:100CB00000000000000000FFFF0000000000000036
:100CC000003030C3C3C3C3C0C0C0C0C0C0C0C0C0F8
:100CD000C0C3C3C3C3C0C0303000000000FFFF006A
:100CE00000000000000000000000000000C04040C4
:100CF000C000000000000000000000000000000034
:100D000000000000804020A0204080000000000083
:100D1000000000008040A0A02040800000000000F3
:100D200000000000000000000000000000000000C3
:100D300000000000000000FFFF00000000F0F000D5
:100D4000000000000003030F0FFFFFFFFFFFFFFF86
:100D5000FFFFFFFFFF0F0F000000000000F0F00F8B
:100D60000F0000000000000000000000001F020251
:100D700001001F0201000E15160012150D001215BC
:100D80000D0000003F40BF84BF403F00000002074D
:100D9000020000003F40BFA49B403F000000000055
:100DA0000000000000000000000000000000000043
:100DB0000000000000C0C0FFFF00000000000003B2
:100DC000030C0C3C3CFCFCFFFFFFFFFFFFFFFFFFA1
:100DD000FFFFFFFFFF0F0F0000C0C03F3F000000FC
:100DE000000000000000000000000000000404FCFF
:100DF00004E410E0000000000000F8040404040013
:100E0000E010E000E010E00010F01000D000E01072
:100E1000E000F000F000E050600000000000000082
:100E200000000000000000000000000000000000C2
:100E3000000F0F3F3F3333303030300C0C3C3CC0A0
:100E4000C0C0C0C0C0C0C033330F0F0F0F0F0F0F93
:100E50000F3333C0C0C0C0C0C0C0C03F3F0000009F
:100E60000000000000000000000000000000000181
:100E7000000001000000000000000001010101006D
:100E8000000100000100010000010000010001005C
:100E9000010000010000000101000000000000004E
:100EA00000000000000000000000000000080B002F
:100EB00002020200000904000001020200000524F1
:100EC0000010010524010101042402060524060086
:100ED000010705810310004009040100020A000017
:100EE00000070502024000000705830240000004DD
:100EF00003090412010002EF020140412336800081
:100F0000010102030141726475696E6F204C4C430C
:100F10000041726475626F790000CF1111241FBE09
:100F2000CFEFDAE0DEBFCDBF11E0A0E0B1E0E2E458
:100F3000FFE202C005900D92A23CB107D9F726E06E
:100F4000A2ECB1E001C01D92A935B207E1F717E0AC
:100F5000CEE8D7E004C02197FE010E949917CD3852
:100F6000D107C9F70E940C120C949F170C94000033
:100F7000EEEEF1E0A0E0B8E000800EBC8111012CA3
:100F80001197A0FDFDCF0192B9F70DB4089580E04F
:100F90000C94B80790E0EEEEF1E091119FEF8FEF27
:100FA00091939193919391938150D0F7E2E4F6E07D
:100FB000128A118A108A1786089590914C069823F8
:100FC00029F090914B06982381E009F080E0089584
:100FD000FC018091ED01882311F13FB7F89482E084
:100FE0008093E9002091F200822F90E018161906F4
:100FF00014F481E090E0882339F0289844E6409387
:10100000EC014091F1004083222339F02091F2005D
:10101000211103C02BE62093E8003FBF08958FEF16
:101020009FEF08952FB7F89483E08093E9009091A3
:10103000E800892F807295FF04C09091F20080E44F
:10104000891B2FBF08958091E40181110DC082E0BA
:101050008093E00184E08093E1011092E30110921B
:10106000E20181E08093E40180EE91E00895CF9366
:10107000DF931F92CDB7DEB76983DC01ED91FC9160
:101080000280F381E02D41E050E0BE016F5F7F4FB1
:1010900009950F90DF91CF91089583E08093E90047
:1010A0008091F200882319F08AE38093E800089584
:1010B0000E94120890E00895CF93DF931F92CDB75E
:1010C000DEB7FC018485958597FD08C02FEF3FEFC3
:1010D000358724870F90DF91CF910895CE01019637
:1010E0000E94E807019719F4898190E0F3CF8FEF10
:1010F0009FEFF0CF0F931F93CF93DF931F92CDB746
:10110000DEB78C01FC018485958597FF0BC0CE016D
:1011100001960E94E807019771F4898190E0F80137
:1011200095878487F801848595850F90DF91CF910D
:101130001F910F9108958FEF9FEFF1CFFC018485F0
:10114000958597FD0BC09FB7F89482E08093E900E6
:101150008091F2009FBF90E0019608959FB7F894A8
:1011600082E08093E9008091F2009FBF90E00895B3
:101170004091DA015091DB012091D8013091D901E1
:1011800042175307B4F49091E8009570E1F3909101
:10119000E80092FD19C08093F1008091DA019091EE
:1011A000DB0101968F739927892B19F48EEF8093B9
:1011B000E8008091DA019091DB0101969093DB01C8
:1011C0008093DA0181E0089580E00895DF92EF9244
:1011D000FF920F931F93CF93DF93D82E8A01EB01D9
:1011E0007B01E40EF51ECE15DF0559F0D7FE12C0C7
:1011F000FE0184910E94B80821968111F4CF0FEF6F
:101200001FEFC801DF91CF911F910F91FF90EF90D9
:10121000DF9008958881EECF0F931F93CF93DF93D4
:101220001F92CDB7DEB782E0898342E450E06DEAD9
:101230007EE080E80E94E6080E942308DC01129606
:101240000D911C910115110589F0D801ED91FC91CA
:101250000280F381E02DBE016F5F7F4FC8010995C9
:1012600097FD04C0F80100851185ECCF89810F90AE
:10127000DF91CF911F910F910895615030F020912F
:10128000F100FC0120830196F8CF289884E6809332
:10129000EC0108950895AF92BF92CF92DF92EF9242
:1012A000FF920F931F93CF93DF936C017B018B0110
:1012B000040F151FEB015E01AE18BF08C017D10760
:1012C00059F06991D601ED91FC910190F081E02DEA
:1012D000C6010995892B79F7C501DF91CF911F913F
:1012E0000F91FF90EF90DF90CF90BF90AF90089557
:1012F000FC010E940F0A319728F068517C4F8F4FF4
:101300009F4FF9CFAB01FC010E940F0A64177507CC
:101310008E079F07C8F308958F929F92AF92BF9256
:10132000CF92DF92EF92FF920F931F93CF93DF93B1
:101330006C017B018A0180911101882309F45AC054
:101340008091ED01882309F455C08091DF0180FF71
:1013500005C08091E00082608093E000E801B12C3C
:101360008AEFA82E93E0892E2AE3922E209711F47B
:10137000BB20C9F10E941208811108C0AA94AA20BA
:10138000C9F181E090E00E947809F0CF8C171D062A
:1013900011F00CF08C2F9FB7F8948092E900209107
:1013A000E80025FD02C09FBFE1CF282F30E0C21B1F
:1013B000D30BF701815020F041914093F100FACF17
:1013C000E20EF31EBB2021F09092E800B12CEBCF8F
:1013D0008091E80085FDE7CF9092E800BB24B394AC
:1013E000209709F3F3CF5D9884E68093DE01101611
:1013F00011063CF081E090E0F6019383828310E0D7
:1014000000E0C801DF91CF911F910F91FF90EF9005
:10141000DF90CF90BF90AF909F908F900895AAECEF
:10142000B1E02FB7F8947D918D919C9166B52FBF57
:10143000A89B05C06F3F18F47F5F8F4F9F4F22E03E
:10144000660F771F881F991F2A95D1F70895AB0162
:10145000FC010E940F0A41505109E109F10928F0ED
:1014600068517C4F8F4F9F4FF6CFAB01FC010E941C
:101470000F0A641775078E079F07C8F308954F92E8
:101480005F926F927F928F929F92AF92BF92CF9214
:10149000DF92EF92FF920F931F93CF93DF934C0154
:1014A0005901FC2DC02FD0E0CE01880D991D1816D2
:1014B00019060CF06CC020E8821691040CF067C08D
:1014C0009B012E0D311D121613060CF060C0603406
:1014D00071050CF05CC04115510509F458C0E62FA8
:1014E000E770FE2EDB0177FD179633E0B595A795E3
:1014F0003A95E1F73A2F77FF04C0FF2011F03FEF54
:101500003A0F662777276819790997FC02C070E0BF
:1015100060E0803891050CF44BC090E89819961B58
:10152000A32F032E000CBB0B1A2F10953F3F0CF07E
:1015300010E021E08E2D877009F420E0E694E69417
:10154000E694E20EAE0DB11D19971CF028E0E22ED4
:10155000E31AE11A310F20E83203D0011124A80D5B
:10156000B91DA60FB71F019F600D711D1124460FF5
:10157000571F0F2D0F2C000C110BF33009F41CC159
:10158000C8F4F13009F4D0C0F23009F47CC0DF9126
:10159000CF911F910F91FF90EF90DF90CF90BF9070
:1015A000AF909F908F907F906F905F904F90089535
:1015B000902FB5CFFA3FB1F1232F2E0DFB3F39F716
:1015C000321729F3BD0162517E4FD12CC12CC916AF
:1015D00008F0A4C0FA01EC0DFD1DE491F0E04F010C
:1015E000002E02C0880C991C0A94E2F737FD06C051
:1015F000FB018081E82CE0948E218083FF2061F044
:10160000373054F45B01F0E8AF0EB11CE92CE094E4
:10161000F50180818E218083FFEFCF1ADF0A6F5F93
:101620007F4FD5CF232F2E0D321709F4B0CFBD0138
:1016300062517E4FD12CC12CC91608F069C0FA0145
:10164000EC0DFD1DE491F0E04F01002E02C0880C6E
:10165000991C0A94E2F737FD04C0FB0180818829B8
:101660008083FF2051F0373044F45B01F0E8AF0E87
:10167000B11CF501808189298083FFEFCF1ADF0A31
:101680006F5F7F4FD9CF6FEF70E00F2C02C0660FF6
:10169000771F0A94E2F760957095772E232F2E0D11
:1016A000321709F474CFFD01E251FE4F6F01B12CE6
:1016B000A12CA91638F5FA01EA0DFB1DE491F0E022
:1016C0002F01002E02C0440C551C0A94E2F737FD8E
:1016D00005C0F6018081862384298083FF2059F08C
:1016E00037304CF44601F0E88F0E911CF4018081F4
:1016F000872185298083FFEFAF1ABF0A8FEFC81AB1
:10170000D80AD7CF3F5F4C0F5D1FA058BF4FC8CF3F
:101710003F5F4C0F5D1FA058BF4F86CF3F5F4C0F00
:101720005D1FA058BF4F4CCF6A0D7B1D232F2E0D80
:10173000321709F42CCFFD01E251FE4F6F01B12C9D
:10174000A12CA91688F5FB01EA0DFB1D8490912CB4
:10175000002E02C0880C991C0A94E2F780949094A1
:10176000FA01EA0DFB1D6490712C002E02C0660C7C
:10177000771C0A94E2F737FD05C0F60180818821C5
:1017800086298083FF2049F037303CF4F601E05889
:10179000FF4F8081892187298083FFEFAF1ABF0A1D
:1017A0008FEFC81AD80ACDCF3F5F4C0F5D1F6C0F6B
:1017B0007D1FA058BF4FBCCFC92ED12CFA01E60F18
:1017C000F71FA251BE4F00E810E00C191D09CC19FB
:1017D000DD09BE01660F771F41E050E06A010F2C62
:1017E00001C0CC0C0A94EAF7592F2E2D792ECF93F5
:1017F000DF93ED01EF96EF9622968590A590FF205E
:1018000059F08C9C4001AC9C500137302CF4E8809E
:10181000B094EB20E928E99233233AF0EC90A094BD
:10182000EA20E828ED920C94160C11965A9529F7A7
:101830002A9551F0572D33951124E60FF11DA00F75
:10184000B11DC00FD11DD9CFDF91CF9111249FCEF3
:101850002D9A089590E00C9478098FB18095807F3F
:10186000669B88601C9B846008952F923F924F92E4
:101870005F926F927F928F929F92AF92BF92CF9220
:10188000DF92EF92FF920F931F93CF93DF93CDB729
:10189000DEB72B970FB6F894DEBF0FBECDBF9C838B
:1018A0008B836A3061F5DC0155968C91B8E08B9F93
:1018B00090011124EB81FC8181899289820F931F11
:1018C000928B818B108A178681E090E02B960FB661
:1018D000F894DEBF0FBECDBFDF91CF911F910F9166
:1018E000FF90EF90DF90CF90BF90AF909F908F9040
:1018F0007F906F905F904F903F902F9008956D3044
:1019000019F3AB81BC8155969C90559754965C9089
:1019100054975D8253964C9053975196ED90FC905E
:1019200052971F968D919C91092D10E0803891055A
:101930000CF084C020E4E216F1040CF07FC0E5E076
:101940009C019E9E200D311D1124121613060CF0D1
:1019500075C09801F3E0220F331FFA95E1F72E0DC1
:101960003F1D121613060CF069C06E9FF001112482
:10197000BF0162517B4F7F836E83AC01712CEE817E
:10198000FF812491F5E07F1201C020E0670178E03B
:10199000672E222E312C842C20FF8D80811004C0D4
:1019A0005D80541409F437C09A012983622F641BA7
:1019B000691508F030C01B861A866A85691540F5DE
:1019C00020383105F0F4AA84BB84AC0CBD1C70E453
:1019D000A716B104B0F4F50170E1598061E0E1FDB2
:1019E00064E0E0FD660FE2FD6295E87F7E9FD00136
:1019F0001124A50DA251BE4F0C90062A80FE06268A
:101A00000C926A857B856F5F7F4F7B876A87D5CF16
:101A10002F5F3F4FCACF9101359527956A94C00E2D
:101A2000D11E6110B6CF7394EE81FF813196FF8392
:101A3000EE83400F511FF6E07F12A1CF26E0929E69
:101A4000800D911D1124AB81BC8150969C938E9387
:101A50001F9756962C915697222309F435CF4AEFBB
:101A600040039001419F300D112420583F4F28170B
:101A700039070CF029CFCD01ED91FC910190F08157
:101A8000E02D6AE0099520CF0895089590E080E068
:101A90000895CF92EF920F938091D501803118F481
:101AA0008F5F8093D5012091D50160913E067091A2
:101AB0003F068091400690914106ECEAF0E00491E7
:101AC000EDEAF0E0E4904EEA50E02223F9F0E1E0A4
:101AD000F0E03E2D377011F4F0E0E0E04E2D469539
:101AE000469546954E0F5F2F511D049FF001059FAF
:101AF000F00D112430E0220F331FE29FA001E39F7D
:101B0000500DF29F500D112442555F4F23E0C22E1D
:101B100030E020E00E943F0A0F91EF90CF900895AF
:101B2000FC0101900020E9F73197AF01481B590BE8
:101B3000BC0182E496E00C944B098F929F92AF9285
:101B4000BF920F931F93CF93DF93CDB7DEB7A197CB
:101B50000FB6F894DEBF0FBECDBF19A2423008F415
:101B60004AE08E010F5D1F4F842E912CB12CA12CC9
:101B7000A50194010E946817E62FB901CA01EA3055
:101B8000F4F4E05DD801EE938D01232B242B252B5B
:101B900079F790E080E0109719F0CD010E94900D48
:101BA000A1960FB6F894DEBF0FBECDBFDF91CF91E7
:101BB0001F910F91BF90AF909F908F900895E95C17
:101BC000E1CFCF92DF92EF92FF92CF93DF936B0141
:101BD0007C016DE282E496E00E94350CEC01662700
:101BE0007727CB016C197D098E099F094AE00E9475
:101BF0009D0D8C0F9D1FDF91CF91FF90EF90DF9097
:101C0000CF900895CF93DF930E94900DEC0183E471
:101C100091E00E94900D8C0F9D1FDF91CF91089550
:101C20000E94CA0710925206109251061092540652
:101C30001092530686E491E00E94900D0E94C7071F
:101C400068EE73E080E090E00E94270A0E942D0C6D
:101C50008C708C3029F064E670E080E090E0F4CF86
:101C60001092D7011092D6010895BC01990F880BEC
:101C7000990B97FD0C94E10D4AE00C949D0D0F9388
:101C80001F93CF93DF93C2E4D6E00BE410E0188BF0
:101C90000F871A8A198A8BE591E00E94900D809136
:101CA0000401909105010E94350E188B0F8787E380
:101CB00090E09A8B898B83E691E00E94900D809151
:101CC000D2019091D3010E94350EDF91CF911F91E7
:101CD0000F910C94C7070C9420171F920F920FB608
:101CE0000F9211248F939F938091E1009091E100D6
:101CF000937F9093E10083FF0FC01092E90091E081
:101D00009093EB001092EC0092E39093ED00109210
:101D1000ED0198E09093F00082FF22C093E0909351
:101D2000E9009091F200992319F09AE39093E8006A
:101D30009091DE01992341F09091DE0191509093B2
:101D4000DE01911101C05D9A9091EC01992341F05F
:101D50009091EC0191509093EC01911101C0289A5F
:101D600084FF18C08091E2008E7E81608093E20043
:101D70008091E1008F7E8093E1008091DF018E7E73
:101D800080618093DF019F918F910F900FBE0F9024
:101D90001F90189580FFF7CF8091E2008E7E8061C2
:101DA0008093E2008091E1008E7E8093E10080913B
:101DB000DF018E7E8160E5CF1F920F920FB60F92EA
:101DC0001124CF92DF92EF92FF920F931F932F93E4
:101DD0003F934F935F936F937F938F939F93AF93B3
:101DE000BF93EF93FF93CF93DF93CDB7DEB76C979D
:101DF000DEBFCDBF1092E9008091E80083FF25C0CF
:101E000068E0CE0145960E943D0982EF8093E8008C
:101E10008D8987FF39C09091E80090FFFCCF982F03
:101E2000907609F034C19E894F89588D2F89F88C9E
:101E3000911131C0803861F58091DD018093F1000E
:101E40001092F1008EEF8093E8006C960FB6F89434
:101E5000DEBF0FBECDBFDF91CF91FF91EF91BF915C
:101E6000AF919F918F917F916F915F914F913F9132
:101E70002F911F910F91FF90EF90DF90CF900F90D7
:101E80000FBE0F901F9018959EEF9093E800C7CF5C
:101E90001092F100D5CF913059F48111D3CF413058
:101EA000510581F68091DD018D7F8093DD01CACFE0
:101EB000933049F48111C6CF4130510519F6809114
:101EC000DD018260F2CF953041F48091E80080FF1F
:101ED000FCCF20682093E300B5CF963009F0A9C06D
:101EE0000B8D1C8D22E01092E9001092DB01109204
:101EF000DA01F2122EC01092D9011092D8010E947C
:101F00000C091F8299E09983FA8291E09E8390EAFE
:101F100098879AEF99872091DA013091DB01275F4A
:101F20003F4F3C832B838D831092E9001092DB019D
:101F30001092DA011093D9010093D80149E050E0E2
:101F4000BE016F5F7F4F80E00E94E6080E940C098F
:101F500079CF1093D9010093D8010E942308DC01A6
:101F600012960D911C910115110509F451C1D8016A
:101F7000ED91FC910480F581E02DBE016B5E7F4FF9
:101F8000C8010995009709F03EC1F8010085118547
:101F9000EACFF3E0FF120EC08F89882309F440C016
:101FA000823061F440E867E081E19FE00E945811CF
:101FB000811148CF81E28093EB0047CF813029F433
:101FC00040E86BE085E09FE0F1CF833099F70E9415
:101FD0002308DC011296ED90FC908E010F5F1F4FDD
:101FE0006801E114F10479F0D701ED91FC910680CC
:101FF000F781E02DB801C7010995080F111DF70100
:10200000E084F184EECFD8011C92F601019000200B
:10201000E9F73197BF016C197D0940E0C601C6CFD1
:102020006FEE7EE0FB01449150E080E80E94E608FC
:1020300009CF973009F4BECF983021F481E0809326
:10204000F10000CF993009F0FDCE837009F0B2CFD6
:10205000E7E1F1E081E031E096E32191222371F0A4
:102060008093E9003093EB00DF0111972C912093CE
:10207000EC009093ED008F5F873079F78EE78093C7
:10208000EA001092EA008F898093ED01DBCE8B8D00
:102090009C8D1092E9001092DB011092DA0190936E
:1020A000D9018093D801898D811192C08E899D8933
:1020B000913A49F4813209F07DCF47E050E06AE07F
:1020C00071E080E0B3CF913209F074CF833269F4CC
:1020D0008F89988DB0E0A0E080930601909307016E
:1020E000A0930801B0930901ADCE803269F48091CC
:1020F000E80082FFFCCF67E08AE091E00E943D09A2
:102100008BEF8093E8009ECE823209F09BCE8F89C0
:1021100080931101EEEFFFE7859194918B3F9C4DE9
:1021200051F1E0E0F8E080910A0190910B01A0915B
:102130000C01B0910D01803B9440A105B105F1F473
:102140008091110180FD1AC0EE3F8AE0F80789F501
:1021500087E797E791838083809160008093DC011B
:1021600088E19BE00FB6F894A895809360000FBEBD
:102170009093600067CEEEEFFAE0D5CF8081918139
:102180008737974709F05ECEA895809160008861F7
:10219000809360008091DC0180936000EE3F2AE034
:1021A000F20789F08091FE0A9091FF0A9183808363
:1021B00049CE808191818737980751F29093FF0A29
:1021C0008093FE0AC5CF1092FF0A1092FE0A3ACE03
:1021D0000E942308DC0112960D911C910115110536
:1021E00009F4E8CED801ED91FC910190F081E02D49
:1021F000BE016B5E7F4FC8010995811123CEF801A6
:1022000000851185EBCF181619060CF41BCED2CE23
:10221000F1E0FF12BECE63EF7EE004CF0F920FB667
:102220008F939F93EF93FF938091C9018D5F8D37BB
:1022300008F08D578093C901EEECF1E080818E4F5C
:10224000808391819F4F918382818F4F828383818D
:102250008F4F8383EAECF1E080818F5F80838181FF
:102260008F4F818382818F4F828383818F4F8383BE
:102270008FB18F6066991C9B88278F3681F480917F
:10228000C801981B963068F0E0E0F8E087E78083AB
:10229000818388E180936000F0936000FFCF90938A
:1022A000C801FF91EF919F918F910FBE0F901895EC
:1022B000EF92FF920F931F93CF93DF93F82E192F76
:1022C000E62E042F81E0860F880F0E94B80883E075
:1022D0000E94B808CF2DD12FEC0EFD2EF11CCE158B
:1022E000DF05B9F007FF13C0FE0184910E94B80812
:1022F000182F80E00E94B808812321968111EFCF2A
:10230000DF91CF911F910F91FF90EF9008958881F9
:10231000EDCF81E0F5CF0F931F93CF93DF938C0127
:1023200081E090E00E946B0E80FF31C08AE090E077
:102330000E946B0E9FEF980F9E3F48F522E330E01E
:10234000D80150963C932E931F9728E330E0529685
:102350003C932E935197CBE0D0E0D801ED91FC91C6
:102360000190F081E02D682FC8010995CE010E94EF
:102370006B0E2196C131D10581F70E94C70788EE07
:1023800093E0DF91CF911F910F910C947809DF9129
:10239000CF911F910F91089504970C948B11EEEE3D
:1023A000F5E01382128288EE93E0A0E0B0E084832F
:1023B0009583A683B78381E291E0918380838FEF39
:1023C0009FEF95878487E2E4F6E0138212821186FC
:1023D000128680E1838710861782158683E391E059
:1023E0009183808381E491E095838483108A1786AA
:1023F000128A118A81E0838B148A858B168A8AE17E
:1024000090E0909341068093400688E190E090939D
:102410003F0680933E060895789483E084BD83E070
:1024200085BD81E080936E00E1E8F0E083E0808389
:10243000E0E881E08083E1E983E08083E0E981E016
:102440008083E1EC87E08083E3EC81E08083E0EC53
:1024500082E08083E2EC81E08083EAE787E08083AA
:10246000806880831092ED011092DD011092DF01EF
:102470008091D70081608093D70080EA8093D80054
:1024800089B5806189BD89B5826089BD09B400FEC6
:10249000FDCF81E090E00E9478098091D8008F7C88
:1024A00080618093D8008091E000807F8093E0007D
:1024B0008091E1008E7E8093E1008DE08093E200C8
:1024C000559A209A81EC80937C0081EF85B987EE44
:1024D00084B982E38BB982EF8AB9769A6E9880EFDD
:1024E00081BB10BA80E58CBD81E08DBD85E00E9486
:1024F0002A0C5F9A85E00E942A0C5C98EEE9FAE0CB
:1025000085918EBD00000DB407FEFDCFEB3AC1F7FB
:102510005C9A81E88093640081E0809365000E946A
:10252000B8070E942D0C87FF15C05C9885EA8EBD08
:1025300000000DB407FEFDCF5C9A2E982F982D98C1
:102540008091640080628093640081E083BF8895FD
:1025500013BEFCCF0E942D0C82FF45C02D980E9417
:102560002D0C84788438D9F40E94280C88EC0E94C1
:102570002A0C2F9882E090E00E9420178F3F29F0CC
:102580006FEF82E090E00E94281784EF91E00E94B4
:1025900078092F9A0E942D0C84788438D9F30E94F0
:1025A0002D0C84718431D9F40E94280C88EC0E948F
:1025B0002A0C2E9882E090E00E942017882329F0B0
:1025C00060E082E090E00E94281784EF91E00E9492
:1025D00078092E9A0E942D0C84718431D9F388ECED
:1025E0000E942A0CB7CF0E94280C82E090E00E9443
:1025F0006B0E882309F444C03E9A3F9A81E090E034
:102600000E946B0E082F0470F02E81FF0CC0011188
:102610002E98C1EFDFEF0E942D0C86FF34C02E9A5A
:102620002F9A0E94280C82E30E942A0C0E942D0CF3
:102630008111F9CF80E180934D060E94C7070E9467
:10264000CA07A4E08A2E912CA12CB12CB9E14B2E03
:10265000512C9091CE0180914E06F92FF81B8F2FAF
:1026600020914F06222309F47FC0F0935006109268
:102670004F0680E090E0892B61F30E940000E9CFD3
:102680003E983F98BBCFFF2029F0C430D10511F40C
:102690002E9A2F9881E00E94B8071C2F1770B12E38
:1026A0009E0113E0359527951A95E1F7C901969596
:1026B000982F88279795879582519E4F10E000E0CC
:1026C0002E3F4FEF340771F1BC016C567F4FDC0198
:1026D00050E040E0F801E251F64F6F01F601E40FDF
:1026E000F51FE491F0E04F010B2C02C0880C991CFF
:1026F0000A94E2F72F3F320739F05496EC90549742
:10270000E8285496EC925497BB2021F0FB01E0801E
:10271000E928E0824F5F5F4F6F5F7F4F119648352A
:102720005105E1F62F5F3F4F80589F4F085A1F4FCA
:10273000003B110529F60E94C7078FE00E942A0C72
:102740002196C931D10509F066CFFF2011F02F9AEB
:102750002D9880E991E00E9478090E94280C82E47B
:1027600096E00E948B115FCF20914D06F21748F43E
:102770008F5F821708F07DCF81E083BF889513BEFD
:1027800078CF81E080934F0690934E06E9E4F6E01F
:102790008081918101968083918380914B06809303
:1027A0004C060E942D0C80934B060E94CA07C091D4
:1027B000D601D091D701C130D10509F490C02CF4D5
:1027C000CD2B11F10E94C70754CFC230D10509F4B7
:1027D0007CC22397B9F710925206109251061092BC
:1027E0005406109253068CEB91E00E94900D80915C
:1027F0004C0683FDE7CF80914B0683FFE3CF109219
:10280000D7011092D601DECF1092520610925106D7
:102810001092540610925306EBEAFAE00491ECEAA7
:10282000FAE0E490F2E0CF2E30E020E04DEA5AE00A
:1028300070E060E090E080E00E943F0A0E942D0C72
:102840008C708C3009F0BECF81E090E09093050150
:102850008093040122E030E03093030120930201D1
:102860001092D3011092D201909301018093000144
:10287000809164008E7F8093640080917A008064F0
:1028800080937A0080917A0086FDFCCFC091780019
:10289000D09179000E940F0AAB01BC01CE01B0E0DB
:1028A000A0E0DC01992788278C019D01040F151FEA
:1028B000261F371FC901B8012091640021602093B1
:1028C0006400611571058105910511F00E941717CB
:1028D00081E090E09093D7018093D60173CF10925E
:1028E00052061092510610925406109253068BE62F
:1028F00091E00E94900D0E94CA07D0930501C093F9
:102900000401DCE000E410E038E0732E44E0642EC3
:10291000C0E18091040190910501C3970CF0C8C1FA
:10292000F12CE12C80910401909105018E159F05F9
:102930000CF468C00E94C816A50194010E943617C5
:102940006115710519F50E94C816A50194010E9430
:1029500036176330C1F06093D5010E94490D0E9483
:102960003F0E80ED97E00E947809C093D5010E9448
:10297000490D0E943F0E8CE291E00E9478092FEFF2
:10298000E21AF20ACFCF1092D501E7CF613071057C
:1029900099F40E94C816A50194010E943617DC0123
:1029A000CB010496A11DB11D873019F08093D5018C
:1029B000D4CF6092D501D1CF6230710581F40E94ED
:1029C000C816A50194010E943617DC01CB010896B8
:1029D000A11DB11D8B3051F77092D501BECF633070
:1029E000710569F60E94C816A50194010E94361768
:1029F000DC01CB010C96A11DB11D8F30B9F6D0932F
:102A0000D501ABCF23E0C22ED12CE12CF12C332405
:102A100033940E94CA075092520640925106509237
:102A200054064092530680E791E00E94020E3092D5
:102A300057068DE791E00E94020E8CE390E09093A0
:102A4000520680935106E3E2F0E0F0935406E093DF
:102A50005306309257064AE0C701B6010E949D0D09
:102A6000309257060E943F0E84EF91E00E94780951
:102A7000F1E0CF1AD108E108F10859F60E94CA071F
:102A800082E080935706109352060093510680E22D
:102A900090E090935406809353068AE891E00E9458
:102AA000900D0E94C70784EF91E00E9478090E9470
:102AB000CA07309257060E943F0E1092D401F12CA3
:102AC000E12C80E2C82ED12C92E0392E22242394CE
:102AD00080914B0680934C060E942D0C80934B06F0
:102AE0000E942D0C84788438F1F40E94CA07109358
:102AF000520600935106D0925406C092530630926B
:102B000057068FE891E00E94020E209257068BE94B
:102B100091E00E94020E0E94C70784EF91E00E949C
:102B200078090E94100E80E10E94DD07882321F1C0
:102B30000E94C816A50194010E943617633091F1D6
:102B40006093D5010E94490D0E943F0E84EF91E0F1
:102B50000E947809C093D5010E94490D2FEFE21A17
:102B6000F20A8091D2019091D30101969093D30102
:102B70008093D2010E943F0E80E80E94DD078823E7
:102B800009F461C00E94C816A50194010E9436177D
:102B9000DC01CB010496A11DB11D873031F080937B
:102BA000D50105C01092D501CDCF6092D5010E940C
:102BB000490D0E943F0E84EF91E00E947809C09376
:102BC000D5010E94490D809100019091010101976A
:102BD000909301018093000181E08093D401809162
:102BE000D401882399F080910201909103012091F2
:102BF00004013091050121503109309305012093E2
:102C000004010197909303018093020180910401D4
:102C100090910501019690930501809304018091A4
:102C200002019091030101969093030180930201A8
:102C30008091000190910101181619060CF469CEDB
:102C40000E94100E61CE80E40E94DD07882389F087
:102C50000E94C816A50194010E943617DC01CB0121
:102C60000896A11DB11D8B3009F099CF7092D50146
:102C70009ECF80E20E94DD07882389F00E94C8165B
:102C8000A50194010E943617DC01CB010C96A11D11
:102C9000B11D8F3009F083CFD093D50188CF8091BB
:102CA000020190910301E816F9060CF411CF97CFB9
:102CB0000E94C70780914C0683FD84CD80914B060E
:102CC00083FF80CD82E090E005CE109252061092F4
:102CD0005106109254061092530687EB91E00E9421
:102CE000900D80914C0683FD6DCD80914B0683FF46
:102CF00069CD83E090E0EECD8F929F92AF92BF922C
:102D0000CF92DF92EF92FF92CF93DF93EC01688135
:102D100079818A819B81611571058105910521F475
:102D200064E279ED8BE597E02DE133EF41E050E08F
:102D30000E94361749015A019B01AC01A7EAB1E490
:102D40000E9455176B017C01ACEEB4EFA501940114
:102D50000E946317C60ED71EE81EF91EF7FE06C0B6
:102D600081E0C81AD108E10880E8F80AC882D9824F
:102D7000EA82FB82C701B6019F77DF91CF91FF9076
:102D8000EF90DF90CF90BF90AF909F908F9008957D
:102D90008F929F92AF92BF92CF92DF92EF92FF926B
:102DA00060911201709113018091140190911501AD
:102DB000611571058105910521F464E279ED8BE5DA
:102DC00097E02DE133EF41E050E00E9436174901D2
:102DD0005A019B01AC01A7EAB1E40E9455176B01AF
:102DE0007C01ACEEB4EFA50194010E946317C60EFE
:102DF000D71EE81EF91EF7FE06C081E0C81AD108EA
:102E0000E10880E8F80AC0921201D0921301E09222
:102E10001401F0921501C701B6019F77FF90EF9062
:102E2000DF90CF90BF90AF909F908F900895609368
:102E3000120170931301809314019093150108956A
:102E4000F999FECF92BD81BDF89A992780B5089572
:102E5000262FF999FECF1FBA92BD81BD20BD0FB6B6
:102E6000F894FA9AF99A0FBE01960895052E97FBE9
:102E70001EF400940E944D1757FD07D00E9468175A
:102E800007FC03D04EF40C944D17509540953095A7
:102E900021953F4F4F4F5F4F0895909580957095C6
:102EA00061957F4F8F4F9F4F08950E948A17A59F6E
:102EB000900DB49F900DA49F800D911D1124089535
:102EC000B7FF0C9455170E945517821B930B08955A
:102ED000A1E21A2EAA1BBB1BFD010DC0AA1FBB1F1E
:102EE000EE1FFF1FA217B307E407F50720F0A21B90
:102EF000B30BE40BF50B661F771F881F991F1A94FD
:102F000069F760957095809590959B01AC01BD0126
:102F1000CF010895A29FB001B39FC001A39F700D80
:102F2000811D1124911DB29F700D811D1124911DD1
:102F30000895EE0FFF1F0590F491E02D0994F89489
:022F4000FFCFC1
:102F4200010001000100FFFFFFFF00E1000000009F
:102F520000000100000000C18081000000000000AC
:102F62000037088C0958084D089E085C087A08004A
:102F7200000000350C4B09460D450D8B11FCFF007E
:102F820000CC110D0A0050726573732041202B2072
:102F92004220746F20526573657400526F756E64BF
:102FA2003A200053636F72653A200047616D6500F5
:102FB20051756167676F6E2073617973006765741D
:102FC2002052656164792E2E2E00434F4F210070EE
:102FD2006C6561736520776169740051756167671B
:102FE2006F6E7320726573736574696E672074689F
:102FF200652067616D65004F7665720053636F727D
:02300200650067
:00000001FF
