:100000000C94EE0D0C94160E0C94160E0C94160E09
:100010000C94160E0C94160E0C94160E0C94160ED0
:100020000C94160E0C94160E0C94D4140C944315C8
:100030000C94160E0C94160E0C94160E0C94160EB0
:100040000C94160E0C94160E0C94160E0C94160EA0
:100050000C94160E0C94160E0C94160E0C94751728
:100060000C94160E0C94160E0C94160E0C94160E80
:100070000C94160E0C94160E0C94160E0C94160E70
:100080000C94160E0C94160E0C94160E0C94160E60
:100090000C94160E0C94160E0C94160E0C94160E50
:1000A0000C94160E0C94160E0C94160E20203C3C4C
:1000B0003C3C3C3C3C3C0F0F0F0FC3C3C3C3F3F3AA
:1000C000F3F33FFF3FFFFFFFFFFF0CFC0CFCFCFCCA
:1000D000FCFC3CFC3CFC3CFC3CFCF0F0F0F0C0C008
:1000E000C0C0000000000000000000000000000090
:1000F00000003C3C3C3CF3FFF3FF30FF30FF0FFFC0
:100100000FFF3CFF3CFF0FFF0FFF0CFF0CFF0CFF2E
:100110000CFF0FFF0FFF3CFF3CFF0FFF0FFF30FFF7
:1001200030FFF3FFF3FF3C3C3C3C000000000000CC
:1001300000003F3F3F3FC0FFC0FF03FF03FFFCFF46
:10014000FCFF03FF03FF0CFF0CFFCCFFCCFFCCFF39
:10015000CCFF0CFF0CFF03FF03FFFCFFFCFF03FFC2
:1001600003FFC0FFC0FF3F3F3F3F00000000000013
:100170000000000000003C3C3C3CC3FFC3FFCCFF40
:10018000CCFF303F303F333F333F0F0F0F0F0F0F88
:100190000F0F333F333F303F303FCCFFCCFFC3FF27
:1001A000C3FF3C3C3C3C00000000000000000F0F7F
:1001B0000F0F03030303C3C3C3C333F333F3FFFFBF
:1001C000FFFF0FFF0FFFFFFFFFFF03FF03FF3FFFD7
:1001D0003FFFCFFFCFFF0FFF0FFFFCFCFCFC30F019
:1001E00030F0C0C0C0C000000000000000000000EF
:1001F00000000F0F0F0FFCFFFCFFCCFFCCFF03FF35
:1002000003FFCFFFCFFF03FF03FF03FF03FF03FF46
:1002100003FF03FF03FFCFFFCFFF03FF03FFCCFF6D
:10022000CCFF3CFF3CFFCFCFCFCF00000000000051
:1002300000000F0F0F0F303F303FF0FFF0FF3FFF88
:100240003FFF00FF00FFC3FFC3FFF3FFF3FFF3FF18
:10025000F3FFC3FFC3FF00FF00FF3FFF3FFFC0FFEF
:10026000C0FF303F303F0F0F0F0F000000000000B5
:100270000000000000000F0F0F0F303F303F333FF2
:10028000333F0C0F0C0F0C0F0C0F0303030303037E
:1002900003030C0F0C0F3C3F3C3FC3FFC3FFC0FFE9
:1002A000C0FF3F3F3F3F00000000000000003F3F15
:1002B0003F3F0F0F0F0F03030303C3C3C3C3F3F386
:1002C000F3F33FFF3FFFFFFFFFFF0CFC0CFCFCFCC8
:1002D000FCFC3CFC3CFC3CFC3CFCF0F0F0F0C0C006
:1002E000C0C000000000000000000000000000008E
:1002F00000003C3C3C3CF3FFF3FF30FF30FF0FFFBE
:100300000FFF3CFF3CFF0FFF0FFF0CFF0CFF0CFF2C
:100310000CFF0FFF0FFF3CFF3CFF0FFF0FFF30FFF5
:1003200030FFF3FFF3FF3C3C3C3C000000000000CA
:1003300000003F3F3F3FC0FFC0FF03FF03FFFCFF44
:10034000FCFF03FF03FF0CFF0CFFCCFFCCFFCCFF37
:10035000CCFF0CFF0CFF03FF03FFFCFFFCFF03FFC0
:1003600003FFC0FFC0FF3F3F3F3F00000000000011
:100370000000000000003C3C3C3CC3FFC3FFCCFF3E
:10038000CCFF303F303F333F333F0F0F0F0F0F0F86
:100390000F0F333F333F303F303FCCFFCCFFC3FF25
:1003A000C3FF3C3C3C3C0000000000000000030395
:1003B000030303030303C3C3C3C330F030F0FCFCE7
:1003C000FCFC0FFF0FFFFFFFFFFF03FF03FF3FFFDB
:1003D0003FFFCFFFCFFF0FFF0FFFFCFCFCFC30F017
:1003E00030F0C0C0C0C000000000000000000000ED
:1003F0000000CFCFCFCF3CFF3CFFCCFFCCFF03FFB3
:1004000003FFCFFFCFFF03FF03FF03FF03FF03FF44
:1004100003FF03FF03FFCFFFCFFF03FF03FFCCFF6B
:10042000CCFFFCFFFCFF0F0F0F0F000000000000CF
:1004300000000F0F0F0F303F303FC0FFC0FF3FFFE6
:100440003FFF00FF00FFC3FFC3FFF3FFF3FFF3FF16
:10045000F3FFC3FFC3FF00FF00FF3FFF3FFFF0FFBD
:10046000F0FF303F303F0F0F0F0F00000000000083
:100470000000000000003F3F3F3FC0FFC0FFC3FF40
:10048000C3FF3C3F3C3F0C0F0C0F0303030303036C
:1004900003030C0F0C0F0C0F0C0F333F333F303F97
:1004A000303F0F0F0F0F00000000000000000000A1
:1004B00000000000000000000000C0C0C0C0F0F05C
:1004C000F0F03CFC3CFC3CFC3CFCFCFCFCFC0CFC74
:1004D0000CFCFFFFFFFF3FFF3FFFF3F3F3F3C3C34A
:1004E000C3C30F0F0F0F3C3C3C3C3C3C3C3C00006A
:1004F00000003C3C3C3CF3FFF3FF30FF30FF0FFFBC
:100500000FFF0CFF0CFF0FFF0FFF0CFF0CFF0CFF8A
:100510000CFF0FFF0FFF0CFF0CFF0FFF0FFF30FF53
:1005200030FFF3FFF3FF3C3C3C3C000000000000C8
:1005300000003F3F3F3FC0FFC0FF03FF03FFFCFF42
:10054000FCFF0CFF0CFFCCFFCCFF0CFF0CFF0CFFE3
:100550000CFFCCFFCCFF0CFF0CFFFCFFFCFF03FFEC
:1005600003FFC0FFC0FF3F3F3F3F0000000000000F
:100570000000000000003C3C3C3CC3FFC3FFCCFF3C
:10058000CCFF303F303F333F333F0F0F0F0F0F0F84
:100590000F0F333F333F303F303FCCFFCCFFC3FF23
:1005A000C3FF3C3C3C3C0000000000000000000099
:1005B000000000000000C0C0C0C030F030F0FCFC03
:1005C000FCFC0FFF0FFFCFFFCFFF3FFF3FFF03FFFD
:1005D00003FFFFFFFFFF0FFF0FFFFFFFFFFF33F3DF
:1005E00033F3C3C3C3C3030303030F0F0F0F000091
:1005F00000000F0F0F0FFCFFFCFFCCFFCCFF03FF31
:1006000003FF03FF03FF03FF03FF03FF03FF03FFDA
:1006100003FF03FF03FF03FF03FF03FF03FFCCFF01
:10062000CCFF3CFF3CFFCFCFCFCF0000000000004D
:1006300000000F0F0F0F303F303FF0FFF0FF3FFF84
:100640003FFF03FF03FFF3FFF3FFC3FFC3FFC3FF3E
:10065000C3FFF3FFF3FF03FF03FF3FFF3FFFC0FFB5
:10066000C0FF303F303F0F0F0F0F000000000000B1
:100670000000000000000F0F0F0F303F303F333FEE
:10068000333F0C0F0C0F0C0F0C0F0303030303037A
:1006900003030C0F0C0F3C3F3C3FC3FFC3FFC0FFE5
:1006A000C0FF3F3F3F3F000000000000000000008F
:1006B00000000000000000000000C0C0C0C0F0F05A
:1006C000F0F03CFC3CFC3CFC3CFCFCFCFCFC0CFC72
:1006D0000CFCFFFFFFFF3FFF3FFFF3F3F3F3C3C348
:1006E000C3C3030303030F0F0F0F3F3F3F3F000040
:1006F00000003C3C3C3CF3FFF3FF30FF30FF0FFFBA
:100700000FFF0CFF0CFF0FFF0FFF0CFF0CFF0CFF88
:100710000CFF0FFF0FFF0CFF0CFF0FFF0FFF30FF51
:1007200030FFF3FFF3FF3C3C3C3C000000000000C6
:1007300000003F3F3F3FC0FFC0FF03FF03FFFCFF40
:10074000FCFF0CFF0CFFCCFFCCFF0CFF0CFF0CFFE1
:100750000CFFCCFFCCFF0CFF0CFFFCFFFCFF03FFEA
:1007600003FFC0FFC0FF3F3F3F3F0000000000000D
:100770000000000000003C3C3C3CC3FFC3FFCCFF3A
:10078000CCFF303F303F333F333F0F0F0F0F0F0F82
:100790000F0F333F333F303F303FCCFFCCFFC3FF21
:1007A000C3FF3C3C3C3C0000000000000000000097
:1007B000000000000000C0C0C0C030F030F0FCFC01
:1007C000FCFC0FFF0FFFCFFFCFFF3FFF3FFF03FFFB
:1007D00003FFFFFFFFFF0FFF0FFFFCFCFCFC30F0EF
:1007E00030F0C3C3C3C303030303030303030000C5
:1007F0000000CFCFCFCF3CFF3CFFCCFFCCFF03FFAF
:1008000003FF03FF03FF03FF03FF03FF03FF03FFD8
:1008100003FF03FF03FF03FF03FF03FF03FFCCFFFF
:10082000CCFFFCFFFCFF0F0F0F0F000000000000CB
:1008300000000F0F0F0F303F303FC0FFC0FF3FFFE2
:100840003FFF03FF03FFF3FFF3FFC3FFC3FFC3FF3C
:10085000C3FFF3FFF3FF03FF03FF3FFF3FFFF0FF83
:10086000F0FF303F303F0F0F0F0F0000000000007F
:100870000000000000003F3F3F3FC0FFC0FFC3FF3C
:10088000C3FF3C3F3C3F0C0F0C0F03030303030368
:1008900003030C0F0C0F0C0F0C0F333F333F303F93
:1008A000303F0F0F0F0F00000000000000003C3C25
:1008B0003C3C3C3C3C3C0F0F0F0FC3C3C3C3F3F3A2
:1008C000F3F33FFF3FFFFFFFFFFF0CFC0CFCFCFCC2
:1008D000FCFC3CFC3CFC3CFC3CFCF0F0F0F0C0C000
:1008E000C0C0000000000000000000000000000088
:1008F00000003C3C3C3CF3FFF3FF30FF30FF0FFFB8
:100900000FFF0CFF0CFF0FFF0FFF0CFF0CFF0CFF86
:100910000CFF0FFF0FFF0CFF0CFF0FFF0FFF30FF4F
:1009200030FFF3FFF3FF3C3C3C3C000000000000C4
:1009300000000000000003030303FCFFFCFF00FFB6
:1009400000FF00FF00FF00FF00FF00FF00FFC0FFEF
:10095000C0FFF3FFF3FFC0FFC0FFC0FFC0FFF3FF06
:10096000F3FFC0FFC0FF3F3F3F3F00000000030315
:1009700003030C0C0C0C0F0F0F0F0F0F0F0F3C3F4E
:100980003C3FF0FFF0FFC0FFC0FFFFFFFFFF3F3F16
:100990003F3F3F3F3F3FCFFFCFFFF3FFF3FF0C0C45
:1009A0000C0C0000000000000000000000000F0F11
:1009B0000F0F0F0F0F0FC3C3C3C330F030F0FCFC99
:1009C000FCFC0FFF0FFFFFFFFFFF03FF03FF3FFFD5
:1009D0003FFFCFFFCFFF0FFF0FFFFCFCFCFC30F011
:1009E00030F0C0C0C0C000000000000000000000E7
:1009F00000000F0F0F0FFCFFFCFF0CFF0CFF03FFAD
:100A000003FF03FF03FF03FF03FF03FF03FF03FFD6
:100A100003FFC3FFC3FF03FF03FF03FF03FFCCFF7D
:100A2000CCFF3CFF3CFFCFCFCFCF00000000C0C0C9
:100A3000C0C000000000C0C0C0C0FFFFFFFF00FF3B
:100A400000FF00FF00FF00FF00FFC0FFC0FFF0FF3E
:100A5000F0FFFCFFFCFFF0FFF0FFF0FFF0FF3C3F7A
:100A60003C3F303F303F0F0F0F0F000000000000F1
:100A700000000303030303030303030303030F0F34
:100A80000F0F3C3F3C3FF0FFF0FFFFFFFFFF0F0F5A
:100A90000F0F0F0F0F0F333F333F3C3F3C3F03031C
:100AA00003030000000000000000000000003C3CC8
:100AB0003C3C3C3C3C3C0F0F0F0FC3C3C3C3F3F3A0
:100AC000F3F33FFF3FFFFFFFFFFF0CFC0CFCFCFCC0
:100AD000FCFC3CFC3CFC3CFC3CFCF0F0F0F0C0C0FE
:100AE000C0C0000000000000000000000000000086
:100AF00000003C3C3C3CF3FFF3FF30FF30FF0FFFB6
:100B00000FFF0CFF0CFF0FFF0FFF0CFF0CFF0CFF84
:100B10000CFF0FFF0FFF0CFF0CFF0FFF0FFF30FF4D
:100B200030FFF3FFF3FF3C3C3C3C000000000000C2
:100B300000000000000003030303FCFFFCFF00FFB4
:100B400000FF00FF00FF00FF00FF00FF00FFC0FFED
:100B5000C0FFF3FFF3FFC0FFC0FFC0FFC0FFF3FF04
:100B6000F3FFC0FFC0FF3F3F3F3F00000000030313
:100B700003030C0C0C0C0F0F0F0F0F0F0F0F3C3F4C
:100B80003C3FF0FFF0FFC0FFC0FFFFFFFFFF3F3F14
:100B90003F3F3F3F3F3FCFFFCFFFF3FFF3FF0C0C43
:100BA0000C0C0000000000000000000000000F0F0F
:100BB0000F0F0F0F0F0FC3C3C3C330F030F0FCFC97
:100BC000FCFC0FFF0FFFFFFFFFFF03FF03FF3FFFD3
:100BD0003FFFCFFFCFFF0FFF0FFFFCFCFCFC30F00F
:100BE00030F0C0C0C0C000000000000000000000E5
:100BF00000000F0F0F0FFCFFFCFF0CFF0CFF03FFAB
:100C000003FF03FF03FF03FF03FF03FF03FF03FFD4
:100C100003FFC3FFC3FF03FF03FF03FF03FFCCFF7B
:100C2000CCFF3CFF3CFFCFCFCFCF00000000C0C0C7
:100C3000C0C000000000C0C0C0C0FFFFFFFF00FF39
:100C400000FF00FF00FF00FF00FFC0FFC0FFF0FF3C
:100C5000F0FFFCFFFCFFF0FFF0FFF0FFF0FF3C3F78
:100C60003C3F303F303F0F0F0F0F000000000000EF
:100C700000000303030303030303030303030F0F32
:100C80000F0F3C3F3C3F303F303F3F3F3F3F0F0F58
:100C90000F0F0F0F0F0F333F333FFCFFFCFFF3F33A
:100CA000F3F300000000000000000000000000005E
:100CB00000000000000000000000C0C0C0C0F0F054
:100CC000F0F03CFC3CFC3CFC3CFCFCFCFCFC0CFC6C
:100CD0000CFCFFFFFFFF3FFF3FFFF3F3F3F3C3C342
:100CE000C3C30F0F0F0F3C3C3C3C3C3C3C3C000062
:100CF00000003C3C3C3CF3FFF3FF30FF30FF0FFFB4
:100D00000FFF0CFF0CFF0FFF0FFF0CFF0CFF0CFF82
:100D10000CFF0FFF0FFF0CFF0CFF0FFF0FFF30FF4B
:100D200030FFF3FFF3FF3C3C3C3C000000000000C0
:100D300000003F3F3F3FC0FFC0FFF3FFF3FFC0FF96
:100D4000C0FFC0FFC0FFF3FFF3FFC0FFC0FF00FF05
:100D500000FF00FF00FF00FF00FF00FF00FFFCFF9F
:100D6000FCFF03030303000000000000000000007C
:100D7000000000000000000000000C0C0C0CF3FF51
:100D8000F3FFCFFFCFFF3F3F3F3F3F3F3F3FFFFFDF
:100D9000FFFFC0FFC0FFF0FFF0FF3C3F3C3F0F0FE5
:100DA0000F0F0F0F0F0F0C0C0C0C030303030000AD
:100DB000000000000000C0C0C0C030F030F0FCFCFB
:100DC000FCFC0FFF0FFFCFFFCFFF3FFF3FFF03FFF5
:100DD00003FFFFFFFFFF0FFF0FFFFCFCFCFC30F0E9
:100DE00030F0C3C3C3C30F0F0F0F0F0F0F0F00005F
:100DF0000000CFCFCFCF3CFF3CFFCCFFCCFF03FFA9
:100E000003FF03FF03FFC3FFC3FF03FF03FF03FF52
:100E100003FF03FF03FF03FF03FF03FF03FF0CFFB9
:100E20000CFFFCFFFCFF0F0F0F0F00000000000085
:100E300000000F0F0F0F303F303F3C3F3C3FF0FFB3
:100E4000F0FFF0FFF0FFFCFFFCFFF0FFF0FFC0FF42
:100E5000C0FF00FF00FF00FF00FF00FF00FFFFFFDB
:100E6000FFFFC0C0C0C000000000C0C0C0C0000084
:100E700000000000000000000000030303033C3FEB
:100E80003C3F333F333F0F0F0F0F0F0F0F0FFFFF8D
:100E9000FFFFF0FFF0FF3C3F3C3F0F0F0F0F03033E
:100EA0000303030303030303030300000000000024
:100EB00000000000000000000000C0C0C0C0F0F052
:100EC000F0F03CFC3CFC3CFC3CFCFCFCFCFC0CFC6A
:100ED0000CFCFFFFFFFF3FFF3FFFF3F3F3F3C3C340
:100EE000C3C30F0F0F0F3C3C3C3C3C3C3C3C000060
:100EF00000003C3C3C3CF3FFF3FF30FF30FF0FFFB2
:100F00000FFF0CFF0CFF0FFF0FFF0CFF0CFF0CFF80
:100F10000CFF0FFF0FFF0CFF0CFF0FFF0FFF30FF49
:100F200030FFF3FFF3FF3C3C3C3C000000000000BE
:100F300000003F3F3F3FC0FFC0FFF3FFF3FFC0FF94
:100F4000C0FFC0FFC0FFF3FFF3FFC0FFC0FF00FF03
:100F500000FF00FF00FF00FF00FF00FF00FFFCFF9D
:100F6000FCFF03030303000000000000000000007A
:100F7000000000000000000000000C0C0C0CF3FF4F
:100F8000F3FFCFFFCFFF3F3F3F3F3F3F3F3FFFFFDD
:100F9000FFFFC0FFC0FFF0FFF0FF3C3F3C3F0F0FE3
:100FA0000F0F0F0F0F0F0C0C0C0C030303030000AB
:100FB000000000000000C0C0C0C030F030F0FCFCF9
:100FC000FCFC0FFF0FFFCFFFCFFF3FFF3FFF03FFF3
:100FD00003FFFFFFFFFF0FFF0FFFFCFCFCFC30F0E7
:100FE00030F0C3C3C3C30F0F0F0F0F0F0F0F00005D
:100FF0000000CFCFCFCF3CFF3CFFCCFFCCFF03FFA7
:1010000003FF03FF03FFC3FFC3FF03FF03FF03FF50
:1010100003FF03FF03FF03FF03FF03FF03FF0CFFB7
:101020000CFFFCFFFCFF0F0F0F0F00000000000083
:1010300000000F0F0F0F303F303F3C3F3C3FF0FFB1
:10104000F0FFF0FFF0FFFCFFFCFFF0FFF0FFC0FF40
:10105000C0FF00FF00FF00FF00FF00FF00FFFFFFD9
:10106000FFFFC0C0C0C000000000C0C0C0C0000082
:1010700000000000000000000000F3F3F3F3FCFFA9
:10108000FCFF333F333F0F0F0F0F0F0F0F0F3F3F8B
:101090003F3F303F303F3C3F3C3F0F0F0F0F0303BC
:1010A000030303030303030303030000000000FF23
:1010B00000FF00FF00FF00FF00FF00FF00FF00FF38
:1010C00000FF00FF00FF00FF00FF00FF00FF00FF28
:1010D00000FF00FF00FF00FF00FF00FF00FF00FF18
:1010E00000FF00FF00FF00FF00FF00FF00FF00FF08
:1010F00000FF00FF00FF00FF00FF00FF00FF00FFF8
:1011000000FF00FF00FF00FF00FF00FF00FF00FFE7
:1011100000FF00FF00FF00FF00FF00FF00FF00FFD7
:1011200000FF00FF00FF00FF00FF00FF00FF00FFC7
:1011300000FF00FF00FF00FF00FF00FF00FF00FFB7
:1011400000FF00FF00FF00FF00FF00FF00FF00FFA7
:1011500000FF00FF00FF00FF00FF00FF00FF00FF97
:1011600000FF00FF00FF00FF00FF00FF00FF00FF87
:1011700000FF00FF00FF00FF00FF00FF00FF00FF77
:1011800000FF00FF00FF00FF00FF00FF00FF00FF67
:1011900000FF00FF00FF00FF00FF00FF00FF00FF57
:1011A00000FF00FF00FF00FF00FF00FF00FF000046
:1011B0000000003E5B4F5B3E3E6B4F6B3E1C3E7C37
:1011C0003E1C183C7E3C181C577D571C1C5E7F5EE5
:1011D0001C00183C1800FFE7C3E7FF0018241800A4
:1011E000FFE7DBE7FF30483A060E2629792926403B
:1011F0007F050507407F05253F5A3CE73C5A7F3E67
:101200001C1C08081C1C3E7F14227F22145F5F00F8
:101210005F5F06097F017F006689956A6060606094
:101220006094A2FFA29408047E040810207E20107F
:1012300008082A1C08081C2A08081E101010100C88
:101240001E0C1E0C30383E3830060E3E0E060000D6
:1012500000000000005F00000007000700147F147A
:101260007F14242A7F2A12231308646236495620E9
:10127000500008070300001C2241000041221C000E
:101280002A1C7F1C2A08083E0808008070300008CD
:1012900008080808000060600020100804023E51A1
:1012A00049453E00427F4000724949494621414933
:1012B0004D331814127F1027454545393C4A49499A
:1012C0003141211109073649494936464949291E04
:1012D00000001400000040340000000814224114F3
:1012E00014141414004122140802015909063E4145
:1012F0005D594E7C1211127C7F494949363E41416D
:1013000041227F4141413E7F494949417F090909C5
:10131000013E414151737F0808087F00417F410031
:101320002040413F017F081422417F404040407FE0
:10133000021C027F7F0408107F3E4141413E7F092D
:101340000909063E4151215E7F091929462649496E
:10135000493203017F01033F4040403F1F204020AE
:101360001F3F4038403F63140814630304780403AC
:101370006159494D43007F4141410204081020005A
:101380004141417F040201020440404040400003CB
:1013900007080020545478407F2844443838444497
:1013A0004428384444287F385454541800087E098F
:1013B0000218A4A49C787F0804047800447D4000AF
:1013C0002040403D007F1028440000417F40007CC9
:1013D000047804787C080404783844444438FC18C1
:1013E00024241818242418FC7C08040408485454A5
:1013F000542404043F44243C4040207C1C204020D2
:101400001C3C4030403C44281028444C9090907C38
:101410004464544C4400083641000000770000004A
:101420004136080002010204023C2623263C1EA18C
:10143000A161123A4040207A3854545559215555EB
:10144000794121545478412155547840205455799C
:10145000400C1E527212395555555939545454592D
:1014600039555454580000457C410002457D4200E6
:1014700001457C40F0292429F0F0282528F07C54EF
:101480005545002054547C547C0A097F493249490F
:1014900049323248484832324A4848303A4141217C
:1014A0007A3A42402078009DA0A07D3944444439D6
:1014B0003D4040403D3C24FF2424487E4943662B68
:1014C0002FFC2F2BFF0929F620C0887E090320540A
:1014D0005479410000447D413048484A3238404008
:1014E000227A007A0A0A727D0D19317D2629292F68
:1014F00028262929292630484D4020380808080880
:1015000008080808382F10C8ACBA2F102834FA0081
:10151000007B000008142A142222142A14089500C3
:10152000220095AA005500AAAA55AA55AA000000B3
:10153000FF00101010FF00141414FF001010FF0023
:10154000FF1010F010F0141414FC001414F700FF36
:101550000000FF00FF1414F404FC141417101F10F3
:10156000101F101F1414141F00101010F0000000A2
:10157000001F101010101F10101010F010000000AD
:10158000FF101010101010101010FF10000000FFBE
:10159000140000FF00FF00001F10170000FC04F4FF
:1015A00014141710171414F404F40000FF00F714B7
:1015B000141414141414F700F7141414171410103E
:1015C0001F101F141414F4141010F010F000001F5A
:1015D000101F0000001F14000000FC140000F01099
:1015E000F01010FF10FF141414FF141010101F003F
:1015F000000000F010FFFFFFFFFFF0F0F0F0F0FF41
:10160000FFFF0000000000FFFF0F0F0F0F0F384417
:101610004438447C2A2A3E147E02020606027E02D8
:101620007E0263554941633844443C04407E201E99
:101630002006027E020299A5E7A5991C2A492A1CC8
:101640004C7201724C304A4D4D303048784830BCB5
:10165000625A463D3E494949007E0101017E2A2ADF
:101660002A2A2A44445F444440514A444040444A60
:1016700051400000FF0103E080FF000008086B6B91
:10168000083612362436060F090F06000018180017
:1016900000001010003040FF0101001F01011E007A
:1016A000191D1712003C3C3C3C0000000000F0F803
:1016B0009C8E8783878E9CF8F00000FEFF03030357
:1016C0000303070EFCF80000FEFF030303030307F8
:1016D0000EFCF80000FFFF00000000000000FFFF0C
:1016E0000000FEFF8383838383C7EE7C380000F80D
:1016F000FC0E07030303070EFCF800003F7FE0C069
:101700008080C0E07F3FFFFF01010101010101FF77
:10171000FF0000FFFF0C0C0C0C1C3E77E3C1000027
:101720007FFFC0C0C0C0C0E0703F1F00001F3F70FF
:10173000E0C0C0C0E0703F1F00007FFFC1C1C1C159
:10174000C1E3773E1C00001F3F70E0C0C0C0E070E6
:101750003F1F000000000001FFFF01000000D5F066
:101760008D14A1C881CFD9F1AF20008040000000C6
:101770000000000000000000000000C0C0F0F0F019
:10178000F0F0F03C3C0C0CF0F0C0C0000000000099
:101790000000000000000000E0E0181818181818F9
:1017A000E0E00000F8F8000000000000F8F8000099
:1017B000E0E0181818181818E0E00000E0E0181829
:1017C0001818181860600000E0E0181818181818A9
:1017D00060600000E0E0181818181818E0E0000039
:1017E000F8F8808000000000F8F800000000000019
:1017F00000000000000000000000000000000003E6
:101800000303030F0FCFCFCCCCFFFFCFCFC0C0C09F
:10181000C0000000000000007F7F8080989860601A
:101820009F9F00007F7F8080808080807F7F00007E
:10183000FFFF060606060606FFFF00007F7F80808A
:1018400080809898787800007F7F8080808098984A
:10185000787800007F7F8080808080807F7F00009C
:10186000FFFF010106061818FFFF0000000000003E
:10187000000000000000000000C0C0F0F00C0CCF21
:10188000CFC3C3F3F330300000F0F0FCFC0000F0F5
:10189000F0C3C3CFCFCCCC0C0CF0F10101010000A0
:1018A0000101000000000101010101010000000030
:1018B0000101000000000030494948880000A1A152
:1018C000C10101C10000C00040A0A121010101012E
:1018D0000000000000000101010101010000000002
:1018E00001010000000000000101000000000000F4
:1018F00000000000000000F0F0CFCFC0C030303C4E
:101900003C0C0CCCCCCCCC0C0C0C0C0C0C0C0C0CE7
:101910000CCCCCCCCC0F0F3C3CC0C0CFCFF0F000F7
:1019200000000000000000000000000000000000B7
:101930000000000000000002020202010001020299
:101940000102000912120D00020202010000000053
:101950000000000000000000000000000000000087
:101960000000000000000000000000000000000077
:1019700000000000000000FFFF0000000000000069
:10198000003030C3C3C3C3C0C0C0C0C0C0C0C0C02B
:10199000C0C3C3C3C3C0C0303000000000FFFF009D
:1019A00000000000000000000000000000C04040F7
:1019B000C000000000000000000000000000000067
:1019C00000000000804020A02040800000000000B7
:1019D000000000008040A0A0204080000000000027
:1019E00000000000000000000000000000000000F7
:1019F00000000000000000FFFF00000000F0F00009
:101A0000000000000003030F0FFFFFFFFFFFFFFFB9
:101A1000FFFFFFFFFF0F0F000000000000F0F00FBE
:101A20000F0000000000000000000000001F020284
:101A300001001F0201000E15160012150D001215EF
:101A40000D0000003F40BF84BF403F000000020780
:101A5000020000003F40BFA49B403F000000000088
:101A60000000000000000000000000000000000076
:101A70000000000000C0C0FFFF00000000000003E5
:101A8000030C0C3C3CFCFCFFFFFFFFFFFFFFFFFFD4
:101A9000FFFFFFFFFF0F0F0000C0C03F3F0000002F
:101AA000000000000000000000000000000404FC32
:101AB00004E410E0000000000000F8040404040046
:101AC000E010E000E010E00010F01000D000E010A6
:101AD000E000F000F000E0506000000000000000B6
:101AE00000000000000000000000000000000000F6
:101AF000000F0F3F3F3333303030300C0C3C3CC0D4
:101B0000C0C0C0C0C0C0C033330F0F0F0F0F0F0FC6
:101B10000F3333C0C0C0C0C0C0C0C03F3F000000D2
:101B200000000000000000000000000000000001B4
:101B300000000100000000000000000101010100A0
:101B4000000100000100010000010000010001008F
:101B50000100000100000001010000000000000081
:101B600000000000000000000000000000080B0062
:101B70000202020000090400000102020000052424
:101B800000100105240101010424020605240600B9
:101B9000010705810310004009040100020A00004A
:101BA0000007050202400000070583024000000410
:101BB00003090412010002EF0201404123368000B4
:101BC000010102030141726475696E6F204C4C4340
:101BD0000041726475626F790000361811241FBECF
:101BE000CFEFDAE0DEBFCDBF11E0A0E0B1E0EEEE76
:101BF000FCE302C005900D92A23CB107D9F726E0A4
:101C0000A2ECB1E001C01D92AB3BB207E1F71DE0D1
:101C1000CEEEDDE004C02197FE010E946F1ECD3E96
:101C2000D107C9F70E946D180C94751E0C94000022
:101C300090E0E2E5F2E091119FEF8FEF91939193A5
:101C4000919391938150D0F7E4EAF6E0128A118AD9
:101C5000108A1786089568EE73E080E090E0AB018B
:101C6000FC010E94470E41505109E109F10928F099
:101C700068517C4F8F4F9F4FF6CFAB01FC010E9404
:101C8000470E641775078E079F07C8F30895AAECDF
:101C9000B1E02FB7F8947D918D919C9166B52FBFDF
:101CA000A89B05C06F3F18F47F5F8F4F9F4F22E0C6
:101CB000660F771F881F991F2A95D1F70895E2E5CF
:101CC000F2E0A0E0B8E000800EBC8111012C119779
:101CD000A0FDFDCF0192B9F70DB4089580E00C94FA
:101CE0005F0E9091AE06982329F09091AD0698234F
:101CF00081E009F080E00895FC0180915102882381
:101D000011F13FB7F89482E08093E9002091F2004E
:101D1000822F90E01816190614F481E090E08823D1
:101D200039F0289844E6409350024091F1004083F6
:101D3000222339F02091F200211103C02BE62093D9
:101D4000E8003FBF08958FEF9FEF08952FB7F894F5
:101D500083E08093E9009091E800892F807295FFDD
:101D600004C09091F20080E4891B2FBF08958091F8
:101D7000480281110DC082E08093440284E0809388
:101D80004502109247021092460281E08093480279
:101D900084E492E00895CF93DF931F92CDB7DEB72E
:101DA0006983DC01ED91FC910280F381E02D41E03B
:101DB00050E0BE016F5F7F4F09950F90DF91CF918B
:101DC000089583E08093E9008091F200882319F060
:101DD0008AE38093E80008950E94A60E90E008959B
:101DE000CF93DF931F92CDB7DEB7FC018485958535
:101DF00097FD08C02FEF3FEF358724870F90DF91C5
:101E0000CF910895CE0101960E947C0E019719F49E
:101E1000898190E0F3CF8FEF9FEFF0CF0F931F9367
:101E2000CF93DF931F92CDB7DEB78C01FC01848581
:101E3000958597FF0BC0CE0101960E947C0E0197FD
:101E400071F4898190E0F80195878487F801848591
:101E500095850F90DF91CF911F910F9108958FEF8E
:101E60009FEFF1CFFC018485958597FD0BC09FB74F
:101E7000F89482E08093E9008091F2009FBF90E0A7
:101E8000019608959FB7F89482E08093E9008091CD
:101E9000F2009FBF90E0089540913E0250913F02B2
:101EA00020913C0230913D0242175307B4F49091C7
:101EB000E8009570E1F39091E80092FD19C08093DD
:101EC000F10080913E0290913F0201968F73992715
:101ED000892B19F48EEF8093E80080913E02909157
:101EE0003F02019690933F0280933E0281E0089565
:101EF00080E00895DF92EF92FF920F931F93CF93AC
:101F0000DF93D82E8A01EB017B01E40EF51ECE157E
:101F1000DF0559F0D7FE12C0FE0184910E944C0FDC
:101F200021968111F4CF0FEF1FEFC801DF91CF9100
:101F30001F910F91FF90EF90DF9008958881EECF71
:101F40000F931F93CF93DF931F92CDB7DEB782E03D
:101F5000898342E450E06DE67BE180E80E947A0FDD
:101F60000E94B70EDC0112960D911C91011511050E
:101F700089F0D801ED91FC910280F381E02DBE0142
:101F80006F5F7F4FC801099597FD04C0F801008578
:101F90001185ECCF89810F90DF91CF911F910F9127
:101FA0000895615030F02091F100FC0120830196EA
:101FB000F8CF289884E68093500208950895AF9250
:101FC000BF92CF92DF92EF92FF920F931F93CF9326
:101FD000DF936C017B018B01040F151FEB015E0188
:101FE000AE18BF08C017D10759F06991D601ED911D
:101FF000FC910190F081E02DC6010995892B79F7BC
:10200000C501DF91CF911F910F91FF90EF90DF906D
:10201000CF90BF90AF900895FC010E94470E31977A
:1020200028F068517C4F8F4F9F4FF9CFAB01FC01D7
:102030000E94470E641775078E079F07C8F308951F
:102040008F929F92AF92BF92CF92DF92EF92FF92C8
:102050000F931F93CF93DF936C017B018A018091D3
:102060001101882309F45AC080915102882309F490
:1020700055C08091430280FF05C08091E0008260DE
:102080008093E000E801B12C8AEFA82E93E0892E1E
:102090002AE3922E209711F4BB20C9F10E94A60ECC
:1020A000811108C0AA94AA20C9F181E090E00E94A1
:1020B0000C10F0CF8C171D0611F00CF08C2F9FB771
:1020C000F8948092E9002091E80025FD02C09FBFAE
:1020D000E1CF282F30E0C21BD30BF701815020F055
:1020E00041914093F100FACFE20EF31EBB2021F0A4
:1020F0009092E800B12CEBCF8091E80085FDE7CF0E
:102100009092E800BB24B394209709F3F3CF5D9835
:1021100084E680934202101611063CF081E090E0C4
:10212000F6019383828310E000E0C801DF91CF9134
:102130001F910F91FF90EF90DF90CF90BF90AF90E5
:102140009F908F9008954F925F926F927F928F929F
:102150009F92AF92BF92CF92DF92EF92FF920F9336
:102160001F93CF93DF934C01FC2DC02FD0E0DE01F5
:10217000A80FB91F1A161B060CF050C080E888166D
:1021800091040CF04BC0CB018E0D911D892B09F4ED
:1021900045C04115510509F441C0962F977013E0D1
:1021A000759567951A95E1F7162FAA24BB24A818F0
:1021B000B90897FC02C0B12CA12CA038B10514F0CD
:1021C00000E808190A19E1E08E2D877009F4E0E0B3
:1021D000E694E694E694EE0EDB01AE0DB11D199780
:1021E0001CF0E8E0EE2EE61ADB01B695BA2FAA271E
:1021F000B795A795A80DB91DAA0DBB1D4A0D5B1D6E
:10220000892E092E000C9908F33009F40DC1B8F499
:10221000F13009F4C3C0F23009F447C0DF91CF9127
:102220001F910F91FF90EF90DF90CF90BF90AF90F4
:102230009F908F907F906F905F904F900895FA3F9E
:1022400009F479C0FB3F51F7812F861B8E1530F7BB
:102250009D012E5A3D4FD12CC12CC01608F098C0BC
:10226000FA01EC0DFD1DA490B12C082C02C0AA0CA3
:10227000BB1C0A94E2F717FD07C0F9018081EA2D23
:10228000E0958E23F9018083992349F017303CF4BF
:10229000F901E058FF4FB09480818B218083FFEFDC
:1022A000CF1ADF0A2F5F3F4FD8CF66246A94712C74
:1022B000092E02C0660C771C0A94E2F760947094B1
:1022C000572C812F861B8E1508F0A8CF9D012E5A02
:1022D0003D4FD12CC12CC01618F5FA01EC0DFD1D97
:1022E000A490B12C082C02C0AA0CBB1C0A94E2F7E3
:1022F00017FD05C0F901808186218A2980839923F1
:1023000049F017303CF4F901E058FF4F80818521F6
:102310008B298083FFEFCF1ADF0A2F5F3F4FDBCF80
:102320004C0F5D1FA058BF4F1F5FCBCF4C0F5D1FE1
:10233000A058BF4F1F5F812F861B8E1508F06ECFF0
:102340009D012E5A3D4FD12CC12CC01678F7FA01B1
:10235000EC0DFD1DA490B12C082C02C0AA0CBB1CD6
:102360000A94E2F717FD04C0F90180818A2980836D
:10237000992341F0173034F4F901E058FF4F808180
:102380008B298083FFEFCF1ADF0A2F5F3F4FDDCF0E
:102390004C0F5D1FA058BF4F1F5F56CFA20EB31E3C
:1023A000812F861B8E1508F039CF9D012E5A3D4F87
:1023B000D12CC12CC01680F5F501EC0DFD1D6490EB
:1023C000712C082C02C0660C771C0A94E2F760940A
:1023D0007094FA01EC0DFD1D4490512C082C02C0A4
:1023E000440C551C0A94E2F717FD05C0F9018081E1
:1023F000862184298083992349F017303CF4F90120
:10240000E058FF4F8081872185298083FFEFCF1A15
:10241000DF0A2F5F3F4FCECF4C0F5D1FAC0EBD1EAE
:10242000A058BF4F1F5FBCCFC02ED12CA40EB51E2D
:10243000AE5ABD4F20E830E02C193D09CC19DD091A
:10244000AE01440F551FC1E0D0E06E01092E01C05E
:10245000CC0C0A94EAF77E2DE02EF501F92ECF93ED
:10246000DF93ED01EF96EF96229665908590FF2021
:1024700059F06C9C30018C9C400167302CF4A88092
:102480009094A920A728A99266233AF0AC90809452
:10249000A820A628AD920C944E1211960A9529F701
:1024A0007A9551F00E2D63951124E40FF11DA20FC2
:1024B000B11DC20FD11DD9CFDF91CF911124AECE66
:1024C0002D9A089590E00C940C108FB18095807F28
:1024D000669B88601C9B846008952F923F924F9268
:1024E0005F926F927F928F929F92AF92BF92CF92A4
:1024F000DF92EF92FF920F931F93CF93DF93CDB7AD
:10250000DEB72B970FB6F894DEBF0FBECDBF9C830E
:102510008B836A3061F5DC0155968C91B8E08B9F16
:1025200090011124EB81FC8181899289820F931F94
:10253000928B818B108A178681E090E02B960FB6E4
:10254000F894DEBF0FBECDBFDF91CF911F910F91E9
:10255000FF90EF90DF90CF90BF90AF909F908F90C3
:102560007F906F905F904F903F902F9008956D30C7
:1025700019F3AB81BC8155969C90559754965C900D
:1025800054975D8253964C9053975196ED90FC90E2
:1025900052971F968D919C91092D10E080389105DE
:1025A0000CF084C020E4E216F1040CF07FC0E5E0FA
:1025B0009C019E9E200D311D1124121613060CF055
:1025C00075C09801F3E0220F331FFA95E1F72E0D45
:1025D0003F1D121613060CF069C06E9FF001112406
:1025E000BF0162557E4E7F836E83AC01712CEE81FC
:1025F000FF812491F5E07F1201C020E0670178E0BF
:10260000672E222E312C842C20FF8D80811004C057
:102610005D80541409F437C09A012983622F641B2A
:10262000691508F030C01B861A866A85691540F561
:1026300020383105F0F4AA84BB84AC0CBD1C70E4D6
:10264000A716B104B0F4F50170E1598061E0E1FD35
:1026500064E0E0FD660FE2FD6295E87F7E9FD001B9
:102660001124A50DAE5ABD4F0C90062A80FE0626F9
:102670000C926A857B856F5F7F4F7B876A87D5CF9A
:102680002F5F3F4FCACF9101359527956A94C00EB1
:10269000D11E6110B6CF7394EE81FF813196FF8316
:1026A000EE83400F511FF6E07F12A1CF26E0929EED
:1026B000800D911D1124AB81BC8150969C938E930B
:1026C0001F9756962C915697222309F435CF4AEF3F
:1026D00040039001419F300D112420583F4F28178F
:1026E00039070CF029CFCD01ED91FC910190F081DB
:1026F000E02D6AE0099520CF0895089590E080E0EC
:102700000895CF92EF920F938091D501803118F404
:102710008F5F8093D5012091D5018091A206909181
:10272000A306ECEAF0E00491EDEAF0E0E4904EEA72
:1027300050E02223F9F061E070E03E2D377011F493
:1027400070E060E04E2D469546954695460F572F12
:10275000511D049FB001059F700D112430E0220F20
:10276000331F629FA001639F500D729F500D112473
:1027700042555F4F23E0C22E30E020E06EE170E072
:102780000E94A3100F91EF90CF9008958F929F9287
:10279000AF92BF920F931F93CF93DF93CDB7DEB766
:1027A000A1970FB6F894DEBF0FBECDBF19A242307D
:1027B00008F44AE08E010F5D1F4F842E912CB12C3E
:1027C000A12CA50194010E943E1EE62FB901CA0169
:1027D000EA3044F5E05DD801EE938D01232B242BE4
:1027E000252B79F790E080E0109769F0FD010190CA
:1027F0000020E9F73197AF014A1B5B0BBD0184EA6A
:1028000096E00E94DF0FA1960FB6F894DEBF0FBED0
:10281000CDBFDF91CF911F910F91BF90AF909F904F
:102820008F900895E95CD7CFCF92DF92EF92FF921D
:10283000CF93DF936B017C016DE284EA96E00E9406
:102840006D12EC0166277727CB016C197D098E0983
:102850009F094AE00E94C6138C0F9D1FDF91CF9104
:10286000FF90EF90DF90CF900895FC010190002041
:10287000E9F73197AF01481B590BBC0184EA96E098
:102880000C94DF0F80910001909101011816190638
:102890000CF44AC00E94180E88E290E09093B406AF
:1028A0008093B3068AE090E09093B6068093B506D5
:1028B00082E08093B90683E491E00E94351481E0C0
:1028C0008093B9061092B4061092B30680E290E0AD
:1028D0009093B6068093B50688E491E00E94351483
:1028E0000E946E0E0E942B0E81E090E090930501F5
:1028F0008093040122E030E0309303012093020131
:102900001092D3011092D2019093010180930001A3
:102910000E9465128C708C3051F084E690E00E9429
:102920000C100E94180EF4CF0E94180ECBCF1092FC
:102930003B0210923A020895BC01990F880B990B43
:1029400097FD0C9414144AE00C94C6130F931F9334
:10295000CF93DF93C4EAD6E0188A1F8605E010E023
:102960001A8B098B8DE591E00E943514809104014A
:10297000909105010E949C148BE490E0988B8F87C6
:102980001A8B098B85E691E00E9435148091D20163
:102990009091D3010E949C14DF91CF911F910F91D0
:1029A0000C946E0E0C94F61D1F920F920FB60F92A0
:1029B00011248F939F938091E1009091E100937F88
:1029C0009093E10083FF0FC01092E90091E0909393
:1029D000EB001092EC0092E39093ED001092510204
:1029E00098E09093F00082FF22C093E09093E9007A
:1029F0009091F200992319F09AE39093E800909156
:102A00004202992341F090914202915090934202E8
:102A1000911101C05D9A90915002992341F09091DB
:102A20005002915090935002911101C0289A84FF56
:102A300018C08091E2008E7E81608093E2008091D8
:102A4000E1008F7E8093E100809143028E7E806161
:102A5000809343029F918F910F900FBE0F901F9014
:102A6000189580FFF7CF8091E2008E7E8061809381
:102A7000E2008091E1008E7E8093E100809143022C
:102A80008E7E8160E5CF1F920F920FB60F921124B8
:102A9000CF92DF92EF92FF920F931F932F933F936A
:102AA0004F935F936F937F938F939F93AF93BF9356
:102AB000EF93FF93CF93DF93CDB7DEB76C97DEBF75
:102AC000CDBF1092E9008091E80083FF25C068E047
:102AD000CE0145960E94D10F82EF8093E8008D8948
:102AE00087FF39C09091E80090FFFCCF982F907637
:102AF00009F034C19E894F89588D2F89F88C911126
:102B000031C0803861F5809141028093F1001092CC
:102B1000F1008EEF8093E8006C960FB6F894DEBF5C
:102B20000FBECDBFDF91CF91FF91EF91BF91AF91DC
:102B30009F918F917F916F915F914F913F912F91D5
:102B40001F910F91FF90EF90DF90CF900F900FBEED
:102B50000F901F9018959EEF9093E800C7CF1092AA
:102B6000F100D5CF913059F48111D3CF41305105C7
:102B700081F6809141028D7F80934102CACF9330CC
:102B800049F48111C6CF4130510519F680914102B7
:102B90008260F2CF953041F48091E80080FFFCCF55
:102BA00020682093E300B5CF963009F0A9C00B8DC3
:102BB0001C8D22E01092E90010923F0210923E021A
:102BC000F2122EC010923D0210923C020E94A00F01
:102BD0001F8299E09983FA8291E09E8390EA988718
:102BE0009AEF998720913E0230913F02275F3F4F35
:102BF0003C832B838D831092E90010923F02109248
:102C00003E0210933D0200933C0249E050E0BE01B9
:102C10006F5F7F4F80E00E947A0F0E94A00F79CFF4
:102C200010933D0200933C020E94B70EDC01129605
:102C30000D911C910115110509F451C1D801ED91B7
:102C4000FC910480F581E02DBE016B5E7F4FC801D1
:102C50000995009709F03EC1F80100851185EACF7A
:102C6000F3E0FF120EC08F89882309F440C0823040
:102C700061F440E867E081ED9BE10E94BF1781119C
:102C800048CF81E28093EB0047CF813029F440E8C0
:102C90006BE085EC9BE1F1CF833099F70E94B70E92
:102CA000DC011296ED90FC908E010F5F1F4F6801C2
:102CB000E114F10479F0D701ED91FC910680F781E0
:102CC000E02DB801C7010995080F111DF701E08437
:102CD000F184EECFD8011C92F60101900020E9F7B3
:102CE0003197BF016C197D0940E0C601C6CF6FEA7C
:102CF0007BE1FB01449150E080E80E947A0F09CF0C
:102D0000973009F4BECF983021F481E08093F10030
:102D100000CF993009F0FDCE837009F0B2CFE7E122
:102D2000F1E081E031E096E32191222371F080937C
:102D3000E9003093EB00DF0111972C912093EC0018
:102D40009093ED008F5F873079F78EE78093EA00EC
:102D50001092EA008F8980935102DBCE8B8D9C8D7F
:102D60001092E90010923F0210923E0290933D02B1
:102D700080933C02898D811192C08E899D89913A00
:102D800049F4813209F07DCF47E050E06AE071E01C
:102D900080E0B3CF913209F074CF833269F48F8928
:102DA000988DB0E0A0E08093060190930701A09376
:102DB0000801B0930901ADCE803269F48091E8003A
:102DC00082FFFCCF67E08AE091E00E94D10F8BEF99
:102DD0008093E8009ECE823209F09BCE8F8980934B
:102DE0001101EEEFFFE7859194918B3F9C4D51F1DE
:102DF000E0E0F8E080910A0190910B01A0910C01B4
:102E0000B0910D01803B9440A105B105F1F4809192
:102E1000110180FD1AC0EE3F8AE0F80789F587E7C7
:102E200097E791838083809160008093400288E1DE
:102E30009BE00FB6F894A895809360000FBE909326
:102E4000600067CEEEEFFAE0D5CF808191818737C1
:102E5000974709F05ECEA8958091600088618093C5
:102E600060008091400280936000EE3F2AE0F2070C
:102E700089F08091FE0A9091FF0A9183808349CE68
:102E8000808191818737980751F29093FF0A809350
:102E9000FE0AC5CF1092FF0A1092FE0A3ACE0E9497
:102EA000B70EDC0112960D911C910115110509F464
:102EB000E8CED801ED91FC910190F081E02DBE01AA
:102EC0006B5E7F4FC8010995811123CEF801008503
:102ED0001185EBCF181619060CF41BCED2CEF1E0FB
:102EE000FF12BECE63EB7BE104CF0F920FB68F9340
:102EF0009F93EF93FF938091C9018D5F8D3708F009
:102F00008D578093C901EEECF1E080818E4F808374
:102F100091819F4F918382818F4F828383818F4FD5
:102F20008383EAECF1E080818F5F808381818F4F22
:102F3000818382818F4F828383818F4F83838FB17F
:102F40008F6066991C9B88278F3681F48091C80119
:102F5000981B963068F0E0E0F8E087E78083818393
:102F600088E180936000F0936000FFCF9093C801E8
:102F7000FF91EF919F918F910FBE0F901895EF9257
:102F8000FF920F931F93CF93DF93F82E192FE62E06
:102F9000042F81E0860F880F0E944C0F83E00E946F
:102FA0004C0FCF2DD12FEC0EFD2EF11CCE15DF05D1
:102FB000B9F007FF13C0FE0184910E944C0F182F37
:102FC00080E00E944C0F812321968111EFCFDF9189
:102FD000CF911F910F91FF90EF9008958881EDCFD1
:102FE00081E0F5CF0F931F93CF93DF938C0181E0A6
:102FF00090E00E94D21480FF31C08AE090E00E94ED
:10300000D2149FEF980F9E3F48F522E330E0D8019D
:1030100050963C932E931F9728E330E052963C93B2
:103020002E935197CBE0D0E0D801ED91FC91019027
:10303000F081E02D682FC8010995CE010E94D214BD
:103040002196C131D10581F70E946E0E88EE93E082
:10305000DF91CF911F910F910C940C10DF91CF91C4
:103060001F910F91089504970C94F217E2E5F6E092
:103070001382128288EE93E0A0E0B0E0848395830F
:10308000A683B78381E291E0918380838FEF9FEFE6
:1030900095878487E4EAF6E013821282118612860D
:1030A00080E1838710861782158683E391E0918300
:1030B000808381E491E095838483108A1786128A45
:1030C000118A81E0838B148A858B168A80E390E0D5
:1030D0009093A3068093A2060895789483E084BD1C
:1030E00083E085BD81E080936E00E1E8F0E083E05D
:1030F0008083E0E881E08083E1E983E08083E0E9A8
:1031000081E08083E1EC87E08083E3EC81E08083F1
:10311000E0EC82E08083E2EC81E08083EAE787E014
:103120008083806880831092510210924102109235
:1031300043028091D70081608093D70080EA80931A
:10314000D80089B5806189BD89B5826089BD09B41F
:1031500000FEFDCF81E090E00E940C108091D8002D
:103160008F7C80618093D8008091E000807F809385
:10317000E0008091E1008E7E8093E1008DE08093FD
:10318000E200559A209A81EC80937C0081EF85B90A
:1031900087EE84B982E38BB982EF8AB9769A6E980A
:1031A00080EF81BB10BA80E58CBD81E08DBD85E0EC
:1031B0000E9462125F9A85E00E9462125C98EEE5BE
:1031C000F7E185918EBD00000DB407FEFDCFEB3613
:1031D000C1F75C9A81E88093640081E08093650088
:1031E0000E945F0E0E94651287FF15C05C9885EAF9
:1031F0008EBD00000DB407FEFDCF5C9A2E982F986F
:103200002D988091640080628093640081E083BF88
:10321000889513BEFCCF0E94651282FF45C02D9891
:103220000E94651284788438D9F40E94601288EC78
:103230000E9462122F9882E090E00E94F61D8F3F5C
:1032400029F06FEF82E090E00E94FE1D84EF91E094
:103250000E940C102F9A0E94651284788438D9F34A
:103260000E94651284718431D9F40E94601288EC46
:103270000E9462122E9882E090E00E94F61D882340
:1032800029F060E082E090E00E94FE1D84EF91E072
:103290000E940C102E9A0E94651284718431D9F319
:1032A00088EC0E946212B7CF0E94601282E090E028
:1032B0000E94D214882309F441C03E9A3F9A81E0CB
:1032C00090E00E94D214082F0470F02E81FF0CC0F1
:1032D00001112E98C1EFDFEF0E94651286FF31C009
:1032E0002E9A2F9A0E94601282E30E9462120E941C
:1032F00065128111F9CF80E18093AF060E946E0EB6
:103300000E94180E14E0812E912CA12CB12C9091CA
:10331000CE018091B006F92FF81B8F2F2091B106B6
:10332000222309F47BC0F093B2061092B10680E02C
:1033300090E0892B61F30E940000E9CF3E983F980E
:10334000BECFFF2029F0C430D10511F42E9A2F985A
:1033500081E00E945F0E1C2F1770B12E9E0103E0CA
:10336000359527950A95E1F7C9019695982F8827F5
:10337000979587958E5A9D4F50E040E02E3F6FEF16
:10338000360751F1DC01AC56BF4F8C0170E060E0B4
:10339000FA01E255F94E6F01F601E60FF71FE491CD
:1033A000F0E04F010B2C02C0880C991C0A94E2F744
:1033B0002F3F320721F0F801E488E828E48ABB2097
:1033C00019F0EC91E929EC936F5F7F4F11960F5F35
:1033D0001F4F6835710501F72F5F3F4F80589F4F92
:1033E000485A5F4F403B510549F60E946E0E8FE0F0
:1033F0000E9462122196C931D10509F06DCFFF20DC
:1034000011F02F9A2D9880E991E00E940C100E94F3
:10341000601284EA96E00E94F21766CF2091AF0610
:10342000F21748F48F5F821708F081CF81E083BFE5
:10343000889513BE7CCF81E08093B1069093B0064F
:10344000EBEAF6E0808191810196808391838091FF
:10345000AD068093AE060E9465128093AD060E9471
:10346000180EC0913A02D0913B02C130D10509F447
:1034700081C02CF4CD2BA1F00E946E0E58CFC2302B
:10348000D10509F402C32397B9F71092B40610923C
:10349000B3061092B6061092B5068CEB91E0FFC20F
:1034A0001092B4061092B3061092B6061092B506AA
:1034B000EBE6F7E10491ECE6F7E1E490D2E0CD2E03
:1034C00030E020E04DE657E170E060E090E080E021
:1034D0000E94A3100E9465128C708C3069F681E006
:1034E00090E0909305018093040122E030E0309356
:1034F0000301209302011092D3011092D201909304
:10350000010180930001809164008E7F80936400AC
:1035100080917A00806480937A0080917A0086FDA1
:10352000FCCFC0917800D09179000E94470EAB018A
:10353000BC01CE01B0E0A0E0DC01992788278C0116
:103540009D01040F151F261F371FC901B8012091C7
:103550006400216020936400611571058105910567
:1035600011F00E94ED1D81E090E090933B0280936A
:103570003A0282CF1092B4061092B3061092B606A9
:103580001092B5068DE691E00E9435140E94180E47
:10359000D0930501C0930401B4E12B2E312CACE093
:1035A000CA2E8091040190910501C3970CF06AC264
:1035B00006ED11E0D0E0C0E0E4E0FE2EF0E1EF2EF9
:1035C00080910401909105018C179D070CF46BC04C
:1035D0000E949E1DA50194010E940C1EF80161939A
:1035E00071938F016115710509F50E949E1DA5015A
:1035F00094010E940C1E6330B1F06093D5010E94CB
:1036000081130E94A61480ED97E00E940C10E092B6
:10361000D5010E9481130E94A6148CE291E00E94C1
:103620000C102196CDCF1092D501E9CF61307105F4
:1036300099F40E949E1DA50194010E940C1EDC01BC
:10364000CB010496A11DB11D873019F08093D501DF
:10365000D6CFF092D501D3CF6230710589F40E94A4
:103660009E1DA50194010E940C1EDC01CB01089651
:10367000A11DB11D8B3051F7F8E0F093D501BFCFFC
:103680006330710571F60E949E1DA50194010E9490
:103690000C1EDC01CB010C96A11DB11D8F30B1F6C3
:1036A000C092D501ACCF63E0462E512C612C712C19
:1036B000DD24D3947EE1E72EF12C0FE310E0C8E285
:1036C000D0E00E94180ED092B9063092B406209233
:1036D000B3063092B6062092B50682E791E00E94CA
:1036E0003514D092B9063092B4062092B306F09207
:1036F000B606E092B5068FE791E00E94351410936C
:10370000B4060093B306D093B606C093B506D09224
:10371000B9064AE0C301B2010E94C613D092B906AD
:103720000E94A61484EF91E00E940C1021E0421A3E
:1037300051086108710829F60E94180E82E08093F2
:10374000B906D093B406C093B30689E190E0909394
:10375000B6068093B5068AE891E00E9435140E946F
:103760006E0E88EE93E00E940C100E94180ED0920C
:10377000B9060E94A6141092D401D0E0C0E0DD2466
:10378000D3944EE1E42EF12C08E210E054E0752EC3
:103790008091AD068093AE060E9465128093AD06BF
:1037A0000E94651284788438C1F50E94180E83E265
:1037B00090E09093B4068093B3063092B6062092C0
:1037C000B506D092B9068FE891E00E943514D092E8
:1037D000B906EFE0F0E0F093B406E093B306F092A0
:1037E000B606E092B5068BE991E00E9435142DE211
:1037F00030E03093B4062093B3061093B6060093DE
:10380000B5068EEA91E00E9435140E946E0E88EE95
:1038100093E00E940C100E94421480E10E94710EFD
:10382000882371F10E949E1DA50194010E940C1E27
:10383000633009F4D4C06093D5010E9481130E94C3
:10384000A61484EF91E00E940C1080E18093D501D2
:103850000E948113FE01EE0FFF1FEA52FE4F80818E
:103860009181892B09F0C8C021968091D201909155
:10387000D30101969093D3018093D2010E94A614A4
:1038800080E80E94710E882399F10E949E1DA50177
:1038900094010E940C1EDC01CB010496A11DB11DF8
:1038A000873009F49FC08093D5010E9481130E9444
:1038B000A61484EF91E00E940C1080E18093D50162
:1038C0000E948113FE01EE0FFF1FEA52FE4F80811E
:1038D0009181019709F090C021968091D201909139
:1038E000D30101969093D3018093D2010E94A61434
:1038F00080E40E94710E882399F10E949E1DA5010B
:1039000094010E940C1EDC01CB010896A11DB11D83
:103910008B3009F46AC08093D5010E9481130E9404
:10392000A61484EF91E00E940C1080E18093D501F1
:103930000E948113FE01EE0FFF1FEA52FE4F8081AD
:103940009181029709F058C021968091D2019091FF
:10395000D30101969093D3018093D2010E94A614C3
:1039600080E20E94710E882389F10E949E1DA501AC
:1039700094010E940C1EDC01CB010C96A11DB11D0F
:103980008F30B9F18093D5010E9481130E94A61453
:1039900084EF91E00E940C1080E18093D5010E9499
:1039A0008113FE01EE0FFF1FEA52FE4F80819181CD
:1039B000039711F521968091D2019091D301019640
:1039C0009093D3018093D2010E94A61480910201AA
:1039D00090910301C817D9070CF4DACE19C01092E0
:1039E000D5012BCF7092D50160CF38E03093D5014F
:1039F00094CFC092D501C8CF809100019091010170
:103A00000197909301018093000181E08093D4019C
:103A10008091D401882379F180910401909105016E
:103A20000197909305018093040180910201909188
:103A30000301019790930301809302018091040197
:103A40009091050101969093050180930401809166
:103A5000020190910301019690930301809302016A
:103A60008091000190910101181619060CF499CD6E
:103A70000E94421494CD0E94A61488EE93E00E9406
:103A80000C10DCCF0E946E0EF7CC1092B406109290
:103A9000B3061092B6061092B50687EB91E00E942D
:103AA0003514EACC8F929F92AF92BF92CF92DF9261
:103AB000EF92FF92CF93DF93EC01688179818A8145
:103AC0009B81611571058105910521F464E279ED11
:103AD0008BE597E02DE133EF41E050E00E940C1EB2
:103AE00049015A019B01AC01A7EAB1E40E942B1ED7
:103AF0006B017C01ACEEB4EFA50194010E94391E6C
:103B0000C60ED71EE81EF91EF7FE06C081E0C81AD1
:103B1000D108E10880E8F80AC882D982EA82FB82EB
:103B2000C701B6019F77DF91CF91FF90EF90DF90B3
:103B3000CF90BF90AF909F908F9008958F929F925B
:103B4000AF92BF92CF92DF92EF92FF9260911201FB
:103B50007091130180911401909115016115710507
:103B60008105910521F464E279ED8BE597E02DE183
:103B700033EF41E050E00E940C1E49015A019B01C5
:103B8000AC01A7EAB1E40E942B1E6B017C01ACEEF4
:103B9000B4EFA50194010E94391EC60ED71EE81E7F
:103BA000F91EF7FE06C081E0C81AD108E10880E8D6
:103BB000F80AC0921201D0921301E0921401F0921F
:103BC0001501C701B6019F77FF90EF90DF90CF906E
:103BD000BF90AF909F908F90089560931201709363
:103BE000130180931401909315010895F999FECF64
:103BF00092BD81BDF89A992780B50895262FF9992D
:103C0000FECF1FBA92BD81BD20BD0FB6F894FA9ABF
:103C1000F99A0FBE01960895052E97FB1EF40094A5
:103C20000E94231E57FD07D00E943E1E07FC03D0B2
:103C30004EF40C94231E50954095309521953F4F9E
:103C40004F4F5F4F089590958095709561957F4F88
:103C50008F4F9F4F08950E94601EA59F900DB49FA7
:103C6000900DA49F800D911D11240895B7FF0C9411
:103C70002B1E0E942B1E821B930B0895A1E21A2E6D
:103C8000AA1BBB1BFD010DC0AA1FBB1FEE1FFF1F00
:103C9000A217B307E407F50720F0A21BB30BE40B50
:103CA000F50B661F771F881F991F1A9469F7609597
:103CB0007095809590959B01AC01BD01CF01089551
:103CC000A29FB001B39FC001A39F700D811D11245D
:103CD000911DB29F700D811D1124911D0895EE0F4D
:0E3CE000FF1F0590F491E02D0994F894FFCF9A
:103CEE00010001000100FFFFFFFF00E100000000E6
:103CFE0000000100000000C18081000000000000F3
:103D0E0000CB0E2010EC0EE10E320FF00E0E0F0057
:103D1E000000006D12DF0F7E137D13F217FCFF0003
:103D2E00003318464F4F21005072657373204120A7
:103D3E002B204220746F20526573657400526F758C
:103D4E006E643A200053636F72653A200047616DCE
:103D5E00650051756167676F6E20736179730067D7
:103D6E0065742052656164792100434F4F210070C4
:103D7E006C65617365207761697400517561676761
:103D8E006F6E7320726573736574696E6700746805
:103D9E00652067616D65004F7665720053636F72C3
:023DAE006500AE
:00000001FF
